:100000000C9481000C94B2000C94B2000C94B200D9
:100010000C94B2000C94B2000C94B2000C94B20098
:100020000C94B2000C94B2000C94B2000C94B20088
:100030000C94B2000C94B2000C94B2000C94B20078
:100040000C94B2000C94B2000C94B2000C94B20068
:100050000C94B2000C94B2000C94B2000C94700199
:100060000C94B2000C94F2030C94BE040C94B200F5
:100070000C94B2000C94B2000C94B2000C94B20038
:100080000C94B2000C94B2000C94B2000C94B20028
:100090000C9425040C94FD040C94B2000C94B20052
:1000A0000C94B2000C94B2000C94B2000C94B20008
:1000B0000C94B2000C94B2000C94B2000C94B200F8
:1000C0000C94B2000C94B2000C94B2000C9458043E
:1000D0000C943C050C94B2000C948B040C947B059E
:1000E0000C94B2000C949A060C944F030C941C02CE
:1000F0000C9496030C943F030C948B030C946B03A9
:100100009A0611241FBECFEFD1E2DEBFCDBF00E0C3
:100110000CBF13E0A0E0B2E0E6E3FFE000E00BBFBD
:1001200002C007900D92AA35B107D9F726E0AAE5DB
:10013000B3E001C01D92AB30B207E1F710E0C1E8B7
:10014000D0E000E006C021970109802FFE010E9447
:100150009107C038D10780E00807A9F70E9447013E
:100160000C946C070C940000FC019F01281B390BB8
:1001700041914111FACFC90108950F931F93CF9375
:10018000DF938C010E94B400EC01D7FD0AC0F80196
:10019000EC0FFD1F608189EC93E00E945B022197C8
:1001A000F4CF89EC93E0DF91CF911F910F910C94E4
:1001B00062020F931F93CF93DF938B010E94B400D1
:1001C000EC018017910721F169E472E089EC93E07A
:1001D0000E94760267E672E089EC93E00E94590281
:1001E0004AE050E0B80189EC93E00E94280362E7FE
:1001F00072E089EC93E00E9459024AE050E0BE01AF
:1002000089EC93E0DF91CF911F910F910C9428031B
:10021000DF91CF911F910F91089568E772E089EC0B
:1002200093E00E94760265E070E087E992E00E9428
:10023000D90062E170E08DE992E00E94D90064E0AB
:1002400070E080E092E00E94D9006DE070E080EB09
:1002500092E00E94D90061E070E088E493E00E949F
:10026000D9006DE070E08EEB92E00E94D9006CEC5A
:1002700072E089EC93E00C9476020E94BA0140E8A7
:1002800055E260E070E089EC93E00C94BA050E94BE
:100290003D010E940D016CED72E089EC93E00E943B
:1002A000590287E992E00E94BD0062EF72E089EC9A
:1002B00093E00E9459028FE292E00E94BD006CE23E
:1002C00073E089EC93E00E9459028EEB92E00E9469
:1002D000BD0089EC93E00E94420680E090E0089522
:1002E0001F920F920FB60F9211242F933F938F936B
:1002F0009F93AF93BF9380915B0390915C03A09118
:100300005D03B0915E0330915A0323E0230F2D3734
:1003100020F40196A11DB11D05C026E8230F029609
:10032000A11DB11D20935A0380935B0390935C033E
:10033000A0935D03B0935E0380915F03909160038F
:10034000A0916103B09162030196A11DB11D80933C
:100350005F0390936003A0936103B0936203BF9126
:10036000AF919F918F913F912F910F900FBE0F9062
:100370001F901895789484B5826084BD84B581609F
:1003800084BD85B5826085BD85B5816085BDEEE69D
:10039000F0E0808181608083E1E8F0E0108280817C
:1003A00082608083808181608083E0E8F0E08081EA
:1003B00081608083E1EBF0E0808184608083E0EB0A
:1003C000F0E0808181608083E1E9F0E080818260FB
:1003D0008083808181608083E0E9F0E080818160BA
:1003E0008083E1EAF0E080818260808380818160A7
:1003F0008083E0EAF0E0808181608083E1E2F1E0E7
:10040000808182608083808181608083E0E2F1E08E
:10041000808181608083EAE7F0E08081846080836E
:100420008081826080838081816080838081806818
:1004300080831092C1000895CF92DF92EF92FF92D5
:100440000F931F93CF93DF936C01EB017B01E40EBD
:10045000F51E00E010E0CE15DF0561F06991D601D0
:10046000ED91FC910190F081E02DC6011995080FE6
:10047000191FF1CFC801DF91CF911F910F91FF900C
:10048000EF90DF90CF9008956115710579F0FB0131
:1004900001900020E9F73197AF01461B570BDC01B3
:1004A000ED91FC910280F381E02D199480E090E0C1
:1004B00008950C944402DC01ED91FC910190F081CF
:1004C000E02D19940F931F93CF93DF93EC016DE010
:1004D0000E945B028C016AE0CE010E945B02800FE9
:1004E000911FDF91CF911F910F9108950F931F934B
:1004F000CF93DF93EC010E9444028C01CE010E9455
:100500006202800F911FDF91CF911F910F9108958B
:100510008F929F92AF92BF92CF92DF92EF92FF9213
:100520000F931F93CF93DF93CDB7DEB7A1970FB68D
:10053000F894DEBF0FBECDBF6C01142FE52FCB01A9
:10054000022F19A2223008F40AE07E0121E2E20E15
:10055000F11C802E912CA12CB12C612F7E2FA50196
:1005600094010E946F07029F1019112481E0E81A7C
:10057000F1081A3014F4105D01C0195CF701108302
:10058000122FE32FCA01232B242B252B31F7B70180
:10059000C6010E944402A1960FB6F894DEBF0FBEBA
:1005A000CDBFDF91CF911F910F91FF90EF90DF9022
:1005B000CF90BF90AF909F908F900895CF92DF9291
:1005C000EF92FF920F931F93CF93DF93EC016A0199
:1005D0007B012115310579F4E881F9810190F081E1
:1005E000E02D642FDF91CF911F910F91FF90EF903D
:1005F000DF90CF9019942A303105E9F477FF1AC0C3
:100600006DE20E945B028C0144275527BA014C1908
:100610005D096E097F092AE0CE010E948802800FE1
:10062000911FDF91CF911F910F91FF90EF90DF907D
:10063000CF9008952AE0B701A601CE01DF91CF91B6
:100640001F910F91FF90EF90DF90CF900C94880254
:100650000F931F93CF93DF93EC019A01AB01770FB8
:10066000660B770B0E94DE028C01CE010E946202B3
:10067000800F911FDF91CF911F910F910895FC0181
:1006800024853585F901E05CFF4F808191813296A8
:1006900020813181821B930B8F7399270895DC0190
:1006A0001C96ED91FC911D97DF01A05CBF4F2D9131
:1006B0003C91119712968D919C91119728173907AB
:1006C00039F08D919C91E80FF91F808190E0089599
:1006D0008FEF9FEF0895FC01A485B585FD01E05CD7
:1006E000FF4F20813181329680819181281739070F
:1006F00079F080819181A80FB91F8C91208131817F
:100700002F5F3F4F2F7333273183208390E008956D
:100710008FEF9FEF0895FC0181A1882329F0A48920
:10072000B5898C9186FFFBCF11A208950F931F937B
:10073000CF93DF93FC01A685B7858D01005C1F4F29
:10074000E8018881998101968F739927AD014E5BED
:100750005F4FEA012881398182179307D1F3E801BD
:1007600028813981A20FB31F6C93A685B785A05C41
:10077000BF4F11969C938E93A689B7892C9181E0E7
:1007800090E0078C02C0880F991F0A94E2F7822B31
:100790008C9381E081A30488F589E02D80818064B9
:1007A000808381E090E0DF91CF911F910F910895B8
:1007B000FB01E05CFF4F208131812F5F3F4F2F73A2
:1007C0003327DB01AE5BBF4F4D915C91241735079A
:1007D00041F040815181DB01A40FB51F8C9331831F
:1007E000208308951F920F920FB60F9211240BB61B
:1007F0000F922F933F934F935F936F937F938F93BA
:100800009F93AF93BF93EF93FF938091C00082FDBE
:1008100007C08091C60067EC75E00E94D80302C053
:100820008091C600FF91EF91BF91AF919F918F9101
:100830007F916F915F914F913F912F910F900BBEE0
:100840000F900FBE0F901F9018951F920F920FB62A
:100850000F9211240BB60F922F933F934F935F93F8
:100860006F937F938F939F93AF93BF93EF93FF9378
:100870008091C80082FD07C08091CE006FE375E0D3
:100880000E94D80302C08091CE00FF91EF91BF91EA
:10089000AF919F918F917F916F915F914F913F9118
:1008A0002F910F900BBE0F900FBE0F901F901895B9
:1008B0001F920F920FB60F9211240BB60F922F9327
:1008C0003F934F935F936F937F938F939F93AF93D8
:1008D000BF93EF93FF938091D00082FD07C080917A
:1008E000D60067EB74E00E94D80302C08091D60066
:1008F000FF91EF91BF91AF919F918F917F916F91F8
:100900005F914F913F912F910F900BBE0F900FBEB3
:100910000F901F9018951F920F920FB60F921124EF
:100920000BB60F922F933F934F935F936F937F93E9
:100930008F939F93AF93BF93EF93FF938091300179
:1009400082FD07C0809136016FE274E00E94D803F7
:1009500002C080913601FF91EF91BF91AF919F91BD
:100960008F917F916F915F914F913F912F910F9058
:100970000BBE0F900FBE0F901F9018951F920F92F5
:100980000FB60F9211240BB60F922F933F938F93B4
:100990009F93EF93FF932091C3053091C4058091FD
:1009A000C5059091C6052817390731F48091C1001B
:1009B0008F7D8093C10014C0E091C505F091C605FC
:1009C000ED57FA4F20818091C5059091C60501969B
:1009D0008F7399279093C6058093C5052093C60011
:1009E000FF91EF919F918F913F912F910F900BBEAF
:1009F0000F900FBE0F901F9018951F920F920FB679
:100A00000F9211240BB60F922F933F938F939F93C6
:100A1000EF93FF9320913B0530913C0580913D057C
:100A200090913E052817390731F48091C9008F7DD8
:100A30008093C90014C0E0913D05F0913E05E5505A
:100A4000FB4F208180913D0590913E0501968F736B
:100A5000992790933E0580933D052093CE00FF910A
:100A6000EF919F918F913F912F910F900BBE0F901F
:100A70000FBE0F901F9018951F920F920FB60F92F6
:100A800011240BB60F922F933F938F939F93EF9365
:100A9000FF932091B3043091B4048091B5049091F8
:100AA000B6042817390731F48091D1008F7D8093E7
:100AB000D10014C0E091B504F091B604ED58FB4F9D
:100AC00020818091B5049091B60401968F73992787
:100AD0009093B6048093B5042093D600FF91EF91D4
:100AE0009F918F913F912F910F900BBE0F900FBE52
:100AF0000F901F9018951F920F920FB60F9211240E
:100B00000BB60F922F933F938F939F93EF93FF9387
:100B100020912B0430912C0480912D0490912E046F
:100B20002817390731F4809131018F7D809331018D
:100B300014C0E0912D04F0912E04E551FC4F20816A
:100B400080912D0490912E0401968F739927909394
:100B50002E0480932D0420933601FF91EF919F91F5
:100B60008F913F912F910F900BBE0F900FBE0F9062
:100B70001F901895CF92DF92EF92FF920F931F93E1
:100B8000CF93DF93EC016A017B014115514E610562
:100B9000710509F1EC89FD8981E090E008A002C0AF
:100BA000880F991F0A94E2F7808360E079E08DE373
:100BB00090E0A70196010E946F0789019A010150F8
:100BC000110921093109369527951795079598013F
:100BD00001151041A8F0EC89FD89108260E874E8E5
:100BE0008EE190E0A70196010E946F07DA01C9012A
:100BF0000197A109B109B695A795979587959C018D
:100C0000E889F9893083EA89FB89208319A2EE8972
:100C1000FF89408181E090E09C010C8C02C0220F92
:100C2000331F0A94E2F7242B2083EE89FF89408149
:100C30009C010D8C02C0220F331F0A94E2F7242B73
:100C40002083EE89FF8940819C010E8C02C0220F17
:100C5000331F0A94E2F7242B2083EE89FF89208139
:100C60000F8C02C0880F991F0A94E2F780958223A7
:100C70008083DF91CF911F910F91FF90EF90DF90D4
:100C8000CF900895CF93DF93FC0186859785EC0183
:100C9000C05CDF4FDC01AE5BBF4F288139818D9195
:100CA0009C91119728173907C1F7A689B7893C91FC
:100CB00081E090E0AC01048C02C0440F551F0A94FF
:100CC000E2F7242F209523232C93A689B7893C9102
:100CD000AC01058C02C0440F551F0A94E2F7242F83
:100CE000209523232C93A689B7893C91AC01068CCF
:100CF00002C0440F551F0A94E2F7242F20952323A6
:100D00002C93A689B7892C91078C02C0880F991F54
:100D10000A94E2F7809582238C9384859585FC0163
:100D2000EE5BFF4F20813181329731832083DF9149
:100D3000CF910895CF92DF92EF92FF92E9ECF3E02A
:100D40001382128288EEC82E83E0D82EE12CF12C7B
:100D5000C482D582E682F7826EE473E07183608399
:100D600087EC95E09587848783E895E09787868769
:100D700085EC90E0918B808B84EC90E0938B828B60
:100D800080EC90E0958B848B81EC90E0978B868B48
:100D900082EC90E0918F808F86EC90E0938F828F31
:100DA00044E0448F33E0358F27E0268F95E0978F1E
:100DB00081E080A3E7EAF3E013821282C482D58245
:100DC000E682F78271836083AFE3B5E0B587A487DD
:100DD000ABEFB4E0B787A687ADECB0E0B18BA08BEA
:100DE000ACECB0E0B38BA28BA8ECB0E0B58BA48BDD
:100DF000A9ECB0E0B78BA68BAAECB0E0B18FA08FC6
:100E0000AEECB0E0B38FA28F448F358F268F978FD3
:100E100080A3E5E8F3E013821282C482D582E682E1
:100E2000F78271836083A7EBB4E0B587A487A3E75B
:100E3000B4E0B787A687A5EDB0E0B18BA08BA4ED99
:100E4000B0E0B38BA28BA0EDB0E0B58BA48BA1ED8D
:100E5000B0E0B78BA68BA2EDB0E0B18FA08FA6ED6E
:100E6000B0E0B38FA28F448F358F268F978F80A3EA
:100E7000E3E6F3E013821282C482D582E682F7822F
:100E8000718360836FE274E0758764876BEE73E053
:100E90007787668765E371E0718B608B64E371E04F
:100EA000738B628B60E371E0758B648B61E371E03F
:100EB000778B668B62E371E0718F608F66E371E020
:100EC000738F628F448F358F268F978F80A3FF900B
:100ED000EF90DF90CF900895F8940C949907A1E2D9
:100EE0001A2EAA1BBB1BFD010DC0AA1FBB1FEE1FA4
:100EF000FF1FA217B307E407F50720F0A21BB30BEF
:100F0000E40BF50B661F771F881F991F1A9469F76A
:100F100060957095809590959B01AC01BD01CF01C6
:100F20000895EE0FFF1F881F8BBF0790F691E02DED
:060F30001994F894FFCFB4
:100F360061626364006162616261626162616273DF
:100F460062646864666866736E68736A616A736B06
:100F5600766E616B6A736B64666B6A617366006159
:100F660062636400616261626162616261627362AE
:100F7600646864666866736E006572726F72206973
:100F86006E20676574537472696E674C656E67741C
:100F96006820746573740065787065637465643A77
:100FA6002000676F743A20005374617274696E672B
:100FB60020676574537472696E674C656E677468F2
:100FC6002054657374730068656C6C6F0071776587
:100FD60072747975696F703132333435363738004B
:100FE60038333873386439632633373238005F2B29
:100FF6005F294026232A2A265E402A0054657374F8
:10100600732061726520646F6E65210068656C6C83
:101016006F206261636B7761726473206973203A33
:10102600200061626364286E756C6C207465726D55
:10103600696E61746F722961626162616261626187
:10104600627362646864666866736E206261636B6D
:101056007761726473206973203A20005F2B5F29E1
:101066004026232A2A265E402A206261636B776126
:10107600726473206973203A200000000000960312
:0A1086001C023F036B034F038B03B2
:00000001FF
