:100000000C9442010C9473010C9473010C947301D1
:100010000C9473010C9473010C9473010C94730190
:100020000C9473010C9473010C9473010C94730180
:100030000C9473010C9473010C9473010C94730170
:100040000C9473010C9473010C9473010C94730160
:100050000C9473010C9473010C9473010C94DA01E9
:100060000C9473010C94BA040C9486050C947301DF
:100070000C9473010C9473010C9473010C94730130
:100080000C9473010C9473010C9473010C94730120
:100090000C94ED040C94C5050C9473010C9473013D
:1000A0000C9473010C9473010C9473010C94730100
:1000B0000C9473010C9473010C9473010C947301F0
:1000C0000C9473010C9473010C9473010C9420052F
:1000D0000C9404060C9473010C9453050C94430681
:1000E0000C9473010D031003030307034703140368
:1000F00018031E03220326032C0330033403470393
:100100003A033E0342030C942C030C941E030C94FC
:1001100034030C943E030C9447030C94AD030C94ED
:100120000A070C9410030C945E040C943A030C948C
:1001300042030C9426030C9407030C9407040C94BC
:1001400022030C9417040C9433040C9414030C94A1
:1001500018030C940D030C9403030C9453040C9497
:1001600030030000090A02080B0C0D070603040106
:10017000000000000000000000000000000000007F
:10018000000000000000000000000000000011104E
:100190000F00000000000000000000000000000050
:1001A00000000000000000000102102020080810DC
:1001B00020401020408002010201080402010102D7
:1001C00004081020408080402010080402018004B0
:1001D000020180402010080402010804020101020B
:1001E000040810204080010204081020408005050A
:1001F0000505070508080808020202020A0A08089D
:1002000004040404010101010101010103030303CA
:1002100003030303040707070C0C0C0C0C0C0C0C59
:100220000202020206060606060606060B0B0B0B6A
:100230000B0B0B0B000020002300260029002C00D4
:100240002F00320000010000030106010901000037
:100250002200250028002B002E003100340002016E
:100260000000050108010B01000021002400270007
:100270002A002D00300033000101000004010701B5
:100280000A010A0711241FBECFEFD1E2DEBFCDBFA6
:1002900000E00CBF12E0A0E0B2E0E6E1F0E100E037
:1002A0000BBF02C007900D92AC36B107D9F725E01D
:1002B000ACE6B2E001C01D92AD31B207E1F711E04A
:1002C000C2E4D1E000E006C021970109802FFE01C1
:1002D0000E940108C134D10780E00807A9F70E94F5
:1002E000CF010C94DC070C9400000E946F0262E0C6
:1002F00082E00E94480340E855E260E070E08BED48
:1003000092E00C948206EF92FF920F931F93CF938B
:10031000DF9386E30E94D1028C0187E30E94D10221
:10032000EC0182E00E9484037C010D3482E0180716
:100330001CF06CE272E005C00C3C114044F462E336
:1003400072E08BED92E00E94EA0391E001C090E040
:10035000CD3482E0D8071CF069E372E00AC0CC3CDF
:10036000D1401CF46FE372E004C0911106C063E455
:1003700072E08BED92E00E94EA03EF2831F46BE427
:1003800072E08BED92E00E94EA038BED92E0DF9148
:10039000CF911F910F91FF90EF900C94F3030E9467
:1003A00075010E94830168EE73E080E090E00E9496
:1003B0004902F7CF1F920F920FB60F9211242F937D
:1003C0003F938F939F93AF93BF9380916D029091D2
:1003D0006E02A0916F02B091700230916C0223E026
:1003E000230F2D3720F40196A11DB11D05C026E86D
:1003F000230F0296A11DB11D20936C0280936D0204
:1004000090936E02A0936F02B0937002809171027C
:1004100090917202A0917302B09174020196A11D95
:10042000B11D8093710290937202A0937302B093F6
:100430007402BF91AF919F918F913F912F910F9037
:100440000FBE0F901F9018953FB7F89480917102DE
:1004500090917202A0917302B091740226B5A89B8C
:1004600005C02F3F19F00196A11DB11D3FBFBA2F46
:10047000A92F982F8827820F911DA11DB11DBC01A6
:10048000CD0142E0660F771F881F991F4A95D1F76B
:100490000895CF92DF92EF92FF92CF93DF936B019B
:1004A0007C010E942402EB01C114D104E104F10497
:1004B00079F00E9424026C1B7D0B683E7340A0F310
:1004C00081E0C81AD108E108F108C851DC4FECCF2F
:1004D000DF91CF91FF90EF90DF90CF9008957894C7
:1004E00084B5826084BD84B5816084BD85B5826039
:1004F00085BD85B5816085BDEEE6F0E080818160D7
:100500008083E1E8F0E010828081826080838081D6
:1005100081608083E0E8F0E0808181608083E1EBAE
:10052000F0E0808184608083E0EBF0E08081816096
:100530008083E1E9F0E08081826080838081816056
:100540008083E0E9F0E0808181608083E1EAF0E08F
:10055000808182608083808181608083E0EAF0E036
:10056000808181608083E1E2F1E08081826080832C
:10057000808181608083E0E2F1E08081816080831E
:10058000EAE7F0E0808184608083808182608083FC
:100590008081816080838081806880831092C10027
:1005A0000895863308F0865390917B00282F287099
:1005B000977F922B90937B0087702091000290E4AC
:1005C000299F90011124822B80937C0080917A00D6
:1005D000806480937A0080917A0086FDFCCF8091C0
:1005E00078002091790090E0922B089590E0FC0132
:1005F0003197E131F10508F04AC08827EE58FF4FE6
:100600008F4F0C940108809180008F7703C08091F8
:1006100080008F7D80938000089584B58F7702C01D
:1006200084B58F7D84BD08958091B0008F7703C01D
:100630008091B0008F7D8093B000089580919000EC
:100640008F7707C0809190008F7D03C080919000CC
:10065000877F8093900008958091A0008F7707C0D6
:100660008091A0008F7D03C08091A000877F809340
:10067000A0000895809120018F7707C0809120010C
:100680008F7D03C080912001877F80932001089592
:10069000CF93DF9390E0FC01E855FE4F2491FC01DD
:1006A000E251FE4F8491882361F190E0880F991FF9
:1006B000FC01E859FD4FC591D491FC01E25BFD4F6F
:1006C000A591B491611109C09FB7F89488812095D4
:1006D00082238883EC912E230BC0623061F49FB794
:1006E000F8943881822F809583238883EC912E2B78
:1006F0002C939FBF06C08FB7F894E8812E2B2883D8
:100700008FBFDF91CF910895CF93DF93282F30E0F3
:10071000F901EE59FE4F8491F901E855FE4FD4914D
:10072000F901E251FE4FC491CC2391F081110E9456
:10073000F602EC2FF0E0EE0FFF1FEC5CFD4FA591F1
:10074000B491EC91ED2381E090E021F480E002C0CF
:1007500080E090E0DF91CF910895CF92DF92EF9209
:10076000FF920F931F93CF93DF936C01EB017B01FB
:10077000E40EF51E00E010E0CE15DF0561F0699192
:10078000D601ED91FC910190F081E02DC601199503
:10079000080F191FF1CFC801DF91CF911F910F9161
:1007A000FF90EF90DF90CF9008956115710579F07B
:1007B000FB0101900020E9F73197AF01461B570B71
:1007C000DC01ED91FC910280F381E02D199480E031
:1007D00090E008950C94D503DC01ED91FC9101901B
:1007E000F081E02D19940F931F93CF93DF93EC01C9
:1007F0006DE00E94EC038C016AE0CE010E94EC03E4
:10080000800F911FDF91CF911F910F910895FC01EF
:1008100024853585F901E05CFF4F80819181329616
:1008200020813181821B930B8F7399270895DC01FE
:100830001C96ED91FC911D97DF01A05CBF4F2D919F
:100840003C91119712968D919C9111972817390719
:1008500039F08D919C91E80FF91F808190E0089507
:100860008FEF9FEF0895FC01A485B585FD01E05C45
:10087000FF4F20813181329680819181281739077D
:1008800079F080819181A80FB91F8C9120813181ED
:100890002F5F3F4F2F7333273183208390E00895DC
:1008A0008FEF9FEF0895FC0181A1882329F0A4898F
:1008B000B5898C9186FFFBCF11A208950F931F93EA
:1008C000CF93DF93FC01A685B7858D01005C1F4F98
:1008D000E8018881998101968F739927AD014E5B5C
:1008E0005F4FEA012881398182179307D1F3E8012C
:1008F00028813981A20FB31F6C93A685B785A05CB0
:10090000BF4F11969C938E93A689B7892C9181E055
:1009100090E0078C02C0880F991F0A94E2F7822B9F
:100920008C9381E081A30488F589E02D8081806427
:10093000808381E090E0DF91CF911F910F91089526
:10094000FB01E05CFF4F208131812F5F3F4F2F7310
:100950003327DB01AE5BBF4F4D915C912417350708
:1009600041F040815181DB01A40FB51F8C9331838D
:10097000208308951F920F920FB60F9211240BB689
:100980000F922F933F934F935F936F937F938F9328
:100990009F93AF93BF93EF93FF938091C00082FD2D
:1009A00007C08091C60069ED74E00E94A00402C0F7
:1009B0008091C600FF91EF91BF91AF919F918F9170
:1009C0007F916F915F914F913F912F910F900BBE4F
:1009D0000F900FBE0F901F9018951F920F920FB699
:1009E0000F9211240BB60F922F933F934F935F9367
:1009F0006F937F938F939F93AF93BF93EF93FF93E7
:100A00008091C80082FD07C08091CE0061E574E04E
:100A10000E94A00402C08091CE00FF91EF91BF918F
:100A2000AF919F918F917F916F915F914F913F9186
:100A30002F910F900BBE0F900FBE0F901F90189527
:100A40001F920F920FB60F9211240BB60F922F9395
:100A50003F934F935F936F937F938F939F93AF9346
:100A6000BF93EF93FF938091D00082FD07C08091E8
:100A7000D60069EC73E00E94A00402C08091D60009
:100A8000FF91EF91BF91AF919F918F917F916F9166
:100A90005F914F913F912F910F900BBE0F900FBE22
:100AA0000F901F9018951F920F920FB60F9211245E
:100AB0000BB60F922F933F934F935F936F937F9358
:100AC0008F939F93AF93BF93EF93FF9380913001E8
:100AD00082FD07C08091360161E473E00E94A004AA
:100AE00002C080913601FF91EF91BF91AF919F912C
:100AF0008F917F916F915F914F913F912F910F90C7
:100B00000BBE0F900FBE0F901F9018951F920F9263
:100B10000FB60F9211240BB60F922F933F938F9322
:100B20009F93EF93FF932091D5043091D604809149
:100B3000D7049091D8042817390731F48091C10067
:100B40008F7D8093C10014C0E091D704F091D80448
:100B5000EB56FB4F20818091D7049091D8040196E9
:100B60008F7399279093D8048093D7042093C6005D
:100B7000FF91EF919F918F913F912F910F900BBE1D
:100B80000F900FBE0F901F9018951F920F920FB6E7
:100B90000F9211240BB60F922F933F938F939F9335
:100BA000EF93FF9320914D0430914E0480914F04B8
:100BB000909150042817390731F48091C9008F7D36
:100BC0008093C90014C0E0914F04F0915004E35F9A
:100BD000FB4F208180914F049091500401968F73B8
:100BE00099279093500480934F042093CE00FF9157
:100BF000EF919F918F913F912F910F900BBE0F908E
:100C00000FBE0F901F9018951F920F920FB60F9264
:100C100011240BB60F922F933F938F939F93EF93D3
:100C2000FF932091C5033091C6038091C703909133
:100C3000C8032817390731F48091D1008F7D809344
:100C4000D10014C0E091C703F091C803EB57FC4FEB
:100C500020818091C7039091C80301968F739927D3
:100C60009093C8038093C7032093D600FF91EF9120
:100C70009F918F913F912F910F900BBE0F900FBEC0
:100C80000F901F9018951F920F920FB60F9211247C
:100C90000BB60F922F933F938F939F93EF93FF93F6
:100CA00020913D0330913E0380913F03909140039A
:100CB0002817390731F4809131018F7D80933101FC
:100CC00014C0E0913F03F0914003E350FD4F2081B9
:100CD00080913F039091400301968F7399279093E1
:100CE000400380933F0320933601FF91EF919F9142
:100CF0008F913F912F910F900BBE0F900FBE0F90D1
:100D00001F901895CF92DF92EF92FF920F931F934F
:100D1000CF93DF93EC016A017B014115514E6105D0
:100D2000710509F1EC89FD8981E090E008A002C01D
:100D3000880F991F0A94E2F7808360E079E08DE3E1
:100D400090E0A70196010E94DF0789019A010150F6
:100D500011092109310936952795179507959801AD
:100D600001151041A8F0EC89FD89108260E874E853
:100D70008EE190E0A70196010E94DF07DA01C90128
:100D80000197A109B109B695A795979587959C01FB
:100D9000E889F9893083EA89FB89208319A2EE89E1
:100DA000FF89408181E090E09C010C8C02C0220F01
:100DB000331F0A94E2F7242B2083EE89FF894081B8
:100DC0009C010D8C02C0220F331F0A94E2F7242BE2
:100DD0002083EE89FF8940819C010E8C02C0220F86
:100DE000331F0A94E2F7242B2083EE89FF892081A8
:100DF0000F8C02C0880F991F0A94E2F78095822316
:100E00008083DF91CF911F910F91FF90EF90DF9042
:100E1000CF900895CF92DF92EF92FF92EBEDF2E048
:100E20001382128288EEC82E83E0D82EE12CF12C9A
:100E3000C482D582E682F7826FE572E071836083B7
:100E400089ED94E09587848785E994E09787868784
:100E500085EC90E0918B808B84EC90E0938B828B7F
:100E600080EC90E0958B848B81EC90E0978B868B67
:100E700082EC90E0918F808F86EC90E0938F828F50
:100E800044E0448F33E0358F27E0268F95E0978F3D
:100E900081E080A3E9EBF2E013821282C482D58262
:100EA000E682F78271836083A1E5B4E0B587A48709
:100EB000ADE0B4E0B787A687ADECB0E0B18BA08B16
:100EC000ACECB0E0B38BA28BA8ECB0E0B58BA48BFC
:100ED000A9ECB0E0B78BA68BAAECB0E0B18FA08FE5
:100EE000AEECB0E0B38FA28F448F358F268F978FF3
:100EF00080A3E7E9F2E013821282C482D582E682FF
:100F0000F78271836083A9ECB3E0B587A487A5E875
:100F1000B3E0B787A687A5EDB0E0B18BA08BA4EDB9
:100F2000B0E0B38BA28BA0EDB0E0B58BA48BA1EDAC
:100F3000B0E0B78BA68BA2EDB0E0B18FA08FA6ED8D
:100F4000B0E0B38FA28F448F358F268F978F80A309
:100F5000E5E7F2E013821282C482D582E682F7824C
:100F60007183608361E473E0758764876DEF72E07D
:100F70007787668765E371E0718B608B64E371E06E
:100F8000738B628B60E371E0758B648B61E371E05E
:100F9000778B668B62E371E0718F608F66E371E03F
:100FA000738F628F448F358F268F978F80A3FF902A
:100FB000EF90DF90CF900895F8940C940908A1E287
:100FC0001A2EAA1BBB1BFD010DC0AA1FBB1FEE1FC3
:100FD000FF1FA217B307E407F50720F0A21BB30B0E
:100FE000E40BF50B661F771F881F991F1A9469F78A
:100FF00060957095809590959B01AC01BD01CF01E6
:101000000895EE0FFF1F881F8BBF0790F691E02D0C
:061010001994F894FFCFD3
:10101600017856616C3A20007956616C3A2000627C
:101026007574746F6E56616C3A20002D2D2D2D2D22
:101036002D2D2D2D2D2D2D2D2D2D2D006C65667410
:10104600200072696768742000646F776E200075EF
:1010560070200063656E7465722000627574746F2B
:101066006E20707265737365642000000000005E78
:0C10760004AD0307043304170453040006
:00000001FF
