:100000000C9481000C94B2000C94B2000C94B200D9
:100010000C94B2000C94B2000C94B2000C94B20098
:100020000C94B2000C94B2000C94B2000C94B20088
:100030000C94B2000C94B2000C94B2000C94B20078
:100040000C94B2000C94B2000C94B2000C94B20068
:100050000C94B2000C94B2000C94B2000C94EA011F
:100060000C94B2000C9480040C944C050C94B200D7
:100070000C94B2000C94B2000C94B2000C94B20038
:100080000C94B2000C94B2000C94B2000C94B20028
:100090000C94B3040C948B050C94B2000C94B20035
:1000A0000C94B2000C94B2000C94B2000C94B20008
:1000B0000C94B2000C94B2000C94B2000C94B200F8
:1000C0000C94B2000C94B2000C94B2000C94E604B0
:1000D0000C94CA050C94B2000C9419050C940906F2
:1000E0000C94B2000C9419040C94DD030C94F903E5
:1000F0000C94CD030C94D0060C9496020C9424041A
:10010000D00611241FBECFEFD1E2DEBFCDBF00E08D
:100110000CBF12E0A0E0B2E0EAE1F0E100E00BBFCA
:1001200002C007900D92AA39B107D9F725E0AAE9D4
:10013000B2E001C01D92AB34B207E1F710E0C1E8B4
:10014000D0E000E006C021970109802FFE010E9447
:100150000308C038D10780E00807A9F70E94AC0166
:100160000C94C9070C9400000E94340240E855E248
:1001700060E070E089E093E00C944806CF92DF9253
:10018000EF92FF92CF93440F440F440F6B017C0119
:1001900004C0F694E794D794C7944A95D2F72C15E7
:1001A00031F1C22F60E072E089E093E00E94F0023A
:1001B00067E172E089E093E00E94D3024AE050E0F8
:1001C0006C2F89E093E00E94B60362E272E089E05E
:1001D00093E00E94D3024AE050E06C2D89E093E066
:1001E000CF91FF90EF90DF90CF900C94B603CF911A
:1001F000FF90EF90DF90CF90089568E272E089E081
:1002000093E00E94F00221E040E061E070E080E0D5
:1002100090E00E94BE0020E041E061E070E080E0FC
:1002200090E00E94BE002FE343E062E37BE58DE3B4
:100230009FE30E94BE002EEF42E06CEF7DEF8EEF59
:100240009FEF0E94BE0020E141E061E070E184E0A8
:100250009FEF0E94BE0020E044E06EEA75EF85E368
:100260009FEF0E94BE0021E043E06FEF7FEF8FEF32
:1002700091E00E94BE002FEF42E06FEF7FEFCB01D5
:100280000E94BE0027ED43E063E574E780EC97ED44
:100290000E94BE0067E372E089E093E00C94F002F4
:1002A000AF92BF92CF92DF92FF920F931F93CF93A3
:1002B000DF936C018B0163E472E089E093E00E94BC
:1002C000D3025601C0E0D0E001501109C017D10798
:1002D000A4F489E093E00E94CD0318161906B4F740
:1002E00089E093E00E94F903F82E682F89E093E0FB
:1002F0000E94D5028DE0F8120DC0CC0DDD1D1882D4
:10030000DF91CF911F910F91FF90DF90CF90BF9021
:10031000AF900895F501F1925F012196D7CFCF9369
:10032000DF93CDB7DEB7A0970FB6F894DEBF0FBE50
:10033000CDBF60E270E0CE0101960E945001CE0177
:1003400001960E94A207A0960FB6F894DEBF0FBEDA
:10035000CDBFDF91CF9108950E94B4000E94FD00AF
:100360000E948F016B017C0189E093E00E94DC0216
:1003700000E010E0C0E0D0E062E872E089E093E0E5
:100380000E94D3024AE050E0BE0189E093E00E945F
:10039000A2036FE172E089E093E00E94D302C701FB
:1003A000B601002E04C096958795779567950A94B7
:1003B000D2F74AE050E089E093E00E94B60389E07A
:1003C00093E00E94DC022196085F1F4FC430D105E4
:1003D00099F6C6CF1F920F920FB60F9211242F934A
:1003E0003F938F939F93AF93BF9380919B02909184
:1003F0009C02A0919D02B0919E0230919A0223E04E
:10040000230F2D3720F40196A11DB11D05C026E84C
:10041000230F0296A11DB11D20939A0280939B0287
:1004200090939C02A0939D02B0939E0280919F02A4
:100430009091A002A091A102B091A2020196A11DEB
:10044000B11D80939F029093A002A093A102B0934C
:10045000A202BF91AF919F918F913F912F910F90E9
:100460000FBE0F901F901895789484B5826084BD5C
:1004700084B5816084BD85B5826085BD85B58160A8
:1004800085BDEEE6F0E0808181608083E1E8F0E008
:100490001082808182608083808181608083E0E837
:1004A000F0E0808181608083E1EBF0E08081846016
:1004B0008083E0EBF0E0808181608083E1E9F0E01F
:1004C000808182608083808181608083E0E9F0E0C8
:1004D000808181608083E1EAF0E0808182608083B6
:1004E000808181608083E0EAF0E0808181608083A8
:1004F000E1E2F1E08081826080838081816080839D
:10050000E0E2F1E0808181608083EAE7F0E08081D1
:100510008460808380818260808380818160808329
:100520008081806880831092C1000895CF92DF920D
:10053000EF92FF920F931F93CF93DF936C01EB0128
:100540007B01E40EF51E00E010E0CE15DF0561F042
:100550006991D601ED91FC910190F081E02DC601E9
:100560001995080F191FF1CFC801DF91CF911F9185
:100570000F91FF90EF90DF90CF9008956115710576
:1005800079F0FB0101900020E9F73197AF01461B9C
:10059000570BDC01ED91FC910280F381E02D199461
:1005A00080E090E008950C94BE02DC01ED91FC9196
:1005B0000190F081E02D19940F931F93CF93DF9357
:1005C000EC016DE00E94D5028C016AE0CE010E9430
:1005D000D502800F911FDF91CF911F910F91089548
:1005E0000F931F93CF93DF93EC010E94BE028C0107
:1005F000CE010E94DC02800F911FDF91CF911F91ED
:100600000F9108958F929F92AF92BF92CF92DF92F7
:10061000EF92FF920F931F93CF93DF93CDB7DEB787
:10062000A1970FB6F894DEBF0FBECDBF6C01142F9B
:10063000E52FCB01022F19A2223008F40AE07E0137
:1006400021E2E20EF11C802E912CA12CB12C612F05
:100650007E2FA50194010E94E107029F1019112429
:1006600081E0E81AF1081A3014F4105D01C0195C39
:10067000F7011083122FE32FCA01232B242B252BE4
:1006800031F7B701C6010E94BE02A1960FB6F894D9
:10069000DEBF0FBECDBFDF91CF911F910F91FF90B5
:1006A000EF90DF90CF90BF90AF909F908F90089584
:1006B000CF92DF92EF92FF920F931F93CF93DF932E
:1006C000EC016A017B012115310579F4E881F9819A
:1006D0000190F081E02D642FDF91CF911F910F9158
:1006E000FF90EF90DF90CF9019942A303105E9F414
:1006F00077FF1AC06DE20E94D5028C01442755276E
:10070000BA014C195D096E097F092AE0CE010E94E9
:100710000203800F911FDF91CF911F910F91FF90E6
:10072000EF90DF90CF9008952AE0B701A601CE01A7
:10073000DF91CF911F910F91FF90EF90DF90CF90BD
:100740000C9402039A01AB01770F660B770B0C94A4
:1007500058032115310541F4DC01ED91FC91019024
:10076000F081E02D642F19940C9402030F931F93D2
:10077000CF93DF93EC019A01462F50E060E070E0E8
:100780000E94A9038C01CE010E94DC02800F911F00
:10079000DF91CF911F910F910895FC01248535853C
:1007A000F901E05CFF4F8081918132962081318197
:1007B000821B930B8F7399270895DC011C96ED9192
:1007C000FC911D97DF01A05CBF4F2D913C911197CB
:1007D00012968D919C9111972817390739F08D91B8
:1007E0009C91E80FF91F808190E008958FEF9FEFB3
:1007F0000895FC01A485B585FD01E05CFF4F2081D3
:1008000031813296808191812817390779F0808172
:100810009181A80FB91F8C91208131812F5F3F4FAB
:100820002F7333273183208390E008958FEF9FEF5C
:100830000895FC0181A1882329F0A489B5898C91B0
:1008400086FFFBCF11A208950F931F93CF93DF93E1
:10085000FC01A685B7858D01005C1F4FE8018881EA
:10086000998101968F739927AD014E5B5F4FEA0125
:100870002881398182179307D1F3E80128813981D2
:10088000A20FB31F6C93A685B785A05CBF4F1196CE
:100890009C938E93A689B7892C9181E090E0078C78
:1008A00002C0880F991F0A94E2F7822B8C9381E093
:1008B00081A30488F589E02D80818064808381E0B4
:1008C00090E0DF91CF911F910F910895FB01E05CC3
:1008D000FF4F208131812F5F3F4F2F733327DB0183
:1008E000AE5BBF4F4D915C912417350741F04081BD
:1008F0005181DB01A40FB51F8C93318320830895B0
:100900001F920F920FB60F9211240BB60F922F93D6
:100910003F934F935F936F937F938F939F93AF9387
:10092000BF93EF93FF938091C00082FD07C0809139
:10093000C60067E075E00E94660402C08091C600B0
:10094000FF91EF91BF91AF919F918F917F916F91A7
:100950005F914F913F912F910F900BBE0F900FBE63
:100960000F901F9018951F920F920FB60F9211249F
:100970000BB60F922F933F934F935F936F937F9399
:100980008F939F93AF93BF93EF93FF938091C80092
:1009900082FD07C08091CE006FE774E00E9466047C
:1009A00002C08091CE00FF91EF91BF91AF919F91D6
:1009B0008F917F916F915F914F913F912F910F9008
:1009C0000BBE0F900FBE0F901F9018951F920F92A5
:1009D0000FB60F9211240BB60F922F933F934F93A4
:1009E0005F936F937F938F939F93AF93BF93EF9397
:1009F000FF938091D00082FD07C08091D60067EF01
:100A000073E00E94660402C08091D600FF91EF91CE
:100A1000BF91AF919F918F917F916F915F914F9116
:100A20003F912F910F900BBE0F900FBE0F901F9014
:100A300018951F920F920FB60F9211240BB60F92BA
:100A40002F933F934F935F936F937F938F939F93D6
:100A5000AF93BF93EF93FF938091300182FD07C066
:100A6000809136016FE673E00E94660402C08091B7
:100A70003601FF91EF91BF91AF919F918F917F913F
:100A80006F915F914F913F912F910F900BBE0F90FF
:100A90000FBE0F901F9018951F920F920FB60F92D6
:100AA00011240BB60F922F933F938F939F93EF9345
:100AB000FF932091030530910405809105059091E5
:100AC00006052817390731F48091C1008F7D809386
:100AD000C10014C0E0910505F0910605ED53FB4FF0
:100AE0002081809105059091060501968F739927C5
:100AF00090930605809305052093C600FF91EF9122
:100B00009F918F913F912F910F900BBE0F900FBE31
:100B10000F901F9018951F920F920FB60F921124ED
:100B20000BB60F922F933F938F939F93EF93FF9367
:100B300020917B0430917C0480917D0490917E040F
:100B40002817390731F48091C9008F7D8093C9003F
:100B500014C0E0917D04F0917E04E55CFB4F2081A0
:100B600080917D0490917E0401968F7399279093D4
:100B70007E0480937D042093CE00FF91EF919F919E
:100B80008F913F912F910F900BBE0F900FBE0F9042
:100B90001F9018951F920F920FB60F9211240BB64B
:100BA0000F922F933F938F939F93EF93FF932091F7
:100BB000F3033091F4038091F5039091F603281725
:100BC000390731F48091D1008F7D8093D10014C01A
:100BD000E091F503F091F603ED54FC4F20818091F4
:100BE000F5039091F60301968F7399279093F6037E
:100BF0008093F5032093D600FF91EF919F918F9101
:100C00003F912F910F900BBE0F900FBE0F901F9032
:100C100018951F920F920FB60F9211240BB60F92D8
:100C20002F933F938F939F93EF93FF9320916B03A9
:100C300030916C0380916D0390916E0328173907F2
:100C400031F4809131018F7D8093310114C0E091A6
:100C50006D03F0916E03E55DFC4F208180916D0383
:100C600090916E0301968F73992790936E038093F2
:100C70006D0320933601FF91EF919F918F913F91EA
:100C80002F910F900BBE0F900FBE0F901F901895D5
:100C9000CF92DF92EF92FF920F931F93CF93DF9348
:100CA000EC016A017B014115514E6105710509F1A5
:100CB000EC89FD8981E090E008A002C0880F991FAF
:100CC0000A94E2F7808360E079E08DE390E0A70189
:100CD00096010E94E10789019A0101501109210939
:100CE00031093695279517950795980101151041FB
:100CF000A8F0EC89FD89108260E874E88EE190E04C
:100D0000A70196010E94E107DA01C9010197A10933
:100D1000B109B695A795979587959C01E889F989BA
:100D20003083EA89FB89208319A2EE89FF894081FB
:100D300081E090E09C010C8C02C0220F331F0A94CA
:100D4000E2F7242B2083EE89FF8940819C010D8CE2
:100D500002C0220F331F0A94E2F7242B2083EE896E
:100D6000FF8940819C010E8C02C0220F331F0A9420
:100D7000E2F7242B2083EE89FF8920810F8C02C0AB
:100D8000880F991F0A94E2F7809582238083DF9170
:100D9000CF911F910F91FF90EF90DF90CF9008952A
:100DA000CF92DF92EF92FF92E9E0F3E0138212829A
:100DB00088EEC82E83E0D82EE12CF12CC482D58297
:100DC000E682F7826DE872E07183608387E095E0E8
:100DD0009587848783EC94E09787868785EC90E0FD
:100DE000918B808B84EC90E0938B828B80EC90E0F5
:100DF000958B848B81EC90E0978B868B82EC90E0D6
:100E0000918F808F86EC90E0938F828F44E0448FA7
:100E100033E0358F27E0268F95E0978F81E080A320
:100E2000E7EEF2E013821282C482D582E682F78274
:100E300071836083AFE7B4E0B587A487ABE3B4E028
:100E4000B787A687ADECB0E0B18BA08BACECB0E07F
:100E5000B38BA28BA8ECB0E0B58BA48BA9ECB0E06F
:100E6000B78BA68BAAECB0E0B18FA08FAEECB0E050
:100E7000B38FA28F448F358F268F978F80A3E5EC99
:100E8000F2E013821282C482D582E682F7827183F5
:100E90006083A7EFB3E0B587A487A3EBB3E0B78780
:100EA000A687A5EDB0E0B18BA08BA4EDB0E0B38B2D
:100EB000A28BA0EDB0E0B58BA48BA1EDB0E0B78B19
:100EC000A68BA2EDB0E0B18FA08FA6EDB0E0B38FFE
:100ED000A28F448F358F268F978F80A3E3EAF2E0AD
:100EE00013821282C482D582E682F7827183608384
:100EF0006FE673E0758764876BE273E077876687D8
:100F000065E371E0718B608B64E371E0738B628BDE
:100F100060E371E0758B648B61E371E0778B668BC6
:100F200062E371E0718F608F66E371E0738F628FAF
:100F3000448F358F268F978F80A3FF90EF90DF909F
:100F4000CF9008951F93FC0199278827BC01E8944E
:100F500011911032E9F3193010F01E30C8F31B3232
:100F600051F01D3249F4689406C00E94CC07610F0D
:100F7000711D811D911D119110531A30B0F33EF473
:100F800090958095709561957F4F8F4F9F4F1F91E2
:100F90000895F8940C940B08592F482F372F262FBB
:100FA000660F771F881F991F660F771F881F991F6D
:100FB000620F731F841F951F660F771F881F991F6D
:100FC0000895A1E21A2EAA1BBB1BFD010DC0AA1F8A
:100FD000BB1FEE1FFF1FA217B307E407F50720F0A2
:100FE000A21BB30BE40BF50B661F771F881F991F1D
:100FF0001A9469F760957095809590959B01AC0166
:10100000BD01CF010895EE0FFF1F881F8BBF079012
:0A101000F691E02D1994F894FFCF3B
:10101A004572726F7220696E206765744F637465DA
:10102A007420746573740045787065637465643AF6
:10103A002000476F743A20005374617274696E67B6
:10104A0020746573747300546573747320646F6ECF
:10105A00652100456E7465722074686520756E732B
:10106A0069676E6564203332206269742072657024
:10107A00726573656E746174696F6E206F66207431
:10108A006865204950763420616464726573733AE6
:10109A0020004F6374657420000000000024049649
:0A10AA0002CD03F903DD0319040071
:00000001FF
