:100000000C94F2030C9423040C9423040C94230406
:100010000C9423040C9423040C9423040C942304C4
:100020000C9423040C9423040C9423040C942304B4
:100030000C9423040C9423040C9423040C942304A4
:100040000C9423040C9423040C9423040C94230494
:100050000C9423040C9423040C9423040C9426067F
:100060000C9423040C94BE080C948A090C94230469
:100070000C9423040C9423040C9423040C94230464
:100080000C9423040C9423040C9423040C94230454
:100090000C94F1080C94C9090C9423040C942304C7
:1000A0000C9423040C9423040C9423040C94230434
:1000B0000C9423040C9423040C9423040C94230424
:1000C0000C9423040C9423040C9423040C9424090E
:1000D0000C94080A0C9423040C9457090C94470AB6
:1000E0000C942304971A9A1A8D1A911AD11A9E1AEF
:1000F000A21AA81AAC1AB01AB61ABA1ABE1AD11A8B
:10010000C41AC81ACC1A0C94A81A0C94E6100C94B1
:1001100068140C94D0140C9445110C9496190C94FA
:10012000BE1A0C9457080C949A1A0C9473140C94DD
:100130004F0F0C94D11A0C940A080C945B0F0C947A
:10014000BA1A0C9429070C94911A0C94660B0C940F
:1001500052100C94C41A0C9401100C9492130C9429
:10016000B61A0C94A21A0C94971A0C94770F0C944C
:1001700037080C9482150C949E1A0C949A140C94C3
:1001800070100C94AC1A0C949E180C94111A0C94C8
:1001900044150C94780F0C940B080C940A150C94CD
:1001A00046110C94670F0C94480F0C94BD0F0C94DF
:1001B00052180C949E0E0C94CC1A0C94470F0C946D
:1001C0001B080C94C81A0C94B01A0C9487140C9445
:1001D00062080C948D1A0C94E70400000000003EA5
:1001E0005B4F5B3E3E6B4F6B3E1C3E7C3E1C183CA7
:1001F0007E3C181C577D571C1C5E7F5E1C00183C03
:100200001800FFE7C3E7FF0018241800FFE7DBE74B
:10021000FF30483A060E2629792926407F05050732
:10022000407F05253F5A3CE73C5A7F3E1C1C08088E
:100230001C1C3E7F14227F22145F5F005F5F060953
:100240007F017F006689956A606060606094A2FFAC
:10025000A29408047E040810207E201008082A1C9E
:1002600008081C2A08081E101010100C1E0C1E0C6A
:1002700030383E3830060E3E0E060000000000000A
:10028000005F00000007000700147F147F14242A79
:100290007F2A12231308646236495620500008074B
:1002A0000300001C2241000041221C002A1C7F1C6C
:1002B0002A08083E0808008070300008080808086E
:1002C000000060600020100804023E5149453E00D5
:1002D000427F400072494949462141494D33181433
:1002E000127F1027454545393C4A49493141211182
:1002F00009073649494936464949291E0000140074
:100300000000403400000008142241141414141496
:10031000004122140802015909063E415D594E7CF4
:100320001211127C7F494949363E414141227F41A9
:1003300041413E7F494949417F090909013E414107
:1003400051737F0808087F00417F41002040413FF2
:10035000017F081422417F404040407F021C027F01
:100360007F0408107F3E4141413E7F090909063E56
:100370004151215E7F091929462649494932030125
:100380007F01033F4040403F1F2040201F3F403837
:10039000403F631408146303047804036159494D12
:1003A00043007F4141410204081020004141417F48
:1003B00004020102044040404040000307080020BE
:1003C000545478407F2844443838444444283844BE
:1003D00044287F385454541800087E090218A4A4F5
:1003E0009C787F0804047800447D40002040403D14
:1003F000007F1028440000417F40007C047804788E
:100400007C080404783844444438FC182424181820
:10041000242418FC7C08040408485454542404047C
:100420003F44243C4040207C1C2040201C3C403069
:10043000403C44281028444C9090907C4464544C98
:1004400044000836410000007700000041360800F3
:1004500002010204023C2623263C1EA1A161123A9D
:100460004040207A385454555921555579412254E9
:10047000547842215554784020545579400C1E52EE
:100480007212395555555939545454593955545493
:10049000580000457C410002457D420001457C40FA
:1004A0007D1211127DF0282528F07C54554500203E
:1004B00054547C547C0A097F4932494949323A44B0
:1004C00044443A324A4848303A4141217A3A42401B
:1004D0002078009DA0A07D3D4242423D3D404040ED
:1004E0003D3C24FF2424487E4943662B2FFC2F2BC0
:1004F000FF0929F620C0887E090320545479410061
:1005000000447D413048484A32384040227A007ADF
:100510000A0A727D0D19317D2629292F28262929BD
:10052000292630484D4020380808080808080808DF
:10053000382F10C8ACBA2F102834FA00007B000006
:1005400008142A142222142A14085500550055AA0A
:1005500055AA55AAFF55FF55FF000000FF001010D7
:1005600010FF00141414FF001010FF00FF1010F013
:1005700010F0141414FC001414F700FF0000FF0026
:10058000FF1414F404FC141417101F10101F101F74
:100590001414141F00101010F0000000001F1010A1
:1005A00010101F10101010F010000000FF1010109D
:1005B000101010101010FF10000000FF140000FFBA
:1005C00000FF00001F10170000FC04F414141710A3
:1005D000171414F404F40000FF00F7141414141496
:1005E0001414F700F7141414171410101F101F140C
:1005F0001414F4141010F010F000001F101F00006D
:10060000001F14000000FC140000F010F01010FF98
:1006100010FF141414FF141010101F00000000F03D
:1006200010FFFFFFFFFFF0F0F0F0F0FFFFFF000012
:10063000000000FFFF0F0F0F0F0F3844443844FC39
:100640004A4A4A347E02020606027E027E02635550
:100650004941633844443C04407E201E2006027E0B
:10066000020299A5E7A5991C2A492A1C4C7201721D
:100670004C304A4D4D303048784830BC625A463D87
:100680003E494949007E0101017E2A2A2A2A2A443C
:10069000445F444440514A444040444A5140000071
:1006A000FF0103E080FF000008086B6B083612367C
:1006B0002436060F090F060000181800000010105D
:1006C000003040FF0101001F01011E00191D17121B
:1006D000003C3C3C3C00000000000000090A02080D
:1006E0000B0C0D07060304010000000000000000D1
:1006F00000000000000000000000000000000000FA
:1007000000000000000011100F00000000000000B9
:1007100000000000000000000000000000000000D9
:100720000102102020080810204010204080020103
:1007300002010804020101020408102040808040E8
:1007400020100804020180040201804020100804E7
:100750000201080402010102040810204080010285
:10076000040810204080050505050705080808084D
:10077000020202020A0A0808040404040101010139
:100780000101010103030303030303030407070734
:100790000C0C0C0C0C0C0C0C0202020206060606D9
:1007A000060606060B0B0B0B0B0B0B0B00002200B7
:1007B000250028002B002E0031003400020100002B
:1007C000050108010B0100002100240027002A0078
:1007D0002D003000330001010000040107010A016F
:1007E000E704660B11241FBECFEFD1E2DEBFCDBF01
:1007F00000E00CBF13E0A0E0B2E0ECECF7E300E0B7
:100800000BBF02C007900D92A43EB107D9F728E0B4
:10081000A4EEB3E001C01D92A03EB207E1F713E0E1
:10082000C2EFD3E000E006C021970109802FFE014E
:100830000E94AA1BC03FD10780E00807A9F70E94C9
:1008400027050C94711B0C940000AF92BF92CF92BD
:10085000DF92EF92FF920F931F93CF93DF93CDB769
:10086000DEB7D2500FB6F894DEBF0FBECDBF8C01FD
:100870005B016C0197FF03C087E0C80ED11C93E0B9
:10088000D594C7949A95E1F70D2C000CEE08FF085B
:1008900099E0D90E9DE3E91EF11C9E012F5F3F4FA9
:1008A000B701A60180EF95E00E948E0E811107C06E
:1008B00060E072E08EE996E00E948307EECFC80107
:1008C00068E070E00E94741BFC0186E0EE0FFF1FE1
:1008D0008A95E1F781E090E08C0F9D1FE80FF91FEA
:1008E00080E4D50101900D928A95E1F7DE5F0FB6A5
:1008F000F894DEBF0FBECDBFDF91CF911F910F9156
:10090000FF90EF90DF90CF90BF90AF900895CF927F
:10091000DF92EF92FF920F931F93CF93DF93EC013F
:100920008B016C0197FF03C087E0C80ED11C93E0D8
:10093000D594C7949A95E1F70D2C000CEE08FF08AA
:1009400089E0D80E8DE3E81EF11C8091EC039091B4
:10095000ED03A091EE03B091EF03C816D906EA06A5
:10096000FB06C9F020EF33E0B701A60180EF95E068
:100970000E948E0E811107C060E072E08EE996E061
:100980000E948307EFCFC092EC03D092ED03E09278
:10099000EE03F092EF03CE0168E070E00E94741B5A
:1009A000FC0186E0EE0FFF1F8A95E1F7E051FC4F56
:1009B00080E4D80101900D928A95E1F7DF91CF9103
:1009C0001F910F91FF90EF90DF90CF9008952FEF40
:1009D00049E06AE08CEF95E00E949B15E0EFF5E0BE
:1009E000158216821186138608950E94C70640E874
:1009F00055E260E070E08EE996E00E94860A40E0F1
:100A000050E0BA018CEF95E00E945C1660E070E067
:100A10008CEF95E00E94521061E272E08EE996E060
:100A20000E94660746E061E080EF95E00E940C0DB1
:100A3000811107C061E572E08EE996E00E948307AC
:100A4000FFCF68E772E08EE996E00C9483078F92FF
:100A50009F92AF92BF92CF92DF92EF92FF920F934D
:100A60001F93CF93DF93CDB7DEB7C058D1090FB630
:100A7000F894DEBF0FBECDBF0E94F5046CE772E0B4
:100A80008EE996E00E9483070E9470066B017C014C
:100A900000E010E0BE016F5B7F4FC8010E9425049B
:100AA0000F5F1F4F0A3284E01807A1F70E947006FB
:100AB000DC01CB018C199D09AE09BF098093E803C5
:100AC0009093E903A093EA03B093EB0363E972E028
:100AD0008EE996E00E9466074091E8035091E90391
:100AE0006091EA037091EB032AE030E08EE996E032
:100AF0000E94F80762EB72E08EE996E00E9483079D
:100B00000E9470066B017C0100E010E0BE016F5F87
:100B10007F4FC8010E9487040F5F1F4F0A3284E095
:100B20001807A1F70E947006DC01CB018C199D0902
:100B3000AE09BF098093E4039093E503A093E60315
:100B4000B093E7036DEC72E08EE996E00E946607D1
:100B50004091E4035091E5036091E6037091E7034F
:100B60002AE030E08EE996E00E94F80760EF72E03C
:100B70008EE996E00E9483070E9470064B015C019B
:100B800004E110E0BE016F5B7F4FC8010E942504A5
:100B900001501109B9F70E9470066B017C01C81859
:100BA000D908EA08FB086FE073E08EE996E00E943E
:100BB00066072AE030E0B701A6018EE996E00E94C0
:100BC000F80766E373E08EE996E00E9483070E94CF
:100BD00070064B015C0104E110E0BE016F5F7F4FC6
:100BE000C8010E94870401501109B9F70E947006DC
:100BF0006B017C01C818D908EA08FB0869E573E0B5
:100C00008EE996E00E9466072AE030E0B701A6016F
:100C10008EE996E00E94F8078EE996E00E940E0B9E
:100C200080E090E0C058DF4F0FB6F894DEBF0FBEF3
:100C3000CDBFDF91CF911F910F91FF90EF90DF908B
:100C4000CF90BF90AF909F908F9008951F920F927A
:100C50000FB60F9211242F933F938F939F93AF93CF
:100C6000BF938091300690913106A0913206B091E9
:100C7000330630912F0623E0230F2D3720F4019601
:100C8000A11DB11D05C026E8230F0296A11DB11DAF
:100C900020932F068093300690933106A09332065E
:100CA000B09333068091340690913506A0913606B4
:100CB000B09137060196A11DB11D80933406909323
:100CC0003506A0933606B0933706BF91AF919F913A
:100CD0008F913F912F910F900FBE0F901F901895FD
:100CE0002FB7F894609130067091310680913206EA
:100CF000909133062FBF08953FB7F8948091340642
:100D000090913506A0913606B091370626B5A89B7E
:100D100005C02F3F19F00196A11DB11D3FBFBA2F8D
:100D2000A92F982F8827820F911DA11DB11DBC01ED
:100D3000CD0142E0660F771F881F991F4A95D1F7B2
:100D40000895CF92DF92EF92FF92CF93DF936B01E2
:100D50007C010E947C06EB01C114D104E104F10482
:100D600079F00E947C066C1B7D0B683E7340A0F3FB
:100D700081E0C81AD108E108F108C851DC4FECCF76
:100D8000DF91CF91FF90EF90DF90CF90089578940E
:100D900084B5826084BD84B5816084BD85B5826080
:100DA00085BD85B5816085BDEEE6F0E0808181601E
:100DB0008083E1E8F0E0108280818260808380811E
:100DC00081608083E0E8F0E0808181608083E1EBF6
:100DD000F0E0808184608083E0EBF0E080818160DE
:100DE0008083E1E9F0E0808182608083808181609E
:100DF0008083E0E9F0E0808181608083E1EAF0E0D7
:100E0000808182608083808181608083E0EAF0E07D
:100E1000808181608083E1E2F1E080818260808373
:100E2000808181608083E0E2F1E080818160808365
:100E3000EAE7F0E080818460808380818260808343
:100E40008081816080838081806880831092C1006E
:100E50000895CF92DF92EF92FF920F931F93CF935B
:100E6000DF936C01EB017B01E40EF51E00E010E066
:100E7000CE15DF0561F06991D601ED91FC910190ED
:100E8000F081E02DC6011995080F191FF1CFC80197
:100E9000DF91CF911F910F91FF90EF90DF90CF9056
:100EA00008956115710579F0FB0101900020E9F7C3
:100EB0003197AF01461B570BDC01ED91FC9102808D
:100EC000F381E02D199480E090E008950C9451078F
:100ED000DC01ED91FC910190F081E02D19940F93CC
:100EE0001F93CF93DF93EC016DE00E9468078C01A4
:100EF0006AE0CE010E946807800F911FDF91CF91B9
:100F00001F910F9108950F931F93CF93DF93EC01DF
:100F10000E9451078C01CE010E946F07800F911F24
:100F2000DF91CF911F910F9108958F929F92AF9271
:100F3000BF92CF92DF92EF92FF920F931F93CF93C6
:100F4000DF93CDB7DEB7A1970FB6F894DEBF0FBE23
:100F5000CDBF6C01142FE52FCB01022F19A2223037
:100F600008F40AE07E0121E2E20EF11C802E912CB1
:100F7000A12CB12C612F7E2FA50194010E94881B0A
:100F8000029F1019112481E0E81AF1081A3014F4B4
:100F9000105D01C0195CF7011083122FE32FCA0105
:100FA000232B242B252B31F7B701C6010E945107B3
:100FB000A1960FB6F894DEBF0FBECDBFDF91CF91E3
:100FC0001F910F91FF90EF90DF90CF90BF90AF9067
:100FD0009F908F9008952115310541F4DC01ED912A
:100FE000FC910190F081E02D642F19940C949507E9
:100FF0000F931F93CF93DF93EC010E94EB078C01BB
:10100000CE010E946F07800F911FDF91CF911F913A
:101010000F9108950895FC0124853585F901E05C60
:10102000FF4F80819181329620813181821B930B09
:101030008F7399270895DC011C96ED91FC911D9703
:10104000DF01A05CBF4F2D913C91119712968D91BD
:101050009C9111972817390739F08D919C91E80FD1
:10106000F91F808190E008958FEF9FEF0895FC01B4
:10107000A485B585FD01E05CFF4F2081318132966A
:10108000808191812817390779F080819181A80F9B
:10109000B91F8C91208131812F5F3F4F2F733327F0
:1010A0003183208390E008958FEF9FEF0895FC0136
:1010B00081A1882329F0A489B5898C9186FFFBCF73
:1010C00011A208950F931F93CF93DF93FC01A68580
:1010D000B7858D01005C1F4FE801888199810196D9
:1010E0008F739927AD014E5B5F4FEA0128813981EB
:1010F00082179307D1F3E80128813981A20FB31F2A
:101100006C93A685B785A05CBF4F11969C938E9378
:10111000A689B7892C9181E090E0078C02C0880FE6
:10112000991F0A94E2F7822B8C9381E081A30488B3
:10113000F589E02D80818064808381E090E0DF91FB
:10114000CF911F910F910895FB01E05CFF4F20812B
:1011500031812F5F3F4F2F733327DB01AE5BBF4FD2
:101160004D915C912417350741F040815181DB019D
:10117000A40FB51F8C933183208308951F920F9283
:101180000FB60F9211240BB60F922F933F934F93EC
:101190005F936F937F938F939F93AF93BF93EF93DF
:1011A000FF938091C00082FD07C08091C6006CE96A
:1011B00078E00E94A40802C08091C600FF91EF91E0
:1011C000BF91AF919F918F917F916F915F914F915F
:1011D0003F912F910F900BBE0F900FBE0F901F905D
:1011E00018951F920F920FB60F9211240BB60F9203
:1011F0002F933F934F935F936F937F938F939F931F
:10120000AF93BF93EF93FF938091C80082FD07C017
:101210008091CE0064E178E00E94A40802C0809131
:10122000CE00FF91EF91BF91AF919F918F917F91F0
:101230006F915F914F913F912F910F900BBE0F9047
:101240000FBE0F901F9018951F920F920FB60F921E
:1012500011240BB60F922F933F934F935F936F938D
:101260007F938F939F93AF93BF93EF93FF9380915F
:10127000D00082FD07C08091D6006CE877E00E9424
:10128000A40802C08091D600FF91EF91BF91AF9169
:101290009F918F917F916F915F914F913F912F918E
:1012A0000F900BBE0F900FBE0F901F9018951F92BE
:1012B0000F920FB60F9211240BB60F922F933F93FC
:1012C0004F935F936F937F938F939F93AF93BF934E
:1012D000EF93FF938091300182FD07C0809136012A
:1012E00064E077E00E94A40802C080913601FF917B
:1012F000EF91BF91AF919F918F917F916F915F918E
:101300004F913F912F910F900BBE0F900FBE0F90FA
:101310001F9018951F920F920FB60F9211240BB6C3
:101320000F922F933F938F939F93EF93FF9320916F
:1013300098083091990880919A0890919B082817F5
:10134000390731F48091C1008F7D8093C10014C0B2
:10135000E0919A08F0919B08E85AF74F208180911C
:101360009A0890919B0801968F73992790939B08F8
:1013700080939A082093C600FF91EF919F918F91DF
:101380003F912F910F900BBE0F900FBE0F901F90AB
:1013900018951F920F920FB60F9211240BB60F9251
:1013A0002F933F938F939F93EF93FF932091100878
:1013B000309111088091120890911308281739076D
:1013C00031F48091C9008F7D8093C90014C0E091F1
:1013D0001208F0911308E053F84F20818091120811
:1013E0009091130801968F73992790931308809317
:1013F00012082093CE00FF91EF919F918F913F9122
:101400002F910F900BBE0F900FBE0F901F9018954D
:101410001F920F920FB60F9211240BB60F922F93BB
:101420003F938F939F93EF93FF9320918807309181
:10143000890780918A0790918B072817390731F423
:101440008091D1008F7D8093D10014C0E0918A07F4
:10145000F0918B07E85BF84F208180918A0790918B
:101460008B0701968F73992790938B0780938A0738
:101470002093D600FF91EF919F918F913F912F91F3
:101480000F900BBE0F900FBE0F901F9018951F92DC
:101490000F920FB60F9211240BB60F922F933F931A
:1014A0008F939F93EF93FF93209100073091010753
:1014B00080910207909103072817390731F4809132
:1014C00031018F7D8093310114C0E0910207F091CA
:1014D0000307E054F94F20818091020790910307A0
:1014E00001968F73992790930307809302072093A7
:1014F0003601FF91EF919F918F913F912F910F9026
:101500000BBE0F900FBE0F901F901895CF92DF92D9
:10151000EF92FF920F931F93CF93DF93EC016A0139
:101520007B014115514E6105710509F1EC89FD8979
:1015300081E090E008A002C0880F991F0A94E2F7AA
:10154000808360E079E08DE390E0A70196010E943E
:10155000881B89019A010150110921093109369529
:10156000279517950795980101151041A8F0EC896A
:10157000FD89108260E874E88EE190E0A701960191
:101580000E94881BDA01C9010197A109B109B6952A
:10159000A795979587959C01E889F9893083EA8911
:1015A000FB89208319A2EE89FF89408181E090E0C8
:1015B0009C010C8C02C0220F331F0A94E2F7242BEB
:1015C0002083EE89FF8940819C010D8C02C0220F8F
:1015D000331F0A94E2F7242B2083EE89FF89408190
:1015E0009C010E8C02C0220F331F0A94E2F7242BB9
:1015F0002083EE89FF8920810F8C02C0880F991FFC
:101600000A94E2F7809582238083DF91CF911F9126
:101610000F91FF90EF90DF90CF900895CF93DF93DD
:10162000FC0186859785EC01C05CDF4FDC01AE5B79
:10163000BF4F288139818D919C91119728173907C7
:10164000C1F7A689B7893C9181E090E0AC01048C98
:1016500002C0440F551F0A94E2F7242F209523233C
:101660002C93A689B7893C91AC01058C02C0440F2C
:10167000551F0A94E2F7242F209523232C93A68943
:10168000B7893C91AC01068C02C0440F551F0A94E7
:10169000E2F7242F209523232C93A689B7892C9138
:1016A000078C02C0880F991F0A94E2F78095822365
:1016B0008C9384859585FC01EE5BFF4F2081318101
:1016C000329731832083DF91CF910895CF92DF92BB
:1016D000EF92FF92EEE9F6E01382128288EEC82EB6
:1016E00083E0D82EE12CF12CC482D582E682F782E9
:1016F00068E873E0718360838CE998E0958784875C
:1017000088E598E09787868785EC90E0918B808BC1
:1017100084EC90E0938B828B80EC90E0958B848BB3
:1017200081EC90E0978B868B82EC90E0918F808F9C
:1017300086EC90E0938F828F44E0448F33E0358FC6
:1017400027E0268F95E0978F81E080A3ECE7F6E015
:1017500013821282C482D582E682F782718360830B
:10176000A4E1B8E0B587A487A0EDB7E0B787A68766
:10177000ADECB0E0B18BA08BACECB0E0B38BA28B46
:10178000A8ECB0E0B58BA48BA9ECB0E0B78BA68B2E
:10179000AAECB0E0B18FA08FAEECB0E0B38FA28F17
:1017A000448F358F268F978F80A3EAE5F6E013826A
:1017B0001282C482D582E682F78271836083ACE8AC
:1017C000B7E0B587A487A8E4B7E0B787A687A5EDFB
:1017D000B0E0B18BA08BA4EDB0E0B38BA28BA0EDF9
:1017E000B0E0B58BA48BA1EDB0E0B78BA68BA2EDDA
:1017F000B0E0B18FA08FA6EDB0E0B38FA28F448F81
:10180000358F268F978F80A3E8E3F6E0138212824C
:10181000C482D582E682F7827183608364E077E0D8
:101820007587648760EC76E07787668765E371E0AB
:10183000718B608B64E371E0738B628B60E371E0AA
:10184000758B648B61E371E0778B668B62E371E08B
:10185000718F608F66E371E0738F628F448F358F75
:10186000268F978F80A3FF90EF90DF90CF90089501
:101870008EBD0DB407FEFDCF08958FEF0E94380C8A
:101880008EB5089561E0FC0184810C940E1B60E02C
:10189000FC0184810C940E1BCF93DF93FC018681A5
:1018A0008823D1F08FEF8EBD4FEF878190859C010B
:1018B0002F5F3F4F308727838130924028F40DB44B
:1018C00007FEFDCF4EBDF1CF0DB407FEFDCFEF01FA
:1018D000CF010E94420C1E82DF91CF9108956730A4
:1018E00028F026E1FC01258380E008958DB560FD98
:1018F00002C0663011F48E7F01C081608DBD8CB551
:101900008C7F8CBD9CB562FD02C080E001C082E08E
:1019100066956170692B862B8CBD81E008950F93CD
:101920001F93CF93DF93EB010E9470068B010E94FF
:101930003D0C8F3F49F00E947006601B710B6C17C5
:101940007D07A8F380E001C081E0DF91CF911F9176
:101950000F910895CF92DF92FF920F931F93CF9331
:10196000DF9300D01F92CDB7DEB76C01F62E29832E
:101970003A834B835C830E944C0CC6010E94470C47
:101980006CE271E0C6010E948F0C8F2D80640E9472
:10199000380C08E110E05C814B813A812981DA0141
:1019A000C901002E04C0B695A795979587950A940E
:1019B000D2F729833A834B835C830E94380C08500A
:1019C000110929813A814B815C81083F8FEF18070B
:1019D00031F7FF2029F0E8E0FE1204C087E803C0D9
:1019E00085E901C08FEF0E94380C10E00E943D0C89
:1019F000F601828787FF04C01F3F11F01F5FF6CFFB
:101A00000F900F900F900F90DF91CF911F910F913A
:101A1000FF90DF90CF9008958F929F92AF92BF92E8
:101A2000EF92FF920F931F93CF93DF93EC01E62E7B
:101A30001B8619861E821D824C830E9470068B01B4
:101A400061E08C810E94D21ACE010E94420C60E0BB
:101A500082E30E94D21A61E083E30E94D21A61E01D
:101A600084E30E94D21A61E085E30E94D21A61E009
:101A700085E30E940E1B83E58CBD8DB58E7F8DBDE9
:101A80002AE0F22E8FEF0E94380CFA94F110FACF70
:101A9000CE010E94470C20E030E0A90160E0CE01B9
:101AA0000E94AA0CF82E8A8781E0F81649F00E945D
:101AB0007006601B710B613D774068F381E04CC09C
:101AC0002AEA31E040E050E068E0CE010E94AA0C32
:101AD00082FF02C0FB860EC094E0F92E0E943D0CEE
:101AE0008A87FA94F110FACF8A3A11F082E034C072
:101AF00082E08B878B85823021F0812C912C5401E0
:101B000005C0812C912CA12C80E4B82E20E030E07F
:101B1000A90167E3CE010E94AA0CA501940169E224
:101B2000CE010E94AA0C8A87882349F00E94700681
:101B3000601B710B613D774048F388E00DC08B85D9
:101B4000823039F520E030E0A9016AE3CE010E943D
:101B5000AA0C882389F086E08D83CE010E94420C76
:101B600080E0DF91CF911F910F91FF90EF90BF9098
:101B7000AF909F908F9008950E943D0C807C803C98
:101B800011F483E08B870E943D0C0E943D0C0E9463
:101B90003D0CCE010E94420C6E2DCE01DF91CF9103
:101BA0001F910F91FF90EF90BF90AF909F908F90FB
:101BB0000C946F0C0F931F93CF93DF93EC010E9453
:101BC00070068B010E943D0C8A878F3F49F40E946A
:101BD0007006601B710B6D327140A0F38FE003C083
:101BE0008E3F39F08DE08D83CE010E94420C80E063
:101BF00001C081E0DF91CF911F910F910895CF92A5
:101C0000DF92EF92FF920F931F93CF93DF93EC013C
:101C10006901C801820F931F8130924008F06FC0A4
:101C20008E81882371F088819981AA81BB814817B0
:101C300059076A077B0729F48F819885C816D9064A
:101C400018F5488359836A837B838B85833039F009
:101C500089E0440F551F661F771F8A95D1F79A01B7
:101C6000AB0161E1CE010E94AA0C882319F083E048
:101C70008D8345C0CE010E94DA0D882309F43FC050
:101C800018861F8281E08E838FEF8EBD2FEF8F81AC
:101C900098858C159D0550F40DB407FEFDCF2EBD23
:101CA0008F819885019698878F83F1CFC80101971E
:101CB000F7014FEF9F012E193F092817390738F414
:101CC0000DB407FEFDCF2EB521934EBDF3CF0DB45D
:101CD00007FEFDCF2EB5F701E80FF91F20838F8196
:101CE0009885080F191F18870F838985882319F095
:101CF0000115124048F0CE010E944C0C05C0CE01E7
:101D00000E94420C80E001C081E0DF91CF911F91E1
:101D10000F91FF90EF90DF90CF900895EF92FF9298
:101D20000F931F93790100E012E020E030E00E9461
:101D3000FF0D1F910F91FF90EF9008952F923F920A
:101D40004F925F926F927F928F929F92AF92BF92CB
:101D5000CF92DF92EF92FF920F931F93CF93DF9377
:101D600000D0CDB7DEB74C017B836A836A0159018D
:101D700017019801241B350B37FF03C031952195BE
:101D80003109C5014A815B81841B950B97FF03C014
:101D900091958195910951E059838217930714F029
:101DA00019820BC09A2D8B2D5801092F182F9A815B
:101DB0008B81DB82CA82C92ED82E8A819B81A8168C
:101DC000B9065CF49C2D8D2D6801092F182F9A817E
:101DD0008B81BB82AA82A92EB82E2501AA81BB8144
:101DE0004A1A5B0A38016C187D0877FE03C07194AB
:101DF00061947108720157FE03C0BFEFEB1AFB0A32
:101E0000F594E794C016D1061CF00FEF1FEF1FC02A
:101E100001E010E01CC0D401ED91FC91B981008477
:101E2000F185E02D9101BB23C1F04A815B81B601B0
:101E3000C4011995E618F708F7FE04C0C00ED11EBC
:101E4000E40CF51CEA81FB813196FB83EA834A812D
:101E50005B81A416B506FCF604C0A6016A817B81ED
:101E6000E7CF0F900F900F90DF91CF911F910F91BF
:101E7000FF90EF90DF90CF90BF90AF909F908F90AA
:101E80007F906F905F904F903F902F9008950895AE
:101E9000DC01ED91FC910480F581E02D19940F9304
:101EA0001F93DC01ED91FC91008CF18DE02D1995D3
:101EB0001F910F9108950F931F93DC01ED91FC91F9
:101EC000028CF38DE02D19951F910F910895EF92DB
:101ED000FF920F931F93DC01ED91FC91048CF58D23
:101EE000E02D19951F910F91FF90EF90089508959F
:101EF000AF92BF92CF92DF92EF92FF920F931F9318
:101F0000CF93DF9300D01F92CDB7DEB75C0169019C
:101F1000DC01ED91FC910680F781E02D4B835C8321
:101F200069837A831995D501ED91FC914B815C8190
:101F3000C40ED51EB1E0CB1AD1080088F189E02D7E
:101F40007801860169817A819B01C5011995D501C6
:101F5000ED91FC910288F389E02DC5010F900F905F
:101F60000F900F90DF91CF911F910F91FF90EF9005
:101F7000DF90CF90BF90AF901994AF92BF92CF9265
:101F8000DF92EF92FF920F931F93CF93DF9300D0D6
:101F90001F92CDB7DEB75C016901DC01ED91FC91C8
:101FA0000680F781E02D4B835C8369837A831995E2
:101FB000D501ED91FC9169817A819B012C0D3D1D2C
:101FC000215031090088F189E02D78014B815C8135
:101FD0008A01C5011995D501ED91FC910288F3891B
:101FE000E02DC5010F900F900F900F90DF91CF91D2
:101FF0001F910F91FF90EF90DF90CF90BF90AF9027
:1020000019944F925F926F927F928F929F92AF92AC
:10201000BF92CF92DF92EF92FF920F931F93CF93D5
:10202000DF931F921F92CDB7DEB76C015A013901C1
:102030004801DC01ED91FC910680F781E02D698378
:102040007A8319956981462E7A81572E640C751C06
:10205000D601ED91FC91461457046CF40484F58587
:10206000E02D87019401A501B201C6011995BFEFCA
:102070004B1A5B0AEDCF0288F389E02DC6010F9061
:102080000F90DF91CF911F910F91FF90EF90DF9014
:10209000CF90BF90AF909F908F907F906F905F9008
:1020A0004F901994EF92FF920F931F93DC01ED91E3
:1020B000FC9111971A960D911C911B9718962D91D2
:1020C0003C911997048CF58DE02D7B0140E050E0A8
:1020D00060E070E019951F910F91FF90EF900895C7
:1020E000CF92DF92EF92FF920F931F93CF93DF93E4
:1020F00000D000D0CDB7DEB76C01DC01ED91FC91D2
:102100006217730789F4041715072CF4942F852F91
:10211000A801092F182F041B150B98012F5F3F4FA3
:10212000008CF18DE02D12C04017510709F52617DC
:1021300037072CF4962F872FB901292F382F261B0C
:10214000370B2F5F3F4F028CF38DE02D8701C601C7
:10215000199526960FB6F894DEBF0FBECDBFDF915E
:10216000CF911F910F91FF90EF90DF90CF90089546
:102170000680F781E02D2D833E834B835C8369834A
:102180007A831995D601ED91FC910088F189E02DB3
:102190002D813E814B815C8169817A81C6011995CF
:1021A000D601ED91FC910288F389E02DC6012696B7
:1021B0000FB6F894DEBF0FBECDBFDF91CF911F9158
:1021C0000F91FF90EF90DF90CF9019946F927F92D4
:1021D0008F929F92AF92BF92CF92DF92EF92FF9237
:1021E0000F931F93CF93DF93EC014B015A016901C9
:1021F0003801E881F9810680F781E02D1995E881A1
:10220000F9810684F785E02D87019601A501B401C7
:10221000CE011995E881F981A501460D571D415060
:1022200051090684F785E02D9601B401CE01199578
:10223000E881F9810484F585E02D9301A501B401BD
:10224000CE011995E881F981C80CD91CB6016150FD
:1022500071090484F585E02D9301A501CE0119953E
:10226000E881F9810288F389E02DCE01DF91CF91D9
:102270001F910F91FF90EF90DF90CF90BF90AF90A4
:102280009F908F907F906F9019940895FC016370D8
:10229000658B8481958126813781613039F0633087
:1022A00029F0918780873387228708953187208797
:1022B000938782870895FC011382128288E993E054
:1022C0009183808375836483578346837187608796
:1022D00053874287158A158614861786168681E0ED
:1022E000848B2FEF3FEF338B228B318B208B868BB0
:1022F000178A118E108E08952F923F924F925F92FF
:102300006F927F928F929F92AF92BF92CF92DF9205
:10231000EF92FF920F931F93CF93DF93CDB7DEB76A
:102320006C970FB6F894DEBF0FBECDBF9C8F8B8F1E
:102330005B011A011F830E833701C982DC015896A5
:102340004D915C9159974115510509F0E5C01896DA
:102350008D919C911997681779070CF0CAC11A964C
:102360008D919C911B97281639060CF0C2C18C2CBC
:10237000912CFB0136E0C39EE00DF11D1124FB877B
:10238000EA871E161F060CF0B4C1C40133E0880FA3
:10239000991F3A95E1F79D878C87820D931D18163A
:1023A00019060CF0A6C157968C91811103C0203BF1
:1023B00008F02F5FAB8DBC8DED91FC9111970680DD
:1023C000F781E02DCD012A8F19952A8DB5E02B9F3D
:1023D00090011124F5013596FF87EE872501BB8218
:1023E000AA82A9014A195B09598B488BC101089639
:1023F0009B8B8A8BE889F989E40DF51DE652FE4F27
:10240000949198873D822C826101A885A0FF13C01A
:10241000AB8DBC8DED91FC91B981B13031F400846C
:10242000F185E02D2E813F8116C00284F385E02DD9
:10243000EE80FF801AC0EE81FF816E167F06F1F0FC
:10244000AB8DBC8DED91FC91B981B13051F400841C
:10245000F185E02D9301A601B2018B8D9C8D19951C
:102460000DC00284F385E02D7301840194014C8139
:102470005D816A817B818B8D9C8D1995E885E695C0
:10248000E8872C813D81280D391D3D832C833FEF4A
:10249000C31AD30A4A895B89C416D50609F0B5CF99
:1024A0008A819B81880D991D9B838A839FEF491A9E
:1024B000590AAE85BF854A165B0609F09BCFEE81AF
:1024C000FF816E167F0609F4F2C0EB8DFC8DA081B2
:1024D000B181F981F13079F4B5016B5F7F4F1C96C2
:1024E000ED91FC911D97830128E030E0A1018B8DD7
:1024F0009C8D1995DCC06A857B85681979091A96C7
:10250000ED91FC911B9773010C851D859401A10130
:102510008B8D9C8D1995CBC0FA013496949132978E
:1025200065917491291BCB01B7E02B9F800D911D04
:102530001124FA01259134913B8B2A8BFC014591A2
:1025400054915B834A83FC013296C4903196549136
:102550005C87329614913196D4908981823058F0FC
:10256000612E012E000C7708AD2D0D2C000CBB0B3D
:10257000B987A88704C019861886612C712CAB8D89
:10258000BC8DED91FC9111970680F781E02DCD0176
:102590001995B9818B2E912C689CC001699C900D76
:1025A000789C900D1124FC01EA0DFB1DF98BE88B42
:1025B0001C82712C612CE12F110FFF0B95012E0F46
:1025C0003F1F3B872A87AC0CB11CA5014E0F5F1F34
:1025D0005F8B4E8BC1018D0D911DD7FC9A95998F04
:1025E000888F4C85641608F062C0862D90E048857F
:1025F0005985480F591F489D9001499D300D589DA0
:10260000300D1124D901A20DB31DBF87AE87AA8456
:10261000BB8448885988DC80BA85DB1AE88DF98D3F
:10262000E80FF91FFD8BEC8B8D2D8A0D2E893F89CC
:10263000A216B306B9F1877061F48A819B81019675
:10264000EA89FB89AA81BB81EA0FFB1F74909B83F7
:102650008A8377FE20C0AB8DBC8DED91FC91B98152
:10266000B13061F40084F185E02D2E813F814C89E9
:102670005D89B5018B8D9C8D19950DC00284F38504
:10268000E02DEE80FF80840194014E855F85B201CC
:102690008B8D9C8D1995770C480C591CEFEFAE1A59
:1026A000BE0AC2CF3C813C0D3C8363949ACFAB8D74
:1026B000BC8DED91FC9111970288F389E02DCD013D
:1026C0006C960FB6F894DEBF0FBECDBFDF91CF91F1
:1026D0001F910F91FF90EF90DF90CF90BF90AF9040
:1026E0009F908F907F906F905F904F903F902F9032
:1026F00019946C960FB6F894DEBF0FBECDBFDF9174
:10270000CF911F910F91FF90EF90DF90CF90BF90EE
:10271000AF909F908F907F906F905F904F903F9081
:102720002F900895AF92BF92CF92EF92FF920F93A6
:102730001F93CF93DF93EC01262F888D998D0097FF
:1027400009F040C06A3059F41D861C862C898E859C
:102750009F8538E0239F800D911D112441C06D306D
:1027600009F4AAC08E898823C1F03C898C859D8597
:1027700046E0349F800D911D1124488559854817E6
:1027800059075CF41D861C868E859F8548E0349F22
:10279000800D911D11249F878E87EA88FB88088908
:1027A00019894E855F856C857D85CC88CE010E9418
:1027B0007C112C898C859D8536E0239F800D911D91
:1027C000112442C06A3079F41D861C862C89FC01D4
:1027D0003696E4918E859F852E9F800D911D112444
:1027E0009F878E8769C06D3009F466C0FC013496FE
:1027F0003491631708F460C03196E491E61708F449
:102800005BC0FC013296A590B490462F50E0431B6C
:10281000510937E0349FB001359F700D1124A60E89
:10282000B71EF501329634913196E491332311F0BD
:10283000E1110DC0F5013496E4912C898C859D85BC
:10284000E29F800D911D11249D878C8735C0F50175
:10285000359644915E89552311F16C89E32FF0E0A0
:10286000E40FF11D47FDFA956E9FD0016F9FB00DEB
:1028700011244C855D854A0F5B1FE885F985E417B7
:10288000F5076CF41D861C86FC013696E4918E8556
:102890009F856E9F800D911D11249F878E87EA88EA
:1028A000FB88088919894E855F856C857D85CC8874
:1028B000CE010E947C11BECF81E090E0DF91CF91EC
:1028C0001F910F91FF90EF90CF90BF90AF90089520
:1028D000DC019C96ED91FC919D979081D1968C9115
:1028E000892B80830895EF92FF920F931F93DC0151
:1028F000ED91FC910284F385E02D7801890121E0BE
:1029000030E019951F910F91FF90EF900895EF928D
:10291000FF920F931F93DC01ED91FC910284F385EC
:10292000E02D780101E010E019951F910F91FF90C3
:10293000EF9008950F931F93CF93DF9300D000D0B3
:10294000CDB7DEB78C01DC01ED91FC910680F781FB
:10295000E02D2D833E834B835C8369837A831995B5
:10296000D801ED91FC910084F185E02D2D813E810F
:102970004B815C8169817A81C8011995D801ED91FB
:10298000FC910288F389E02DC80126960FB6F894D1
:10299000DEBF0FBECDBFDF91CF911F910F91199474
:1029A000EF92FF920F931F93CF93DF9300D000D04D
:1029B000CDB7DEB77C01DC01ED91FC910680F7819B
:1029C000E02D2D833E834B835C8369837A83199545
:1029D000D701ED91FC910484F585E02D2D813E8198
:1029E0004B815C8169817A81C7011995D701ED918D
:1029F000FC910288F389E02DC70126960FB6F89462
:102A0000DEBF0FBECDBFDF91CF911F910F91FF9021
:102A1000EF901994EF92FF920F931F93CF93DF9350
:102A200000D000D0CDB7DEB77C01DC01ED91FC9188
:102A30000680F781E02D2D833E834B835C83698381
:102A40007A831995D701ED91FC910684F785E02DE5
:102A50002D813E814B815C8169817A81C701199505
:102A6000D701ED91FC910288F389E02DC7012696EC
:102A70000FB6F894DEBF0FBECDBFDF91CF911F918F
:102A80000F91FF90EF901994CF92DF92EF92FF9207
:102A90000F931F93CF93DF9300D000D0CDB7DEB755
:102AA0006C01DC01ED91FC910680F781E02D2D8316
:102AB0003E834B835C8369837A831995D601ED91BC
:102AC000FC910284F385E02D2D813E814B815C8158
:102AD00069817A81C6011995D601ED91FC91028830
:102AE000F389E02DC60126960FB6F894DEBF0FBE1F
:102AF000CDBFDF91CF911F910F91FF90EF90DF90AD
:102B0000CF901994CF93DF93EC0189A187FF09C07F
:102B100084E00E94621B81E00E94541B80E00E94BE
:102B20005D1BECA5FDA5908189A9809589238083F3
:102B3000DF91CF910895EF92FF920F931F93CF9360
:102B4000DF931F92CDB7DEB77C01062F142F40E430
:102B500051E060EF70E029830E945B1180EC93E00C
:102B6000D70111969C938E935E960C935E975F9619
:102B70001C935F97298190962C9390978FEF919655
:102B80008C93919792968C93929793968C9393971C
:102B9000F701128E138E148E158E602F000F770B97
:102BA000FB01EA59F84F8491E82FF0E0EE0FFF1F88
:102BB000E455F84F859194919D969C938E939C97A4
:102BC000FB01E05EF84FE491D196EC93D197412F51
:102BD000110F550BFA01EA59F84FE491F0E0EE0FAE
:102BE000FF1FE455F84F85919491F70193A782A7B1
:102BF000FA01E05EF84FE491D296EC93D297999661
:102C00001C921E929897D0961C92D09795961C92E3
:102C10001E9294979E961C929E9797961C921E9237
:102C200096979F961C920F90DF91CF911F910F91D5
:102C3000FF90EF900895FC0181A187FF05C06EBD54
:102C40000DB407FEFDCF089528E030E090E8A4A180
:102C5000B5A186A5492F462319F04C91842B03C0BA
:102C60004C91809584238C93A0A5B1A54C9180A90B
:102C7000809584238C93A0A5B1A54C9180A9842B29
:102C80008C9396952150310911F70895CF93DF93D6
:102C9000EC01EAA5FBA590818AA980958923808310
:102CA000CE010E941B16EAA5FBA590818AA9892B5B
:102CB0008083DF91CF910895CF93DF93EC0141158D
:102CC00051056105710521F440E052E16AE770E0C9
:102CD0004A8F5B8F6C8F7D8F61E08F8D0E94D21A3F
:102CE00060E08F8D0E940E1B61E08E8D0E94D21AD3
:102CF00061E08E8D0E940E1B89A187FD16C061E0E8
:102D00008AA10E94D21A60E08AA10E940E1B61E093
:102D100089A10E94D21A61E089A10E940E1B8BA199
:102D200087FD03C060E00E94D21A89A187FD0E943E
:102D30003E1B88A187FD21C061E00E94D21A61E09C
:102D400088A10E940E1B64E670E080E090E00E9483
:102D5000A10660E088A10E940E1B64E670E080E09E
:102D600090E00E94A10661E088A10E940E1B68EC21
:102D700070E080E090E00E94A106E881F981068081
:102D8000F781E02DCE0119956FEECE010E94461617
:102D900063E0CE010E941B1660E8CE010E941B1664
:102DA00062E0CE010E941B166FECCE010E94461617
:102DB00060E0CE010E941B1661ECCE010E941B1642
:102DC00060E3CE010E941B166DEECE010E944616F6
:102DD00064E6CE010E941B1663E0CE010E941B1622
:102DE00062E1CE010E941B1661E8CE010E941B1613
:102DF00068EECE010E94461665E8CE010E941B16C1
:102E000060E0CE010E941B1668E7CE010E941B16EF
:102E10006BECCE010E94461669E3CE010E941B16A0
:102E20006CE2CE010E941B1660E0CE010E941B16D0
:102E300064E3CE010E941B1662E0CE010E941B16C5
:102E400067EFCE010E94461660E2CE010E941B167B
:102E50006AEECE010E94461660E0CE010E941B166B
:102E600060E0CE010E941B1660ECCE010E94461667
:102E700063E2CE010E941B1661ECCE010E94461651
:102E800060E1CE010E941B1665ECCE010E94461641
:102E90006EE3CE010E941B1668E2CE010E941B1653
:102EA00067ECCE010E94461666E8CE010E941B1612
:102EB00066E3CE010E94461668E4CE010E941B160E
:102EC00067E3CE010E94461689A187FF09C01EBC98
:102ED0000DB407FEFDCF1EBC0DB407FEFDCF08C02C
:102EE00060E0CE010E941B1660E0CE010E941B161E
:102EF0006AE3CE010E94461665E5CE010E941B16CC
:102F000061EBCE010E94461660E0CE010E941B16C6
:102F100068E1CE010E941B1666EBCE010E944616A8
:102F200068E0CE010E941B1662E8CE010E941B16CB
:102F300067E2CE010E941B1662EFCE010E94461688
:102F400060E0CE010E941B1666E2CE010E9446168A
:102F500061E0CE010E941B1660EECE010E94461673
:102F60006FE0CE010E941B1661E3CE010E941B168A
:102F70006BE2CE010E941B166CE0CE010E941B1674
:102F80006EE0CE010E941B1668E0CE010E941B1667
:102F90006EE4CE010E941B1661EFCE010E941B164B
:102FA00067E3CE010E941B1667E0CE010E941B164C
:102FB00060E1CE010E941B1663E0CE010E941B1649
:102FC0006EE0CE010E941B1669E0CE010E941B1626
:102FD00060E0CE010E941B1661EECE010E944616F3
:102FE00060E0CE010E941B166EE0CE010E941B160F
:102FF00064E1CE010E941B1663E0CE010E941B1605
:1030000061E1CE010E941B1667E0CE010E941B16F3
:1030100061E3CE010E941B1661ECCE010E941B16DB
:1030200068E4CE010E941B1668E0CE010E941B16C8
:103030006FE0CE010E941B166CE0CE010E941B16B1
:1030400061E3CE010E941B1666E3CE010E941B16AF
:103050006FE0CE010E941B1661E1CE010E94461670
:1030600068E770E080E090E00E94A10669E2CE018E
:103070000E94461668E770E080E090E00E94A1069A
:10308000E881F9810288F389E02DCE01199580EF5E
:1030900090E09987888780E491E09B878A87DF9119
:1030A000CF9108951F93CF93DF93EC0163706D8BE5
:1030B0006230C1F0633001F1613051F080EF90E097
:1030C0009987888780E491E09B878A8718E41DC0F0
:1030D00080E491E09987888780EF90E09B878A87DA
:1030E00018E213C080EF90E09987888780E491E030
:1030F0009B878A8718E809C080E491E099878887D0
:1031000080EF90E09B878A8718EEE881F98106803E
:10311000F781E02DCE01199566E3CE010E94461697
:10312000612FCE010E941B16E881F9810288F38984
:10313000E02DCE01DF91CF911F9119940F931F9332
:10314000CF93DF931F92CDB7DEB78C01DC01ED91F9
:10315000FC910680F781E02D6983199569816111E1
:1031600002C060E201C061E2C8010E944616D801B7
:10317000ED91FC910288F389E02DC8010F90DF9159
:10318000CF911F910F9119948F929F92AF92BF92FE
:10319000CF92DF92EF92FF920F931F93CF93DF9323
:1031A000EC01490181E0881A9108860E971EC4013E
:1031B000A0E0B0E04B01A12CB12C5401992488244B
:1031C000882A992AAA2ABB2A680181E0C81AD1084C
:1031D000C40ED51EC601A0E0B0E06A01E12CF12CBE
:1031E0007601DD24CC24C82AD92AEA2AFB2A6AE2FD
:1031F000CE010E94461629A16B2D77278827992793
:1032000027FF18C06EBD0DB407FEFDCFC501AA276C
:10321000BB278EBD0DB407FEFDCFBB27AB2D9A2D6E
:10322000892D8EBD0DB407FEFDCF8EBC0DB407FEFB
:10323000FDCF14C0CE010E941B16B5018827992727
:10324000CE010E941B1699278B2D7A2D692DCE0158
:103250000E941B16682DCE010E941B166BE2CE0148
:103260000E94461629A16F2D77278827992727FFC7
:1032700018C06EBD0DB407FEFDCFC701AA27BB273E
:103280008EBD0DB407FEFDCFBB27AF2D9E2D8D2D1E
:103290008EBD0DB407FEFDCFCEBC0DB407FEFDCF35
:1032A00014C0CE010E941B16B70188279927CE01B2
:1032B0000E941B1699278F2D7E2D6D2DCE010E9409
:1032C0001B166C2DCE010E941B166CE2CE01DF9105
:1032D000CF911F910F91FF90EF90DF90CF90BF9013
:1032E000AF909F908F900C9446161F93CF93DF93CF
:1032F000262FFC0131A137FF09C07EBD0DB407FEAA
:10330000FDCF2EBD0DB407FEFDCF0CC0672F122FD1
:10331000EC010E941B16612FCE01DF91CF911F910E
:103320000C941B16DF91CF911F910895EF92FF929D
:103330000F931F93CF93DF9377FD23C0DC01189683
:10334000ED91FC9119976E177F07DCF457FD19C0BA
:103350001A96ED91FC911B974E175F0794F4790133
:10336000EC0101E010E021E030E00E94C418B70158
:10337000CE01DF91CF911F910F91FF90EF900C94B0
:103380007519DF91CF911F910F91FF90EF900895E4
:10339000EF92FF921F93CF93DF9300D01F921F9263
:1033A000CDB7DEB77C01162FFC0181A187FF12C0CB
:1033B000211531054105510549F17EBD0DB407FECA
:1033C000FDCF1EBD0DB407FEFDCF215031094109CF
:1033D0005109EECF2115310541055105B9F0672F8F
:1033E000C70129833A834B835C837D830E941B162C
:1033F000612FC7010E941B1629813A814B815C8194
:1034000021503109410951097D81E4CF0F900F907E
:103410000F900F900F90DF91CF911F91FF90EF9041
:1034200008958F929F92AF92BF92CF92DF92EF92C8
:10343000FF920F931F93CF93DF935C01FB01E90190
:103440004701DC0118962D913C911997621773077B
:103450000CF049C01A968D919C911B9748175907FB
:103460000CF041C06B01CC0EDD1ED60111977A0124
:10347000E00EF11EB70161507109B7FD34C077FD50
:1034800032C0F7FF03C0E601E0E0F0E057FF03C001
:10349000870140E050E0A217B3071CF0E901CE1B02
:1034A000DF0B681779071CF08C01041B150B9E01BC
:1034B000D8010E94B21B6B017C01BF01C5010E94B3
:1034C000C418A7019601B401C501DF91CF911F91E6
:1034D0000F91FF90EF90DF90CF90BF90AF909F90B3
:1034E0008F900C94C819DF91CF911F910F91FF908D
:1034F000EF90DF90CF90BF90AF909F908F90089506
:1035000090E0FC013197E131F10508F04AC08827CD
:10351000EE58FF4F8F4F0C94AA1B809180008F773D
:1035200003C0809180008F7D80938000089584B5D2
:103530008F7702C084B58F7D84BD08958091B000DF
:103540008F7703C08091B0008F7D8093B000089585
:10355000809190008F7707C0809190008F7D03C08D
:1035600080919000877F8093900008958091A000C3
:103570008F7707C08091A0008F7D03C08091A0004D
:10358000877F8093A0000895809120018F7707C0E6
:10359000809120018F7D03C080912001877F8093DF
:1035A00020010895CF93DF9390E0FC01E05EF84F97
:1035B0002491FC01EA59F84F8491882361F190E04D
:1035C000880F991FFC01EA53F84FC591D491FC0173
:1035D000E455F84FA591B491611109C09FB7F894D3
:1035E0008881209582238883EC912E230BC0623042
:1035F00061F49FB7F8943881822F80958323888364
:10360000EC912E2B2C939FBF06C08FB7F894E881C6
:103610002E2B28838FBFDF91CF9108951F93CF93D7
:10362000DF93282F30E0F901E652F94F8491F90138
:10363000E05EF84FD491F901EA59F84FC491CC23D8
:10364000C9F0162F81110E94801AEC2FF0E0EE0FC6
:10365000FF1FE455F84FA591B4918FB7F89411115D
:1036600005C09C91ED2FE095E92302C0EC91ED2B74
:10367000EC938FBFDF91CF911F91089561E085E3B7
:103680000E940E1B61E085E30E94D21A8CB5806116
:103690008CBD8CB580648CBD61E084E30E94D21A3D
:1036A00061E083E30C94D21A811103C08CB580626F
:1036B00002C08CB58F7D8CBD08959CB5937F892BFE
:1036C0008CBD08959CB5282F23709C7F922B9CBDA8
:1036D0002DB582FB992790F9822F8E7F892B8DBD86
:1036E0000895F8940C94E41B97FB072E16F40094AD
:1036F00007D077FD09D00E94D01B07FC05D03EF40F
:10370000909581959F4F0895709561957F4F08958D
:10371000A1E21A2EAA1BBB1BFD010DC0AA1FBB1FD5
:10372000EE1FFF1FA217B307E407F50720F0A21B47
:10373000B30BE40BF50B661F771F881F991F1A94B4
:1037400069F760957095809590959B01AC01BD01DE
:10375000CF010895EE0FFF1F881F8BBF0790F691D2
:10376000E02D19940E94BA1B332312F48A1B9B0B81
:103770000C94CB1BA29FB001B39FC001A39F700DFF
:10378000811D1124911DB29F700D811D1124911D69
:1037900008950E94BA1BB7FF0895821B930B0895EA
:1037A000AA1BBB1B51E107C0AA1FBB1FA617B70767
:1037B00010F0A61BB70B881F991F5A95A9F7809583
:0C37C0009095BC01CD010895F894FFCF56
:1037CC005265616420626C6F636B206661696C6525
:1037DC00642C20747279696E6720616761696E2E42
:1037EC0000496E697469616C697A696E672053501F
:1037FC004920636F6D6D756E69636174696F6E20BE
:10380C00666F72207261772072656164732E2E2E42
:10381C00006661696C6564212049732074686520B9
:10382C006361726420696E73657274656420707272
:10383C006F7065726C793F004F4B2100537461724D
:10384C0074696E6720676574526573746175726113
:10385C006E7400546F74616C2074696D6520666FB2
:10386C00722067657452657374617572616E743A17
:10387C0020005374617274696E67206765745265B9
:10388C007374617572616E744661737400546F74F5
:10389C00616C2074696D6520666F72206765745267
:1038AC00657374617572616E74466173743A20004D
:1038BC005374617274696E672067657452657374B2
:1038CC00617572616E742052657665727365005411
:1038DC006F74616C2074696D6520666F722067650A
:1038EC007452657374617572616E7420526576657D
:1038FC007273653A20005374617274696E67206745
:10390C00657452657374617572616E74466173741B
:10391C00205265766572736500546F74616C207407
:10392C00696D6520666F722067657452657374618A
:10393C007572616E7446617374205265766572732C
:10394C00653A200000000000620829070B083708C0
:10395C001B08570800000000921329070A08470F9C
:10396C00480F670F4F0F5B0F9E0E770F46114511D7
:10397C00780FBD0F011052107010E61000000000FF
:10398C00921329079A1482159619111A7314871415
:10399C009E0E681452189E18D0140A154415521015
:0439AC007010E610A1
:00000001FF
