:100000000C9433010C9454010C9454010C9454013D
:100010000C9454010C9454010C9454010C9454010C
:100020000C9454010C9454010C9454010C945401FC
:100030000C9454010C9454010C9454010C945401EC
:100040000C9454010C9454010C9454010C945401DC
:100050000C9454010C9454010C9454010C94CA0156
:100060000C9454010C9454010C9454010C945401BC
:100070000C9454010C9454010C9454010C945401AC
:100080000C9454010C9454010C9454010C9454019C
:100090000C9454010C9454010C9454010C9454018C
:1000A0000C9454010C9454010C9454010C9454017C
:1000B0000C9454010C9454010C9454010C9454016C
:1000C0000C9454010C9454010C9454010C9454015C
:1000D0000C9454010C9454010C9454010C9454014C
:1000E0000C9454018D02900283028702C70294028D
:1000F00098029E02A202A602AC02B002B402C7029B
:10010000BA02BE02C2020C94AC020C949E020C9481
:10011000B4020C94BE020C94C7020C9490020C948E
:10012000BA020C94C2020C94A6020C9487020C949E
:10013000A2020C9494020C9498020C948D020C94DC
:1001400083020C94B0020000090A02080B0C0D0790
:100150000603040100000000000000000000000091
:10016000000000000000000000000000000000008F
:10017000000011100F00000000000000000000004F
:10018000000000000000000000000000010210203C
:1001900020080810204010204080020102010804BD
:1001A0000201010204081020408080402010080451
:1001B00002018004020180402010080402010804AA
:1001C00002010102040810204080010204081020EE
:1001D0004080050505050705080808080202020217
:1001E0000A0A0808040404040101010101010101D3
:1001F0000303030303030303040707070C0C0C0C9E
:100200000C0C0C0C02020202060606060606060686
:100210000B0B0B0B0B0B0B0B00002000230026001D
:1002200029002C002F00320000010000030106010C
:10023000090100002200250028002B002E003100BB
:10024000340002010000050108010B01000021003B
:10025000240027002A002D00300033000101000097
:10026000040107010A0111241FBECFEFD1E2DEBF56
:10027000CDBF00E00CBF12E0A0E0B2E0EEEEF6E091
:1002800000E00BBF02C007900D92AE30B107D9F766
:1002900022E0AEE0B2E001C01D92A332B207E1F766
:1002A0000E945D030C946A030C940000CF93DF93CB
:1002B0000E94140261E080910C020E94C80261E079
:1002C00080910A020E94C80261E0809108020E94A7
:1002D000C80261E0809106020E94C80261E080913C
:1002E00004020E94C802C2E0D2E060E088810E945D
:1002F000C80261E088810E940403C0E0D2E060E0AF
:1003000088810E94C80261E08881DF91CF910C94BE
:1003100004030E945601C1E0D0E0809102020E94D5
:10032000340390930F0280930E02892BA1F48091E5
:100330001802909119028130910549F41092190226
:1003400010921802909317028093160204C0D09363
:100350001902C09318026091180280910C020E9449
:1003600004036091160280910A020E9404036091C6
:100370001402809108020E9404036091120280918D
:1003800006020E94040360911002809104020E9400
:100390000403C3CF1F920F920FB60F9211242F9315
:1003A0003F938F939F93AF93BF9380911B02909144
:1003B0001C02A0911D02B0911E0230911A0223E08E
:1003C000230F2D3720F40196A11DB11D05C026E88D
:1003D000230F0296A11DB11D20931A0280931B02C8
:1003E00090931C02A0931D02B0931E0280911F02E5
:1003F00090912002A0912102B09122020196A11DAC
:10040000B11D80931F0290932002A0932102B0930C
:100410002202BF91AF919F918F913F912F910F90A9
:100420000FBE0F901F901895789484B5826084BD9C
:1004300084B5816084BD85B5826085BD85B58160E8
:1004400085BDEEE6F0E0808181608083E1E8F0E048
:100450001082808182608083808181608083E0E877
:10046000F0E0808181608083E1EBF0E08081846056
:100470008083E0EBF0E0808181608083E1E9F0E05F
:10048000808182608083808181608083E0E9F0E008
:10049000808181608083E1EAF0E0808182608083F6
:1004A000808181608083E0EAF0E0808181608083E8
:1004B000E1E2F1E0808182608083808181608083DD
:1004C000E0E2F1E0808181608083EAE7F0E0808112
:1004D000846080838081826080838081816080836A
:1004E0008081806880831092C100089590E0FC01B3
:1004F0003197E131F10508F04AC08827EE58FF4FE7
:100500008F4F0C946D03809180008F7703C0809192
:1005100080008F7D80938000089584B58F7702C01E
:1005200084B58F7D84BD08958091B0008F7703C01E
:100530008091B0008F7D8093B000089580919000ED
:100540008F7707C0809190008F7D03C080919000CD
:10055000877F8093900008958091A0008F7707C0D7
:100560008091A0008F7D03C08091A000877F809341
:10057000A0000895809120018F7707C0809120010D
:100580008F7D03C080912001877F80932001089593
:10059000CF93DF9390E0FC01E457FE4F2491FC01E0
:1005A000EE52FE4F8491882361F190E0880F991FED
:1005B000FC01E45BFD4FC591D491FC01EE5CFD4F65
:1005C000A591B491611109C09FB7F89488812095D5
:1005D00082238883EC912E230BC0623061F49FB795
:1005E000F8943881822F809583238883EC912E2B79
:1005F0002C939FBF06C08FB7F894E8812E2B2883D9
:100600008FBFDF91CF9108951F93CF93DF93282F52
:1006100030E0F901EA5BFE4F8491F901E457FE4FA7
:10062000D491F901EE52FE4FC491CC23C9F0162F9C
:1006300081110E947602EC2FF0E0EE0FFF1FEE5CBE
:10064000FD4FA591B4918FB7F894111105C09C91FD
:10065000ED2FE095E92302C0EC91ED2BEC938FBFD9
:10066000DF91CF911F910895CF93DF93282F30E032
:10067000F901EA5BFE4F8491F901E457FE4FD491F2
:10068000F901EE52FE4FC491CC2391F081110E94EA
:100690007602EC2FF0E0EE0FFF1FE85EFD4FA59114
:1006A000B491EC91ED2381E090E021F480E002C070
:1006B00080E090E0DF91CF9108950E9414020E94A3
:1006C0005601C0E0D0E00E9489012097E1F30E942A
:1006D0000000F9CFF8940C947503EE0FFF1F881FEC
:0E06E0008BBF0790F691E02D1994F894FFCF90
:0E06EE00060007000C000B000A0009000800BF
:00000001FF
