:100000000C9481000C94B2000C94B2000C94B200D9
:100010000C94B2000C94B2000C94B2000C94B20098
:100020000C94B2000C94B2000C94B2000C94B20088
:100030000C94B2000C94B2000C94B2000C94B20078
:100040000C94B2000C94B2000C94B2000C94B20068
:100050000C94B2000C94B2000C94B2000C940F01FA
:100060000C94B2000C94DA020C94A6030C94B20027
:100070000C94B2000C94B2000C94B2000C94B20038
:100080000C94B2000C94B2000C94B2000C94B20028
:100090000C940D030C94E5030C94B2000C94B20084
:1000A0000C94B2000C94B2000C94B2000C94B20008
:1000B0000C94B2000C94B2000C94B2000C94B200F8
:1000C0000C94B2000C94B2000C94B2000C94400357
:1000D0000C9424040C94B2000C9473030C946304E9
:1000E0000C94B2000C9427020C9437020C947E02FC
:1000F0000C94BB010C9453020C942A050C947302CB
:100100002A0511241FBECFEFD1E2DEBFCDBF00E034
:100110000CBF12E0A0E0B2E0E6E5FCE000E00BBFBF
:1001200002C007900D92A432B107D9F724E0A4E2EF
:10013000B2E001C01D92A53DB207E1F710E0C1E8B1
:10014000D0E000E006C021970109802FFE010E9447
:100150002106C038D10780E00807A9F70E94EE0009
:100160000C94FC050C9400000E94590140E855E2F3
:1001700060E070E083E992E00C94A204CF92DF92F9
:10018000EF92FF920F931F93CF93DF937C016C014B
:10019000C0E0D0E08B0101501109C017D1076CF409
:1001A00083E992E00E94270218161906B4F783E942
:1001B00092E00E9453028D3061F4CE0DDF1D188253
:1001C000DF91CF911F910F91FF90EF90DF90CF9033
:1001D0000895F60181936F012196DFCFCF93DF93CE
:1001E000CDB7DEB7C058D1090FB6F894DEBF0FBE49
:1001F000CDBF0E94B40060E870E0CE0101960E947D
:10020000BE0060E072E083E992E00E94F801BE0166
:100210006F5F7F4F83E992E00E941502ECCF1F923F
:100220000F920FB60F9211242F933F938F939F93AA
:10023000AF93BF938091250290912602A09127024F
:10024000B09128023091240223E0230F2D3720F4AF
:100250000196A11DB11D05C026E8230F0296A11D20
:10026000B11D209324028093250290932602A0932F
:100270002702B09328028091290290912A02A0912E
:100280002B02B0912C020196A11DB11D8093290271
:1002900090932A02A0932B02B0932C02BF91AF91AE
:1002A0009F918F913F912F910F900FBE0F901F90B4
:1002B0001895789484B5826084BD84B5816084BDCE
:1002C00085B5826085BD85B5816085BDEEE6F0E0CF
:1002D000808181608083E1E8F0E01082808182602B
:1002E0008083808181608083E0E8F0E080818160AC
:1002F0008083E1EBF0E0808184608083E0EBF0E0DC
:10030000808181608083E1E9F0E080818260808388
:10031000808181608083E0E9F0E08081816080837A
:10032000E1EAF0E080818260808380818160808367
:10033000E0EAF0E0808181608083E1E2F1E08081A9
:1003400082608083808181608083E0E2F1E080814F
:1003500081608083EAE7F0E080818460808380812F
:1003600082608083808181608083808180688083D7
:100370001092C1000895CF92DF92EF92FF920F93F7
:100380001F93CF93DF936C01EB017B01E40EF51E0D
:1003900000E010E0CE15DF0561F06991D601ED9126
:1003A000FC910190F081E02DC6011995080F191FED
:1003B000F1CFC801DF91CF911F910F91FF90EF9086
:1003C000DF90CF9008956115710579F0FB010190E0
:1003D0000020E9F73197AF01461B570BDC01ED9187
:1003E000FC910280F381E02D199480E090E0089563
:1003F0000C94E301DC01ED91FC910190F081E02D82
:1004000019940F931F93CF93DF93EC016DE00E943B
:10041000FA018C016AE0CE010E94FA01800F911F5F
:10042000DF91CF911F910F9108950F931F93CF9359
:10043000DF93EC010E94E3018C01CE010E940102D6
:10044000800F911FDF91CF911F910F910895FC01B3
:1004500024853585F901E05CFF4F808191813296DA
:1004600020813181821B930B8F7399270895DC01C2
:100470001C96ED91FC911D97DF01A05CBF4F2D9163
:100480003C91119712968D919C91119728173907DD
:1004900039F08D919C91E80FF91F808190E00895CB
:1004A0008FEF9FEF0895FC01A485B585FD01E05C09
:1004B000FF4F208131813296808191812817390741
:1004C00079F080819181A80FB91F8C9120813181B1
:1004D0002F5F3F4F2F7333273183208390E00895A0
:1004E0008FEF9FEF0895FC0181A1882329F0A48953
:1004F000B5898C9186FFFBCF11A208950F931F93AE
:10050000CF93DF93FC01A685B7858D01005C1F4F5B
:10051000E8018881998101968F739927AD014E5B1F
:100520005F4FEA012881398182179307D1F3E801EF
:1005300028813981A20FB31F6C93A685B785A05C73
:10054000BF4F11969C938E93A689B7892C9181E019
:1005500090E0078C02C0880F991F0A94E2F7822B63
:100560008C9381E081A30488F589E02D80818064EB
:10057000808381E090E0DF91CF911F910F910895EA
:10058000FB01E05CFF4F208131812F5F3F4F2F73D4
:100590003327DB01AE5BBF4F4D915C9124173507CC
:1005A00041F040815181DB01A40FB51F8C93318351
:1005B000208308951F920F920FB60F9211240BB64D
:1005C0000F922F933F934F935F936F937F938F93EC
:1005D0009F93AF93BF93EF93FF938091C00082FDF1
:1005E00007C08091C60061E974E00E94C00202C0A9
:1005F0008091C600FF91EF91BF91AF919F918F9134
:100600007F916F915F914F913F912F910F900BBE12
:100610000F900FBE0F901F9018951F920F920FB65C
:100620000F9211240BB60F922F933F934F935F932A
:100630006F937F938F939F93AF93BF93EF93FF93AA
:100640008091C80082FD07C08091CE0069E074E00F
:100650000E94C00202C08091CE00FF91EF91BF9135
:10066000AF919F918F917F916F915F914F913F914A
:100670002F910F900BBE0F900FBE0F901F901895EB
:100680001F920F920FB60F9211240BB60F922F9359
:100690003F934F935F936F937F938F939F93AF930A
:1006A000BF93EF93FF938091D00082FD07C08091AC
:1006B000D60061E873E00E94C00202C08091D600BB
:1006C000FF91EF91BF91AF919F918F917F916F912A
:1006D0005F914F913F912F910F900BBE0F900FBEE6
:1006E0000F901F9018951F920F920FB60F92112422
:1006F0000BB60F922F933F934F935F936F937F931C
:100700008F939F93AF93BF93EF93FF9380913001AB
:1007100082FD07C08091360169EF72E00E94C0023D
:1007200002C080913601FF91EF91BF91AF919F91EF
:100730008F917F916F915F914F913F912F910F908A
:100740000BBE0F900FBE0F901F9018951F920F9227
:100750000FB60F9211240BB60F922F933F938F93E6
:100760009F93EF93FF9320918D0430918E0480919D
:100770008F04909190042817390731F48091C100BB
:100780008F7D8093C10014C0E0918F04F09190049C
:10079000E35BFB4F208180918F0490919004019640
:1007A0008F7399279093900480938F042093C600B1
:1007B000FF91EF919F918F913F912F910F900BBEE1
:1007C0000F900FBE0F901F9018951F920F920FB6AB
:1007D0000F9211240BB60F922F933F938F939F93F9
:1007E000EF93FF9320910504309106048091070454
:1007F000909108042817390731F48091C9008F7D42
:100800008093C90014C0E0910704F0910804EB53F1
:10081000FC4F2081809107049091080401968F730A
:10082000992790930804809307042093CE00FF91AA
:10083000EF919F918F913F912F910F900BBE0F9051
:100840000FBE0F901F9018951F920F920FB60F9228
:1008500011240BB60F922F933F938F939F93EF9397
:10086000FF9320917D0330917E0380917F039091CF
:1008700080032817390731F48091D1008F7D809350
:10088000D10014C0E0917F03F0918003E35CFC4F42
:10089000208180917F039091800301968F73992727
:1008A0009093800380937F032093D600FF91EF9174
:1008B0009F918F913F912F910F900BBE0F900FBE84
:1008C0000F901F9018951F920F920FB60F92112440
:1008D0000BB60F922F933F938F939F93EF93FF93BA
:1008E0002091F5023091F6028091F7029091F80282
:1008F0002817390731F4809131018F7D80933101C0
:1009000014C0E091F702F091F802EB54FD4F208102
:100910008091F7029091F80201968F739927909336
:10092000F8028093F70220933601FF91EF919F9197
:100930008F913F912F910F900BBE0F900FBE0F9094
:100940001F901895CF92DF92EF92FF920F931F9313
:10095000CF93DF93EC016A017B014115514E610594
:10096000710509F1EC89FD8981E090E008A002C0E1
:10097000880F991F0A94E2F7808360E079E08DE3A5
:1009800090E0A70196010E94FF0589019A0101509C
:100990001109210931093695279517950795980171
:1009A00001151041A8F0EC89FD89108260E874E817
:1009B0008EE190E0A70196010E94FF05DA01C901CE
:1009C0000197A109B109B695A795979587959C01BF
:1009D000E889F9893083EA89FB89208319A2EE89A5
:1009E000FF89408181E090E09C010C8C02C0220FC5
:1009F000331F0A94E2F7242B2083EE89FF8940817C
:100A00009C010D8C02C0220F331F0A94E2F7242BA5
:100A10002083EE89FF8940819C010E8C02C0220F49
:100A2000331F0A94E2F7242B2083EE89FF8920816B
:100A30000F8C02C0880F991F0A94E2F780958223D9
:100A40008083DF91CF911F910F91FF90EF90DF9006
:100A5000CF900895CF92DF92EF92FF92E3E9F2E018
:100A60001382128288EEC82E83E0D82EE12CF12C5E
:100A7000C482D582E682F78267E172E07183608387
:100A800081E994E0958784878DE494E09787868751
:100A900085EC90E0918B808B84EC90E0938B828B43
:100AA00080EC90E0958B848B81EC90E0978B868B2B
:100AB00082EC90E0918F808F86EC90E0938F828F14
:100AC00044E0448F33E0358F27E0268F95E0978F01
:100AD00081E080A3E1E7F2E013821282C482D58232
:100AE000E682F78271836083A9E0B4E0B587A487CA
:100AF000A5ECB3E0B787A687ADECB0E0B18BA08BD7
:100B0000ACECB0E0B38BA28BA8ECB0E0B58BA48BBF
:100B1000A9ECB0E0B78BA68BAAECB0E0B18FA08FA8
:100B2000AEECB0E0B38FA28F448F358F268F978FB6
:100B300080A3EFE4F2E013821282C482D582E682BF
:100B4000F78271836083A1E8B3E0B587A487ADE342
:100B5000B3E0B787A687A5EDB0E0B18BA08BA4ED7D
:100B6000B0E0B38BA28BA0EDB0E0B58BA48BA1ED70
:100B7000B0E0B78BA68BA2EDB0E0B18FA08FA6ED51
:100B8000B0E0B38FA28F448F358F268F978F80A3CD
:100B9000EDE2F2E013821282C482D582E682F7820D
:100BA0007183608369EF72E07587648765EB72E03B
:100BB0007787668765E371E0718B608B64E371E032
:100BC000738B628B60E371E0758B648B61E371E022
:100BD000778B668B62E371E0718F608F66E371E003
:100BE000738F628F448F358F268F978F80A3FF90EE
:100BF000EF90DF90CF900895F8940C942906A1E22D
:100C00001A2EAA1BBB1BFD010DC0AA1FBB1FEE1F86
:100C1000FF1FA217B307E407F50720F0A21BB30BD1
:100C2000E40BF50B661F771F881F991F1A9469F74D
:100C300060957095809590959B01AC01BD01CF01A9
:100C40000895EE0FFF1F881F8BBF0790F691E02DD0
:060C50001994F894FFCF97
:100C56004920676F742074686520737472696E67C3
:100C66003A2000000000007E02BB01270253023733
:040C76000273020003
:00000001FF
