:100000000C9418040C9449040C9449040C9449046D
:100010000C9449040C9449040C9449040C9449042C
:100020000C9449040C9449040C9449040C9449041C
:100030000C9449040C9449040C9449040C9449040C
:100040000C9449040C9449040C9449040C944904FC
:100050000C9449040C9449040C9449040C948D0F9D
:100060000C9449040C9475130C9441140C94490499
:100070000C9449040C9449040C9449040C944904CC
:100080000C9449040C9449040C9449040C944904BC
:100090000C94A8130C9480140C9449040C944904F7
:1000A0000C9449040C9449040C9449040C9449049C
:1000B0000C9449040C9449040C9449040C9449048C
:1000C0000C9449040C9449040C9449040C94DB13DB
:1000D0000C94BF140C9449040C940E140C94FE144C
:1000E0000C944904CC10CF10C210C6100611D310C6
:1000F000D710DD10E110E510EB10EF10F310061132
:10010000F910FD1001110C949D280C9485190C9484
:1001100077290C94A6310C944E290C94E1100C9480
:100120006F2A0C9447290C94E5100C94442B0C94E2
:1001300076290C94FD100C9466290C94CA300C940A
:10014000BC290C945A290C94B6180C949C110C944C
:10015000D5180C9484180C9401110C94E4310C946F
:10016000D2120C949A180C9446290C94D7100C9423
:10017000C6100C94DF180C94C1120C94DC2F0C9454
:10018000F9100C94EF100C9400350C94F3100C94AF
:1001900038080C94CF100C9432310C94D5300C9458
:1001A000CC100C946D180C94C2100C94EB100C94A1
:1001B000C5150C94D3100C946C310C94C2120C9491
:1001C00019130C94E52A0C94EE120C940E130C9453
:1001D000452B0C94A8360C94DD100C94E9300C944B
:1001E000B4340C94FC300C94002A0C94512A0C94D6
:1001F0002D360C94EB200C9406110000090A02081D
:100200000B0C0D07060304010000000000000000B5
:1002100000000000000000000000000000000000DE
:1002200000000000000011100F000000000000009E
:1002300000000000000000000000000000000000BE
:1002400001021020200808102040102040800201E8
:1002500002010804020101020408102040808040CD
:1002600020100804020180040201804020100804CC
:10027000020108040201010204081020408001026A
:100280000408102040800505050507050808080832
:10029000020202020A0A080804040404010101011E
:1002A0000101010103030303030303030407070719
:1002B0000C0C0C0C0C0C0C0C0202020206060606BE
:1002C000060606060B0B0B0B0B0B0B0B000020009E
:1002D0002300260029002C002F003200000100001E
:1002E00003010601090100002200250028002B005F
:1002F0002E003100340002010000050108010B014D
:1003000000002100240027002A002D0030003300C7
:1003100001010000040107010A017C3C3E5E2B3D07
:100320003F2F5B5D3B2C2A225C0000000000003E5A
:100330005B4F5B3E3E6B4F6B3E1C3E7C3E1C183C55
:100340007E3C181C577D571C1C5E7F5E1C00183CB1
:100350001800FFE7C3E7FF0018241800FFE7DBE7FA
:10036000FF30483A060E2629792926407F050507E1
:10037000407F05253F5A3CE73C5A7F3E1C1C08083D
:100380001C1C3E7F14227F22145F5F005F5F060902
:100390007F017F006689956A606060606094A2FF5B
:1003A000A29408047E040810207E201008082A1C4D
:1003B00008081C2A08081E101010100C1E0C1E0C19
:1003C00030383E3830060E3E0E06000000000000B9
:1003D000005F00000007000700147F147F14242A28
:1003E0007F2A1223130864623649562050000807FA
:1003F0000300001C2241000041221C002A1C7F1C1B
:100400002A08083E0808008070300008080808081C
:10041000000060600020100804023E5149453E0083
:10042000427F400072494949462141494D331814E1
:10043000127F1027454545393C4A49493141211130
:1004400009073649494936464949291E0000140022
:100450000000403400000008142241141414141445
:10046000004122140802015909063E415D594E7CA3
:100470001211127C7F494949363E414141227F4158
:1004800041413E7F494949417F090909013E4141B6
:1004900051737F0808087F00417F41002040413FA1
:1004A000017F081422417F404040407F021C027FB0
:1004B0007F0408107F3E4141413E7F090909063E05
:1004C0004151215E7F0919294626494949320301D4
:1004D0007F01033F4040403F1F2040201F3F4038E6
:1004E000403F631408146303047804036159494DC1
:1004F00043007F4141410204081020004141417FF7
:10050000040201020440404040400003070800206C
:10051000545478407F28444438384444442838446C
:1005200044287F385454541800087E090218A4A4A3
:100530009C787F0804047800447D40002040403DC2
:10054000007F1028440000417F40007C047804783C
:100550007C080404783844444438FC1824241818CF
:10056000242418FC7C08040408485454542404042B
:100570003F44243C4040207C1C2040201C3C403018
:10058000403C44281028444C9090907C4464544C47
:1005900044000836410000007700000041360800A2
:1005A00002010204023C2623263C1EA1A161123A4C
:1005B0004040207A38545455592155557941225498
:1005C000547842215554784020545579400C1E529D
:1005D0007212395555555939545454593955545442
:1005E000580000457C410002457D420001457C40A9
:1005F0007D1211127DF0282528F07C5455450020ED
:1006000054547C547C0A097F4932494949323A445E
:1006100044443A324A4848303A4141217A3A4240C9
:100620002078009DA0A07D3D4242423D3D4040409B
:100630003D3C24FF2424487E4943662B2FFC2F2B6E
:10064000FF0929F620C0887E09032054547941000F
:1006500000447D413048484A32384040227A007A8E
:100660000A0A727D0D19317D2629292F282629296C
:10067000292630484D40203808080808080808088E
:10068000382F10C8ACBA2F102834FA00007B0000B5
:1006900008142A142222142A14085500550055AAB9
:1006A00055AA55AAFF55FF55FF000000FF00101086
:1006B00010FF00141414FF001010FF00FF1010F0C2
:1006C00010F0141414FC001414F700FF0000FF00D5
:1006D000FF1414F404FC141417101F10101F101F23
:1006E0001414141F00101010F0000000001F101050
:1006F00010101F10101010F010000000FF1010104C
:10070000101010101010FF10000000FF140000FF68
:1007100000FF00001F10170000FC04F41414171051
:10072000171414F404F40000FF00F7141414141444
:100730001414F700F7141414171410101F101F14BA
:100740001414F4141010F010F000001F101F00001B
:10075000001F14000000FC140000F010F01010FF47
:1007600010FF141414FF141010101F00000000F0EC
:1007700010FFFFFFFFFFF0F0F0F0F0FFFFFF0000C1
:10078000000000FFFF0F0F0F0F0F3844443844FCE8
:100790004A4A4A347E02020606027E027E026355FF
:1007A0004941633844443C04407E201E2006027EBA
:1007B000020299A5E7A5991C2A492A1C4C720172CC
:1007C0004C304A4D4D303048784830BC625A463D36
:1007D0003E494949007E0101017E2A2A2A2A2A44EB
:1007E000445F444440514A444040444A5140000020
:1007F000FF0103E080FF000008086B6B083612362B
:100800002436060F090F060000181800000010100B
:10081000003040FF0101001F01011E00191D1712C9
:10082000003C3C3C3C00000000003808C5156D1839
:1008300011241FBECFEFD1E2DEBFCDBF00E00CBF61
:1008400013E0A0E0B2E0E6E6FBE700E00BBF02C089
:1008500007900D92AC37B107D9F72CE1ACE7B3E0C4
:1008600001C01D92A232B207E1F714E0C8E1D4E062
:1008700000E006C021970109802FFE010E946C3D17
:10088000C531D10780E00807A9F70E94880F0C94B2
:100890004C3A0C9400002F923F924F925F926F92CD
:1008A0007F928F929F92AF92BF92CF92DF92EF9200
:1008B000FF920F931F93CF93DF93CDB7DEB7CA5448
:1008C000D1090FB6F894DEBF0FBECDBF9CAF8BAF82
:1008D0004B0158AF4FAB39011EAF0DAF2196FFAEA4
:1008E000EEAE21972396BFAEAEAE23970DB71EB7DF
:1008F00025961FAF0EAF25978E01045E1F4FC801CE
:100900000E943E19ABADBCAD4D915C9121E06CEC09
:1009100079E1CE0101960E94EB178B819C819F8F1C
:100920008E8F8D819E81AF81B88588A399A3AAA35C
:10093000BBA389859A85AB85BC858CA39DA3AEA3FB
:10094000BFA38DE0FE013D96DE01989601900D92C9
:100950008A95E1F78A8D9B8D9EAB8DABC8010E9475
:10096000C619F82ECE0101960E945119FF20C1F040
:10097000F601EE0FFF1FFAAFE9AF1301412C512C26
:10098000E12CF12CAFA9B8ADCD01A0E0B0E02996E3
:100990008CAF9DAFAEAFBFAF2997702E612E29C02F
:1009A0006BE172E08AE897E10E94D911EBADFCADF2
:1009B000608171818AE897E10E94D91167E28AE833
:1009C00097E10E940812A6C0D401ED91FC91028823
:1009D000F389E02DC40119950FB6F894BEBE0FBE81
:1009E000ADBEBFEFEB1AFB0AEFEF2E1A3E0A4E0A1E
:1009F0005E0A23960EAD1FAD2397E016F10609F4AB
:100A000082C0ADB6BEB60DB71EB729AD3AAD021B5A
:100A1000130B0FB6F8941EBF0FBE0DBF8DB79EB758
:100A2000019698AF8FABEBADFCADA281B381A20173
:100A300091010E94923D29960CAD1DAD2EAD3FADAA
:100A40002997060F171F281F391FB901A801440F46
:100A5000551F661F771F872D962D0E945C1949AD83
:100A60005AAD6FA978AD872D962D0E94521929ADE8
:100A70003AAD8217930781F06CE272E08AE897E161
:100A80000E94F611872D962D0E94B4190FB6F89486
:100A9000BEBE0FBEADBE3EC0D401ED91FC9106803E
:100AA000F781E02DC401199501E010E0960121962F
:100AB0004EAD5FAD21974E0D5F1D6DAD7EADC40196
:100AC0000E9426350FA918AD20E030E02C153D0519
:100AD00009F47ACFF801619171918F017627672728
:100AE0007627C4012A962FAF2A972B963FAF2B97D4
:100AF0000E94D7352A962FAD2A972B963FAD2B977C
:100B00002F5F3F4FE3CFCE014C960E94B419CE0128
:100B10004C9602C0CE014C960E94511925962EADDE
:100B20003FAD25970FB6F8943EBF0FBE2DBFC65BF5
:100B3000DF4F0FB6F894DEBF0FBECDBFDF91CF9170
:100B40001F910F91FF90EF90DF90CF90BF90AF90EB
:100B50009F908F907F906F905F904F903F902F90DD
:100B60000895AF92BF92CF92DF92EF92FF920F93D0
:100B70001F93CF93DF9300D000D0CDB7DEB787E0CF
:100B800097E10E94173729833A834B835C836D83F7
:100B90007E838D819E810A978F3D934008F07AC0B5
:100BA00069817A81072E000C880B990B1F921F9286
:100BB0001F922FEE2F93A12CB12C650118E9E12E85
:100BC00013E0F12E00E010E026E930E040E050E0D4
:100BD0000E9497167093CB036093CA036B817C814C
:100BE000072E000C880B990B1F921F921F921F92C9
:100BF0003FE3A32EBB24B394C12CD12C1CEAE12EDD
:100C000013E0F12E00E010E028E730E040E050E093
:100C10000E9497167093C9036093C803675171408F
:100C20000FB6F894DEBF0FBECDBF6332710590F5ED
:100C30008091CA039091CB03823191055CF1853399
:100C400091051CF485E090E021C08E33910514F1EC
:100C5000813691051CF484E090E018C08A36910535
:100C6000CCF08D3891051CF483E090E00FC08639FC
:100C7000910584F0893B91051CF482E090E006C068
:100C8000825C9109839730F481E090E090930102B7
:100C90008093000226960FB6F894DEBF0FBECDBF3C
:100CA000DF91CF911F910F91FF90EF90DF90CF9048
:100CB000BF90AF900895AF92BF92CF92DF92EF9224
:100CC000FF920F931F931F921F9228E02F931F9262
:100CD000A12CB12C650118E8E12E10E1F12E03E5FD
:100CE0001FEF24E337E842E55FEF0E9497160F906D
:100CF0000F900F900F90CB011F910F91FF90EF90ED
:100D0000DF90CF90BF90AF900895AF92BF92CF92F7
:100D1000DF92EF92FF920F931F931F921F9228E092
:100D20002F931F92A12CB12C650119E1E12E1FE731
:100D3000F12E01E510E022EC30ED41E550E00E949B
:100D400097160F900F900F900F90CB011F910F915E
:100D5000FF90EF90DF90CF90BF90AF900895CF922B
:100D6000DF92EF92FF920F931F93CF93DF93EC01EB
:100D70008B016C0197FF03C087E0C80ED11C93E084
:100D8000D594C7949A95E1F70D2C000CEE08FF0856
:100D900089E0D80E8DE3E81EF11C8091DC03909170
:100DA000DD03A091DE03B091DF03C816D906EA0681
:100DB000FB06C9F020E234E0B701A60188EC96E119
:100DC0000E946223811107C060E472E08AE897E123
:100DD0000E94F611EFCFC092DC03D092DD03E092C7
:100DE000DE03F092DF03CE0168E070E00E94173D61
:100DF000FC0186E0EE0FFF1F8A95E1F7E05EFB4FF6
:100E000080E4D80101900D928A95E1F7DF91CF91AE
:100E10001F910F91FF90EF90DF90CF900895CF92A8
:100E2000DF92EF92FF920F931F93FC0100811181DB
:100E300022813381FB01C080D180E280F380FC01FC
:100E4000C082D182E282F382FB010083118322837C
:100E500033831F910F91FF90EF90DF90CF90089513
:100E6000CF92DF92EF92FF920F931F93CF93DF9376
:100E70006C018B01EB01C150D04CCC0FDD1FCC0FAE
:100E8000DD1FC80FD91FCA01880F991F880F991F2E
:100E9000BE018C0D9D1D0E940F0702501109E12C0F
:100EA000F12CC701880F991F880F991F0E151F0578
:100EB00024F1F601E80FF91F8A819B814281538159
:100EC0008417950720F08FEFE81AF80AEACFB801E7
:100ED000660F771F660F771F6C0D7D1DDB01129665
:100EE0004D915C9113978417950718F401501109DF
:100EF000D8CFCF010E940F07D4CFBE018C0D9D1D0E
:100F00000E940F07C701DF91CF911F910F91FF90B2
:100F1000EF90DF90CF900895EF92FF920F931F9381
:100F2000CF93DF938C0162307105D4F07B0181E0B7
:100F3000E81AF108A70155954795C8010E943007A6
:100F4000EC01BC01C8010E948C07B7016C1B7D0B32
:100F50002196CC0FDD1FCC0FDD1F0C0F1D1FE3CF23
:100F6000DF91CF911F910F91FF90EF900895CF9255
:100F7000DF92EF92FF920F931F93CF93DF936C0159
:100F80007B0163E084ED96E10E94B830E7012B9687
:100F900000E018EF22E130E0AE0168E271E084ED9C
:100FA00096E10E947B2BA70161E271E084ED96E15E
:100FB0000E94B2302091000230910102C216D30685
:100FC00074F00FEF1FEF21E130E0AE0168E271E055
:100FD00084ED96E10E947F2D60E070E00DC000E09E
:100FE00010E021E130E0AE0168E271E084ED96E1CD
:100FF0000E947F2D6FEF7FEF84ED96E1DF91CF911F
:101000001F910F91FF90EF90DF90CF900C94BE3026
:10101000CF93DF93EC0161E084ED96E10E94B8305C
:10102000AE0183E0440F551F8A95E1F760E070E060
:1010300084ED96E10E94B2308091CC039091CD0373
:10104000C817D90729F44FEF5FEF60E070E004C0E4
:1010500040E050E06FEF7FEF84ED96E10E94C430F6
:1010600069EE73E084ED96E1DF91CF910C94F61177
:10107000EF92FF920F938CE2E82EFF24F39405E0A9
:1010800029E348E364E087E097E10E9471382FEF9D
:1010900049E06AE084ED96E10E94FD31E8ECF6E17A
:1010A00015821682118613860F91FF90EF90089596
:1010B000CF92DF92EF92FF920F931F93CF93DF9324
:1010C0001092CD031092CC0381E090E09093CF0377
:1010D0008093CE0310927F0310927E03C0E2D6E08D
:1010E0008E01E12CF12C60EE73E0C7010E94AF0687
:1010F000F801F182E0826091E4037091E503809150
:10110000E6039091E7030E945B066C016091E003A7
:101110007091E1038091E2039091E3030E948506C0
:101120002091DA033091DB03B9016C197D0977FF57
:1011300003C07195619571094091D8035091D9030D
:101140009A01281B390B37FF03C0319521953109CE
:10115000260F371FF80133832283FFEFEF1AFF0AB0
:101160000C5F1F4F8AE2E81684E0F80609F0BBCF57
:101170006AE274E080E296E00E948C0760E070E032
:1011800084ED96E10E94512A1092C1031092C0038F
:1011900000E010E060EE73E0888199810E94AF0664
:1011A0006091E80370E06F5F7F4F75956795072E3C
:1011B000000C880B990B0E948D3B0E94C83B6B0171
:1011C0007C0120E030E040E85FE30E94953C181687
:1011D0002CF4C701B6010E94553B02C061E070E0EB
:1011E0007093C3036093C203809100029091010247
:1011F00068177907B4F08091C0039091C1030E94F1
:1012000008088091C0039091C103FC01EE0FFF1FFD
:10121000EC57FC4F1183008301969093C103809398
:10122000C0030F5F1F4F24968091C0039091C103AC
:101230004E970CF4AFCFDF91CF911F910F91FF909C
:10124000EF90DF90CF900895EF92FF920F931F934E
:101250006091D2037091D303643071053CF06C301F
:1012600021E072072CF06BE071E002C064E070E0F6
:101270007093D3036093D2034091D0035091D10374
:101280004430510534F04D3E51052CF04CEE50E009
:1012900002C044E050E05093D1034093D003445047
:1012A0005109645071097C0109E010E029E030E047
:1012B00084ED96E10E94A6311F910F91FF90EF906F
:1012C0000895AF92BF92CF92DF92EF92FF920F9369
:1012D0001F930E942E1040E855E260E070E08AE81B
:1012E00097E10E943D1562E082E00E94071140E014
:1012F00050E0BA0184ED96E10E94BE3261E672E0F0
:101300008AE897E10E94D91146E061E088EC96E115
:101310000E94D021811107C061E972E08AE897E15B
:101320000E94F611FFCF68EB72E08AE897E10E9415
:10133000F6116CEB72E08AE897E10E94D91166E041
:101340008CEC99E10E94D816811107C064ED72E01F
:101350008AE897E10E94F611FFCF68EB72E08AE815
:1013600097E10E94F61163E084ED96E10E94B434A7
:1013700060E070E084ED96E10E94512A209106021F
:1013800030910702409108025091090280EFA82E87
:10139000B12C90E1C92EDD24D394E12CF12C00E096
:1013A00010E064ED76E18AE092E00E944B0428E8C8
:1013B00030E03093D7032093D60388E790E09093F2
:1013C000D5038093D4033093D3032093D203909317
:1013D000D1038093D00380E098EF1F910F91FF908D
:1013E000EF90DF90CF90BF90AF900C942409AF9214
:1013F000BF92CF92DF92EF92FF920F931F93CF9302
:10140000DF930E94B105209100023091010280918A
:10141000C4039091C5032817390701F108E110E0D2
:10142000C5E0D0E01093C7030093C603B801CE0116
:101430000E94B7074AE050E0BE0184ED96E10E94A9
:10144000BA122197045D1F4F209761F78091000227
:10145000909101029093C5038093C40386E30E9498
:1014600090108C0187E30E9490107C0182E00E9422
:101470007311EC014091D6035091D70344305105CC
:101480003CF04C3021E052072CF04BE051E002C020
:1014900044E050E05093D7034093D6032091D40307
:1014A0003091D5032430310534F02D3E31052CF038
:1014B0002CEE30E002C024E030E03093D5032093DE
:1014C000D40380EBE816F10434F48091D0039091BA
:1014D000D103079736C081E5E81683E0F80634F0BB
:1014E0008091D0039091D10307962BC080E1E8163C
:1014F00081E0F80634F48091D0039091D1030397F2
:1015000020C081EFE81682E0F80634F08091D00325
:101510009091D103039615C080EDE81681E0F8069E
:1015200034F48091D0039091D10301970AC081E3F4
:10153000E81682E0F8064CF08091D0039091D10338
:1015400001969093D1038093D0036091D203709160
:10155000D303003B11051CF4695F7F4F21C00135A7
:1015600083E018071CF0675071091AC0003181E050
:1015700018071CF46D5F7F4F13C0013F82E018070E
:101580001CF0635071090CC0013382E018071CF095
:101590006150710905C0003D114034F46F5F7F4F09
:1015A0007093D3036093D2038091D2039091D303BD
:1015B0004817590739F48091D0039091D103281727
:1015C000390799F1790184E0E81AF1088A01045099
:1015D00011098091060290910702280F391F2450AB
:1015E00031098091080290910902480F591F445017
:1015F000510989E0A82EB12C99E0C92ED12C64EDB7
:1016000076E18AE092E00E944B048091D2039091AF
:10161000D3039093D7038093D6038091D003909106
:10162000D1039093D5038093D40380E098EF0E9478
:1016300024098091D2039091D303049709F044C008
:10164000409108025091090214161506ECF5405419
:101650005140413C26E0520714F040EC56E057FF61
:1016600002C040E050E050930902409308022091EC
:10167000060230910702A0EFAA2EB12CB0E1CB2ECA
:10168000DD24D394E12CF12C00E010E064ED76E150
:101690008AE092E00E944B0488E890E09093D303A4
:1016A0008093D2039093D7038093D60388E790E08A
:1016B0009093D1038093D0039093D5038093D40368
:1016C00080E098EF0E9424098091D2039091D30387
:1016D0008B30914009F045C04091080250910902B9
:1016E000403C86E05807ECF5405F5E4F413F26E006
:1016F000520714F040EF56E057FF02C040E050E0C0
:10170000509309024093080220910602309107028B
:10171000E0EFAE2EB12CF0E1CF2EDD24D394E12CFE
:10172000F12C00E010E064ED76E18AE092E00E94A6
:101730004B0488E890E09093D3038093D203909376
:10174000D7038093D60388E790E09093D1038093EA
:10175000D0039093D5038093D40380E098EF0E9448
:1017600024098091D0039091D103049709F044C0DB
:10177000209106023091070212161306ECF5205F45
:101780003109213187E0380714F020E137E037FFD5
:1017900002C020E030E0309307022093060240911F
:1017A00008025091090260EFA62EB12C70E1C72EFD
:1017B000DD24D394E12CF12C00E010E064ED76E11F
:1017C0008AE092E00E944B0488E790E09093D10376
:1017D0008093D0039093D5038093D40388E890E05E
:1017E0009093D3038093D2039093D7038093D6032F
:1017F00080E098EF0E9424098091D0039091D1035A
:101800008C3E910509F045C02091060230910702F7
:10181000203187E03807ECF520513F4F213187E038
:10182000380714F020E137E037FF02C020E030E055
:10183000309307022093060240910802509109025A
:1018400080EFA82EB12C90E1C92EDD24D394E12C99
:10185000F12C00E010E064ED76E18AE092E00E9475
:101860004B0488E790E09093D1038093D00390934A
:10187000D5038093D40388E890E09093D3038093BA
:10188000D2039093D7038093D60380E098EF0E9411
:1018900024098091040290910502C817D90709F123
:1018A000C130D105F1F420910802309109028091F4
:1018B000D2039091D303820F931F9093DB03809305
:1018C000DA0320910602309107028091D0039091B3
:1018D000D103820F931F9093D9038093D8030E9462
:1018E0005808D0930502C093040264E170E080E0E0
:1018F00090E0DF91CF911F910F91FF90EF90DF90DB
:10190000CF90BF90AF900C9408108F929F92AF929F
:10191000BF92CF92DF92EF92FF920F931F93CF93DC
:10192000DF9360E070E084ED96E10E94512A10920E
:10193000CF031092CE03E0918003F0918103EE0F6C
:10194000FF1FEE0FFF1FE05EF94F60EE73E0808136
:1019500091810E94AF066091E4037091E50380914C
:10196000E6039091E7030E945B064C016091E0035F
:101970007091E1038091E2039091E3030E94850658
:10198000EC01A40148585109413F86E0580714F082
:1019900040EF56E057FF02C040E050E0509309028C
:1019A000409308029E0128573109213187E038070A
:1019B00014F020E137E037FF02C020E030E0309340
:1019C00007022093060280EFA82EB12C90E1C92EC9
:1019D000DD24D394E12CF12C00E010E064ED76E1FD
:1019E0008AE092E00E944B0497FE03C084E090E0FE
:1019F0000CC0C401019787389105C0F081ED8816AD
:101A000087E098063CF08CE091E09093D3038093BC
:101A1000D2031BC080910802909109029C012857B3
:101A20003F4F281539053CF4881A990A9092D30340
:101A30008092D2030AC088E890E09093D303809309
:101A4000D2039093D7038093D603D7FF0BC084E0D3
:101A500090E09093D1038093D00308E110E0C5E0BB
:101A6000D0E02CC0CE01019787379105B8F0C13086
:101A700088E0D8071CF08CEE90E0EBCFC11588E031
:101A8000D80789F080910602909107029C0128589E
:101A90003F4F2C173D073CF4C81BD90BD093D10303
:101AA000C093D003DACF88E790E09093D10380937E
:101AB000D0039093D5038093D403CFCF1093C70363
:101AC0000093C603B801CE010E94B7074AE050E078
:101AD000BE0184ED96E10E94BA122197045D1F4F6A
:101AE000209761F780E098EFDF91CF911F910F91E0
:101AF000FF90EF90DF90CF90BF90AF909F908F902E
:101B00000C9424098F929F92AF92BF92CF92DF9252
:101B1000EF92FF920F931F93CF93DF9387E30E947F
:101B200090108C0182E00E947311EC01003721E0DB
:101B300012070CF0CAC08091CC039091CD039C0198
:101B4000215031093093CD032093CC03880F991F86
:101B5000FC01EC57FC4F808191819093830380932B
:101B60008203F901EE0FFF1FEC57FC4F40815181BA
:101B700050938103409380032F3F3F4F09F092C061
:101B800080917E0390917F03892B09F486C060E0E9
:101B900070E084ED96E10E94512AE091CC03F0912F
:101BA000CD03EE0FFF1FEA57FC4F00811181680142
:101BB00061E0C61AD1088DE190E09093C103809353
:101BC000C0039093CD038093CC0380917E039091CA
:101BD0007F03019790937F0380937E03000F111F73
:101BE000000F111FE12CF12CF701E00FF11FE45E53
:101BF000F94F60EE73E0808191810E94AF066091A1
:101C0000E80370E06F5F7F4F75956795072E000CB6
:101C1000880B990B0E948D3B0E94C83B4B015C01D5
:101C200020E030E040E85FE30E94953C18162CF479
:101C3000C501B4010E94553B02C061E070E07093A1
:101C4000C3036093C2038091000290910102681760
:101C50007907B4F08091C0039091C1030E940808F5
:101C60008091C0039091C103FC01EE0FFF1FEC5760
:101C7000FC4FD182C08201979093C1038093C0032F
:101C800081E0C81AD10824E0E21AF1088091C0036B
:101C90009091C10397FFA8CF0FC11092CD0310926E
:101CA000CC030AC1880F991F880F991FFC01E05EC1
:101CB000F94F60EE73E0808191810E94AF068091C0
:101CC000CC039091CD030196DFC0013912400CF492
:101CD000F3C04091CC035091CD039A012F5F3F4F49
:101CE0003093CD032093CC03FA01EE0FFF1FEC5786
:101CF000FC4F808191819093830380938203F9014B
:101D0000EE0FFF1FEC57FC4F6081718170938103D0
:101D1000609380032E31310509F091C060E070E0DE
:101D200084ED96E10E94512AE091CC03F091CD031D
:101D3000EE0FFF1FEE57FC4F80819181019690932B
:101D40007D0380937C031092C1031092C003109214
:101D5000CD031092CC0380917E0390917F03019676
:101D600090937F0380937E03E0917C03F0917D0349
:101D7000EE0FFF1FEE0FFF1FE05EF94F60EE73E006
:101D8000808191810E94AF066091E80370E06F5FEF
:101D90007F4F75956795072E000C880B990B0E9455
:101DA0008D3B0E94C83B6B017C0120E030E040E8A5
:101DB0005FE30E94953C18162CF4C701B6010E94FF
:101DC000553B02C061E070E07093C3036093C203AF
:101DD000809100029091010268177907D4F08091F8
:101DE000C0039091C1030E9408088091C0039091A4
:101DF000C103FC01EE0FFF1FEC57FC4F20917C0349
:101E000030917D033183208301969093C1038093A9
:101E1000C00380917C0390917D03019690937D0394
:101E200080937C032091C0033091C1032E31310592
:101E30000CF042C08A32944009F096CF3DC06091C8
:101E4000C0037091C1032617370761F420917C030A
:101E500030917D032A32344029F45093CD034093CE
:101E6000CC032AC0880F991F880F991FFC01E05EE0
:101E7000F94F60EE73E0808191810E94AF068091FE
:101E8000CC039091CD0301970E940808E091800354
:101E9000F0918103EE0FFF1FEE0FFF1FE05EF94F81
:101EA00060EE73E0808191810E94AF068091CC0347
:101EB0009091CD030E940808809102029091030244
:101EC000C817D90729F0C130D10511F40E94850C3B
:101ED000D0930302C093020264E170E080E090E0DE
:101EE000DF91CF911F910F91FF90EF90DF90CF90F6
:101EF000BF90AF909F908F900C9408108091CE036C
:101F00009091CF03892B11F40C94F7090C94820D56
:101F10000E9461090E947E0FFDCF1F920F920FB6A3
:101F20000F9211242F933F938F939F93AF93BF935F
:101F300080911C1790911D17A0911E17B0911F172B
:101F400030911B1723E0230F2D3720F40196A11D9C
:101F5000B11D05C026E8230F0296A11DB11D2093D7
:101F60001B1780931C1790931D17A0931E17B093F7
:101F70001F178091201790912117A0912217B091DF
:101F800023170196A11DB11D80932017909321174F
:101F9000A0932217B0932317BF91AF919F918F9178
:101FA0003F912F910F900FBE0F901F9018952FB754
:101FB000F89460911C1770911D1780911E179091D5
:101FC0001F172FBF08953FB7F89480912017909165
:101FD0002117A0912217B091231726B5A89B05C001
:101FE0002F3F19F00196A11DB11D3FBFBA2FA92F98
:101FF000982F8827820F911DA11DB11DBC01CD0115
:1020000042E0660F771F881F991F4A95D1F7089500
:10201000CF92DF92EF92FF92CF93DF936B017C011F
:102020000E94E30FEB01C114D104E104F10479F043
:102030000E94E30F6C1B7D0B683E7340A0F381E0B0
:10204000C81AD108E108F108C851DC4FECCFDF9184
:10205000CF91FF90EF90DF90CF900895789484B562
:10206000826084BD84B5816084BD85B5826085BD94
:1020700085B5816085BDEEE6F0E08081816080837A
:10208000E1E8F0E01082808182608083808181605D
:102090008083E0E8F0E0808181608083E1EBF0E024
:1020A000808184608083E0EBF0E0808181608083C8
:1020B000E1E9F0E0808182608083808181608083BB
:1020C000E0E9F0E0808181608083E1EAF0E08081F6
:1020D00082608083808181608083E0EAF0E080819B
:1020E00081608083E1E2F1E0808182608083808191
:1020F00081608083E0E2F1E0808181608083EAE7B3
:10210000F0E0808184608083808182608083808130
:10211000816080838081806880831092C1000895EF
:10212000863308F0865390917B00282F2870977F84
:10213000922B90937B0087702091100290E4299F4E
:1021400090011124822B80937C0080917A0080641E
:1021500080937A0080917A0086FDFCCF8091780090
:102160002091790090E0922B089590E0FC01319746
:10217000E131F10508F04AC08827EE58FF4F8F4F34
:102180000C946C3D809180008F7703C0809180001B
:102190008F7D80938000089584B58F7702C084B5C9
:1021A0008F7D84BD08958091B0008F7703C08091AA
:1021B000B0008F7D8093B0000895809190008F775C
:1021C00007C0809190008F7D03C080919000877F31
:1021D0008093900008958091A0008F7707C0809130
:1021E000A0008F7D03C08091A000877F8093A00016
:1021F0000895809120018F7707C0809120018F7D05
:1022000003C080912001877F809320010895CF93A0
:10221000DF9390E0FC01E05CFD4F2491FC01EA5764
:10222000FD4F8491882361F190E0880F991FFC0194
:10223000E050FD4FC591D491FC01EA51FD4FA591AD
:10224000B491611109C09FB7F894888120958223C9
:102250008883EC912E230BC0623061F49FB7F89411
:102260003881822F809583238883EC912E2B2C93A9
:102270009FBF06C08FB7F894E8812E2B28838FBFAD
:10228000DF91CF9108951F93CF93DF93282F30E0F4
:10229000F901E650FE4F8491F901E05CFD4FD491C5
:1022A000F901EA57FD4FC491CC23C9F0162F8111D3
:1022B0000E94B510EC2FF0E0EE0FFF1FEA51FD4F2A
:1022C000A591B4918FB7F894111105C09C91ED2F91
:1022D000E095E92302C0EC91ED2BEC938FBFDF91E9
:1022E000CF911F910895CF93DF93282F30E0F9010C
:1022F000E650FE4F8491F901E05CFD4FD491F90165
:10230000EA57FD4FC491CC2391F081110E94B51082
:10231000EC2FF0E0EE0FFF1FE453FD4FA591B491B9
:10232000EC91ED2381E090E021F480E002C080E0B8
:1023300090E0DF91CF910895CF92DF92EF92FF92DC
:102340000F931F93CF93DF936C01EB017B01E40E9E
:10235000F51E00E010E0CE15DF0561F06991D601B1
:10236000ED91FC910190F081E02DC6011995080FC7
:10237000191FF1CFC801DF91CF911F910F91FF90ED
:10238000EF90DF90CF9008956115710579F0FB0112
:1023900001900020E9F73197AF01461B570BDC0194
:1023A000ED91FC910280F381E02D199480E090E0A2
:1023B00008950C94C411DC01ED91FC910190F08121
:1023C000E02D19940F931F93CF93DF93EC016DE0F1
:1023D0000E94DB118C016AE0CE010E94DB11800FAC
:1023E000911FDF91CF911F910F9108950F931F932C
:1023F000CF93DF93EC010E94C4118C01CE010E94A7
:10240000E211800F911FDF91CF911F910F910895DD
:102410000F931F93CF93DF93EC010E94DB118C018C
:10242000CE010E94E211800F911FDF91CF911F9189
:102430000F9108958F929F92AF92BF92CF92DF92A9
:10244000EF92FF920F931F93CF93DF93CDB7DEB739
:10245000A1970FB6F894DEBF0FBECDBF6C01142F4D
:10246000E52FCB01022F19A2223008F40AE07E01E9
:1024700021E2E20EF11C802E912CA12CB12C612FB7
:102480007E2FA50194010E942B3D029F101911245B
:1024900081E0E81AF1081A3014F4105D01C0195CEB
:1024A000F7011083122FE32FCA01232B242B252B96
:1024B00031F7B701C6010E94C411A1960FB6F89476
:1024C000DEBF0FBECDBFDF91CF911F910F91FF9067
:1024D000EF90DF90CF90BF90AF909F908F90089536
:1024E000CF92DF92EF92FF920F931F93CF93DF93E0
:1024F000EC016A017B012115310579F4E881F9814C
:102500000190F081E02D642FDF91CF911F910F9109
:10251000FF90EF90DF90CF9019942A303105E9F4C5
:1025200077FF1AC06DE20E94DB118C01442755270A
:10253000BA014C195D096E097F092AE0CE010E949B
:102540001A12800F911FDF91CF911F910F91FF9071
:10255000EF90DF90CF9008952AE0B701A601CE0159
:10256000DF91CF911F910F91FF90EF90DF90CF906F
:102570000C941A129A01AB01770F660B770B0C942F
:1025800070120895FC0124853585F901E05CFF4F48
:1025900080819181329620813181821B930B8F73D0
:1025A00099270895DC011C96ED91FC911D97DF01A0
:1025B000A05CBF4F2D913C91119712968D919C91EB
:1025C00011972817390739F08D919C91E80FF91F61
:1025D000808190E008958FEF9FEF0895FC01A4851E
:1025E000B585FD01E05CFF4F20813181329680810D
:1025F00091812817390779F080819181A80FB91F3F
:102600008C91208131812F5F3F4F2F73332731838E
:10261000208390E008958FEF9FEF0895FC0181A142
:10262000882329F0A489B5898C9186FFFBCF11A25C
:1026300008950F931F93CF93DF93FC01A685B78571
:102640008D01005C1F4FE8018881998101968F738D
:102650009927AD014E5B5F4FEA01288139818217CE
:102660009307D1F3E80128813981A20FB31F6C933E
:10267000A685B785A05CBF4F11969C938E93A689C3
:10268000B7892C9181E090E0078C02C0880F991FD8
:102690000A94E2F7822B8C9381E081A30488F58968
:1026A000E02D80818064808381E090E0DF91CF9194
:1026B0001F910F910895FB01E05CFF4F2081318154
:1026C0002F5F3F4F2F733327DB01AE5BBF4F4D9121
:1026D0005C912417350741F040815181DB01A40F43
:1026E000B51F8C933183208308951F920F920FB6EC
:1026F0000F9211240BB60F922F933F934F935F933A
:102700006F937F938F939F93AF93BF93EF93FF93B9
:102710008091C00082FD07C08091C60068E879E121
:102720000E945B1302C08091C600FF91EF91BF91A0
:10273000AF919F918F917F916F915F914F913F9159
:102740002F910F900BBE0F900FBE0F901F901895FA
:102750001F920F920FB60F9211240BB60F922F9368
:102760003F934F935F936F937F938F939F93AF9319
:10277000BF93EF93FF938091C80082FD07C08091C3
:10278000CE0060E079E10E945B1302C08091CE0030
:10279000FF91EF91BF91AF919F918F917F916F9139
:1027A0005F914F913F912F910F900BBE0F900FBEF5
:1027B0000F901F9018951F920F920FB60F92112431
:1027C0000BB60F922F933F934F935F936F937F932B
:1027D0008F939F93AF93BF93EF93FF938091D0001C
:1027E00082FD07C08091D60068E778E10E945B1304
:1027F00002C08091D600FF91EF91BF91AF919F9160
:102800008F917F916F915F914F913F912F910F9099
:102810000BBE0F900FBE0F901F9018951F920F9236
:102820000FB60F9211240BB60F922F933F934F9335
:102830005F936F937F938F939F93AF93BF93EF9328
:10284000FF938091300182FD07C08091360160EFD7
:1028500077E10E945B1302C080913601FF91EF91F6
:10286000BF91AF919F918F917F916F915F914F91A8
:102870003F912F910F900BBE0F900FBE0F901F90A6
:1028800018951F920F920FB60F9211240BB60F924C
:102890002F933F938F939F93EF93FF9320918419EE
:1028A00030918519809186199091871928173907D9
:1028B00031F48091C1008F7D8093C10014C0E091FC
:1028C0008619F0918719EC5BF64E2081809186196C
:1028D0009091871901968F73992790938719809308
:1028E00086192093C600FF91EF919F918F913F91A0
:1028F0002F910F900BBE0F900FBE0F901F90189549
:102900001F920F920FB60F9211240BB60F922F93B6
:102910003F938F939F93EF93FF932091FC183091F7
:10292000FD188091FE189091FF182817390731F48F
:102930008091C9008F7D8093C90014C0E091FE187A
:10294000F091FF18E454F74E20818091FE18909189
:10295000FF1801968F7399279093FF188093FE18A4
:102960002093CE00FF91EF919F918F913F912F91F6
:102970000F900BBE0F900FBE0F901F9018951F92D7
:102980000F920FB60F9211240BB60F922F933F9315
:102990008F939F93EF93FF93209174183091751844
:1029A00080917618909177182817390731F4809123
:1029B000D1008F7D8093D10014C0E0917618F09102
:1029C0007718EC5CF74E20818091761890917718FB
:1029D00001968F7399279093771880937618209398
:1029E000D600FF91EF919F918F913F912F910F9082
:1029F0000BBE0F900FBE0F901F9018951F920F9255
:102A00000FB60F9211240BB60F922F933F938F9313
:102A10009F93EF93FF932091EC173091ED178091E6
:102A2000EE179091EF172817390731F48091310193
:102A30008F7D8093310114C0E091EE17F091EF1774
:102A4000E455F84E20818091EE179091EF17019692
:102A50008F7399279093EF178093EE172093360189
:102A6000FF91EF919F918F913F912F910F900BBE0E
:102A70000F900FBE0F901F901895CF92DF92EF929C
:102A8000FF920F931F93CF93DF93EC016A017B01B9
:102A90004115514E6105710509F1EC89FD8981E00F
:102AA00090E008A002C0880F991F0A94E2F7808383
:102AB00060E079E08DE390E0A70196010E942B3D54
:102AC00089019A010150110921093109369527958B
:102AD00017950795980101151041A8F0EC89FD891B
:102AE000108260E874E88EE190E0A70196010E94F0
:102AF0002B3DDA01C9010197A109B109B695A79546
:102B0000979587959C01E889F9893083EA89FB8943
:102B1000208319A2EE89FF89408181E090E09C0129
:102B20000C8C02C0220F331F0A94E2F7242B20835F
:102B3000EE89FF8940819C010D8C02C0220F331F5A
:102B40000A94E2F7242B2083EE89FF8940819C01BF
:102B50000E8C02C0220F331F0A94E2F7242B20832D
:102B6000EE89FF8920810F8C02C0880F991F0A947B
:102B7000E2F7809582238083DF91CF911F910F919F
:102B8000FF90EF90DF90CF900895CF92DF92EF9279
:102B9000FF92EAE8F7E11382128288EEC82E83E002
:102BA000D82EE12CF12CC482D582E682F78265E032
:102BB00073E07183608388E899E19587848784E472
:102BC00099E19787868785EC90E0918B808B84ECE8
:102BD00090E0938B828B80EC90E0958B848B81ECE2
:102BE00090E0978B868B82EC90E0918F808F86ECC3
:102BF00090E0938F828F44E0448F33E0358F27E05D
:102C0000268F95E0978F81E080A3E8E6F7E11382B5
:102C10001282C482D582E682F78271836083A0E04B
:102C2000B9E1B587A487ACEBB8E1B787A687ADEC6F
:102C3000B0E0B18BA08BACECB0E0B38BA28BA8EC76
:102C4000B0E0B58BA48BA9ECB0E0B78BA68BAAEC57
:102C5000B0E0B18FA08FAEECB0E0B38FA28F448F05
:102C6000358F268F978F80A3E6E4F7E113821282D7
:102C7000C482D582E682F78271836083A8E7B8E1D7
:102C8000B587A487A4E3B8E1B787A687A5EDB0E030
:102C9000B18BA08BA4EDB0E0B38BA28BA0EDB0E024
:102CA000B58BA48BA1EDB0E0B78BA68BA2EDB0E005
:102CB000B18FA08FA6EDB0E0B38FA28F448F358F78
:102CC000268F978F80A3E4E2F7E113821282C482F9
:102CD000D582E682F7827183608360EF77E1758742
:102CE00064876CEA77E17787668765E371E0718BCB
:102CF000608B64E371E0738B628B60E371E0758BD2
:102D0000648B61E371E0778B668B62E371E0718FB6
:102D1000608F66E371E0738F628F448F358F268FEB
:102D2000978F80A3FF90EF90DF90CF9008954F9200
:102D30005F926F927F92AF92BF92CF92DF92EF92AB
:102D4000FF920F931F93CF93DF93CDB7DEB7290187
:102D50003A019B01AC0124193509460957098A89B2
:102D60009B89AC89BD89BC01CD016A197B098C099D
:102D70009D090E94073DA8019701241935094609BC
:102D800057090E944D3DCA01B9016A0D7B1D8C1D7A
:102D90009D1DDF91CF911F910F91FF90EF90DF90DC
:102DA000CF90BF90AF907F906F905F904F900895BD
:102DB0000F931F93CF93DF93EC01462F61E00E94A6
:102DC000D021882391F08E01045F1F4F41E0BE01A6
:102DD000C8010E948627882351F0B801CE018A9647
:102DE0000E94AC1A91E081110AC090E008C040E056
:102DF000BE01C8010E9486278823B9F3EECF892F30
:102E0000DF91CF911F910F910895FC01DB01129684
:102E10008D919C9113979383828387E293E09183B2
:102E2000808314968C911497848315968C911597B2
:102E3000858316964D915D916D917C91199746838E
:102E40005783608771871A964D915D916D917C9142
:102E50001D9742875387648775871E964D915D91B4
:102E60006D917C91519746875787608B718B5296F5
:102E70008C915297828B53964D915D916D917C917F
:102E80005697438B548B658B768B57964D915D91FE
:102E90006D917C915A97478B508F618F728F5B96A3
:102EA0008D919C915C97948F838F08954F925F9240
:102EB0006F927F928F929F92AF92BF92CF92DF924A
:102EC000EF92FF920F931F93CF93DF93CDB7DEB7AF
:102ED000C754D1090FB6F894DEBF0FBECDBF6C0149
:102EE0005A014901665D7F4F7E018EE1E80EF11CBB
:102EF000C7010E9405171C821B8287E293E09A8318
:102F000089831E828501FE0131963F0127016FE210
:102F100070E0C8010E945C3A0097D9F1F801208165
:102F20002F3219F40F5F1F4FF2CF801B8D3008F046
:102F30008CE0E82EF12CA701B801CE01CB960E94BF
:102F4000673AEBE3F0E0EC0FFD1FEE0DFF1D108282
:102F5000C3010E94281D21E0AE01455C5F4FB20114
:102F6000C3010E945C1E811109C0F6011382128206
:102F700087E293E091838083158214C00E0D1F1D9C
:102F8000C2010E94281D942D852D2301692E782EC3
:102F9000BECF0A191B09F40111830083B201C601D7
:102FA0000E940517C601C95BDF4F0FB6F894DEBF5C
:102FB0000FBECDBFDF91CF911F910F91FF90EF908A
:102FC000DF90CF90BF90AF909F908F907F906F9049
:102FD0005F904F900895CF92DF92FF920F931F93CF
:102FE000CF93DF93CDB7DEB7C955D1090FB6F894AB
:102FF000DEBF0FBECDBF6C018A01F22E9E01285AA2
:103000003F4FCE01CB960E9456176A968EAD9FAD6C
:103010006A97080F191FF801808181110AC0BE014B
:10302000655C7F4FCE0101960E94051741E153E098
:103030003EC019A218A287E293E09F8F8E8F1BA239
:1030400021968FAD2197811104C0C6010E943E19BF
:1030500034C082502F2DA801823048F466EF79E108
:10306000CE014E960E945C1E81110EC0EECFBE01B5
:10307000655C7F4FCE014E960E945C1E882329F32B
:10308000CE01CB960E94281D9F2D967041F049A934
:103090005AA96BA97CA9CE014E960E944B1CBE0179
:1030A000625E7F4FCE0101960E940517A801BE0106
:1030B0006F5F7F4FC6010E940919C601C75ADF4FD3
:1030C0000FB6F894DEBF0FBECDBFDF91CF911F9139
:1030D0000F91FF90DF90CF900895ECECF9E115820D
:1030E00016821186138682E090E0A0E0B0E084872B
:1030F0009587A687B78713A215A614A687E293E043
:1031000093A782A717A60895CF93DF931F92CDB7F9
:10311000DEB76983DC01ED91FC910280F381E02D43
:1031200041E050E0BE016F5F7F4F19950F90DF9136
:10313000CF910895CF93DF93EC01898D9A8D0097FD
:1031400039F481E090E09B838A8380E090E00BC0BB
:10315000FC01138212820E944A1FE98DFA8D22819E
:103160003381232B71F7DF91CF910895FC01818D7D
:10317000928D009711F00C94E11C0895CF93DF938A
:103180001F92CDB7DEB741E050E0BE016F5F7F4FC9
:103190000E94FD1A019719F4898190E002C08FEF17
:1031A0009FEF0F90DF91CF910895FC01818D928D5B
:1031B000009711F00C94BE188FEF9FEF08950F93B6
:1031C0001F93CF93DF93FC01818D928D0097B9F00F
:1031D000EF010E94BE188C010F3F8FEF180791F08E
:1031E000898D9A8DFC014285538564857585415092
:1031F0005109610971090E944B1CC80105C080E09A
:1032000090E002C08FEF9FEFDF91CF911F910F9160
:103210000895EF92FF920F931F93CF93DF93EC01EA
:103220007B018A011B821A8288EE93E0A0E0B0E065
:103230008C839D83AE83BF8387E193E099838883EA
:103240008DE190E00E94EC389A8F898F009779F099
:103250002DE1F701DC0101900D922A95E1F74CE098
:1032600050E0B801CE010C960E94673A188EDF91AB
:10327000CF911F910F91FF90EF900895FC01138261
:10328000128288EE93E0A0E0B0E084839583A68369
:10329000B78387E193E091838083128E118E148629
:1032A00008950895FC01818D928D009711F00C9482
:1032B000FD1A80E090E00895FC01818D928D0097C9
:1032C00011F00C944B1C80E00895DC015996ED91AF
:1032D000FC915A97309729F062857385848595858E
:1032E00008956FEF7FEFCB010895DC015996ED91C2
:1032F000FC915A97309729F063897489858996895A
:10330000089560E070E0CB010895CF92DF92EF92D4
:10331000FF92CF93DF93FC01218D328D232BD9F0C7
:10332000EC010E9475196B017C01CE010E946519A8
:10333000A7019601261B370B480B590BDA01C9016F
:10334000811530E89307A105B10538F08FEF9FE7AD
:10335000A0E0B0E002C080E090E0DF91CF91FF906C
:10336000EF90DF90CF900895CF93DF93EC01898D9C
:103370009A8D009741F00E94281D898D9A8D0E9498
:1033800081391A8E198EDF91CF910895DC015996FB
:10339000ED91FC915A97309721F081E09581911140
:1033A00001C080E00895CF93DF93EC019C012A5F78
:1033B0003F4F41E050E060E070E08B8D9C8D0E94BB
:1033C0001B268823A1F08F89988DA98DBA8D892B12
:1033D0008A2B8B2B59F48E819F81A885B9858F8B81
:1033E000988FA98FBA8F8C8180688C8381E0DF9160
:1033F000CF910895CF92DF92EF92FF921F93CF93D8
:10340000DF93EC010E94D319811102C080E04AC011
:10341000EB8DFC8DCE80DF80E884F98482E0C81AD1
:10342000D108E108F108058404C0CC0CDD1CEE1CB9
:10343000FF1C0A94D2F786859785A089B189C80EAA
:10344000D91EEA1EFB1E148181E0C81AD108E108CA
:10345000F108112361F0C701B601610F711D811DD3
:10346000911D0E946A24882389F21150F2CFEB8DBE
:10347000FC8D80E092E0A0E0B0E0058404C0880FFD
:10348000991FAA1FBB1F0A94D2F74B895C896D89CB
:103490007E89840F951FA61FB71F8B8B9C8BAD8BCE
:1034A000BE8B81E0DF91CF911F91FF90EF90DF9075
:1034B000CF900895CF93DF93EC01462F6E857F85E3
:1034C000888999890E942F24882341F08A8920E2E3
:1034D000829FC0011124825E954E02C080E090E080
:1034E000DF91CF910895FB019B01255F3F4F40E2A3
:1034F0004193E217F307E1F7DC0190E027E08D91BB
:10350000882319F18E3219F0EAE1F3E008C02A307D
:1035100009F198E02AE0F3CF31963817D9F03491C9
:103520003111FACF2917B0F03FED380F3E3590F446
:1035300031E0390FFB01E90FF11D9FE9980F9A3136
:1035400008F480528083932FDACF81E0FB019081D1
:10355000903209F480E008950F931F93CF93DF9387
:10356000FC012581222311F080E042C08B01EC0197
:10357000FB0187898031B1F482E08D831F8A188E28
:10358000198E1A8E808D918DA0E0B0E025E0880F15
:10359000991FAA1FBB1F2A95D1F78B8B9C8BAD8BD4
:1035A000BE8B15C0803201F783E08D83FB01428D15
:1035B000538D648D758D4F8B588F698F7A8F9E01D7
:1035C0002D5E3F4FC8010E941225882369F21C8F8F
:1035D0000B8F81E08C831E821F82188619861A86C3
:1035E0001B861C861D861E861F86188A198A1A8AC3
:1035F000DF91CF911F910F9108952F923F924F929B
:103600005F926F927F928F929F92AF92BF92CF9272
:10361000DF92EF92FF920F931F93CF93DF93EC0112
:103620005B014A018D81811103C08FEF9FEFD7C0ED
:103630008C8180FFFACF4B885C886D887E884A85B4
:103640005B856C857D85C401A0E0B0E093018201BB
:10365000041B150B260B370B081719072A073B0706
:1036600018F44201841A950A24011E0126E0220E54
:10367000311C4114510409F47EC04A855B856C8578
:103680007D856A0181E0D822ED818A019B0189E074
:1036900036952795179507958A95D1F78B8D9C8D33
:1036A000E23061F4FC01828D938DA48DB58DBC0157
:1036B000CD01600F711F821F931F3FC0FC017480FA
:1036C0007A947022C114D104C9F4711017C0452B2B
:1036D000462B472B49F48F89988DA98DBA8D8E83FF
:1036E0009F83A887B9870AC04E815F8168857985E5
:1036F00091010E948E24882309F497CFEB8DFC8DD5
:103700008E819F81A885B9850297A109B109058499
:1037100004C0880F991FAA1FBB1F0A94D2F74685C1
:10372000578560897189840F951FA61FB71FBC013B
:10373000CD01670D711D811D911D20E032E02C1916
:103740003D0932012415350508F439012C8126FD87
:1037500004C06114F2E07F0679F500911102109126
:103760001202209113023091140260177107820730
:10377000930719F421C0C40132C075018301960179
:10378000AB01BC0180911C1A90911D1A0E9452231A
:10379000882309F44ACFA60CB71C8A859B85AC8583
:1037A000BD85860D971DA11DB11D8A879B87AC879E
:1037B000BD87461857085DCF40E00E942F2488231C
:1037C00009F433CFF601E25EF54ED501CF01860D47
:1037D000971DE817F907F9F221912D93FACFDF91A0
:1037E000CF911F910F91FF90EF90DF90CF90BF90FE
:1037F000AF909F908F907F906F905F904F903F9091
:103800002F900895FF920F931F93CF93DF931F92F2
:10381000CDB7DEB7FC012581223018F480E090E0BE
:1038200033C08C01FC01428553856485758585E034
:1038300076956795579547958A95D1F7F42FFF7040
:10384000FF2E41E050E0BE016F5F7F4FC8010E9434
:10385000FD1A019719F4898190E002C08FEF9FEF64
:103860000196E1F2F80182859385A485B5854F968E
:10387000A11DB11D82879387A487B587F0E2FF9EC3
:10388000C0011124825E954E0F90DF91CF911F9160
:103890000F91FF9008958F929F92AF92BF92CF9217
:1038A000DF92EF92FF920F931F93CF93DF93EC0180
:1038B0008D81811102C080E077C00B891C892D8920
:1038C0003E890417150726073707A8F36A017B010D
:1038D000823029F4CA86DB86EC86FD860DC0C114D1
:1038E000D104E104F10451F41E821F821886198666
:1038F0001A861B861C861D8681E056C08A849B849E
:10390000AC84BD84EB8DFC8D258530E0275F3F4F77
:10391000B501A4014150510961097109022E04C089
:1039200076956795579547950A94D2F7D701C601C2
:103930000197A109B10904C0B695A79597958795F8
:103940002A95D2F784179507A607B70720F089288C
:103950008A288B2849F44F89588D698D7A8D4E833A
:103960005F836887798704C0841B950BA60BB70B10
:103970004C015D018E010A5F1F4F81149104A10467
:10398000B10409F4A7CF4E815F81688579859801DC
:103990008B8D9C8D0E948E2491E0891A9108A1083C
:1039A000B1088111EACF87CFDF91CF911F910F919D
:1039B000FF90EF90DF90CF90BF90AF909F908F904F
:1039C00008950F931F93CF93DF93EC018D8188238C
:1039D000C9F18C8187FF30C061E0CE010E945A1A84
:1039E0008C01892B79F18D81823048F48B899C89F7
:1039F000AD89BE89F801848F958FA68FB78F8F8987
:103A0000988DA98DBA8DF801938F828FB58BA48B79
:103A1000E091151AF091161A309759F0B8016A5EC4
:103A20007F4FC80148961995F801808D918D938B31
:103A3000828B8C818F778C83DF91CF911F910F9137
:103A40000C94F42380E0DF91CF911F910F910895A2
:103A5000CF93DF93EC010E94E11C882311F01D82BB
:103A600081E0DF91CF9108954F925F926F927F92A4
:103A70008F929F92AF92BF92EF92FF920F931F93FC
:103A8000CF93DF9300D01F92CDB7DEB7FC018581C5
:103A90008130E9F4848181FF1AC083899489A589E2
:103AA000B68984179507A607B70788F0892B8A2B54
:103AB0008B2B09F479C04A015B017F014284538456
:103AC00064847584CF010E944B1C811102C080E088
:103AD0006CC0F701838D948D81149104A104B1040D
:103AE00071F44789508D618D728D0E943027882333
:103AF00071F3F701178A108E118E128E3AC0F701FA
:103B000046815781608571859E012F5F3F4F0E94DE
:103B10008E248823E1F249815A816B817C81F701EF
:103B2000838D948DFC012789203129F008EF1FEF48
:103B30002FEF3FE004C008EF1FEF20E030E0401718
:103B4000510762077307A8F40E943027882309F4FD
:103B5000BECFF70146815781608571850FEF1FEF5A
:103B60002FEF3FE0838D948D0E947B25882309F4FD
:103B7000AECFF701838A948AA58AB68A8481806849
:103B80008483C7010E94E11C882309F4A0CFB501FA
:103B9000A401481459046A047B0410F4B301A2017F
:103BA000C7010E944B1C01C081E00F900F900F9045
:103BB0000F90DF91CF911F910F91FF90EF90BF90E9
:103BC000AF909F908F907F906F905F904F900895EF
:103BD0001F93CF93DF93EC0180E2689FF0011124E3
:103BE0009F01225E354ED9011B969C91917129F05F
:103BF000842F827411F080E05BC0142F6A8B809157
:103C0000110290911202A0911302B09114028E87BA
:103C10009F87A88BB98BE25EF54E4489558960E099
:103C200070E0BA01552744274F8B588F698F7A8FE0
:103C3000828D938DA0E0B0E0482B592B6A2B7B2B13
:103C40004F8B588F698F7A8FD9011B968C91887111
:103C500051F4848D958DA68DB78D8B8B9C8BAD8B00
:103C6000BE8B81E00DC0803131F69E012D5E3F4F4D
:103C70008B8D9C8D0E941225882309F4BCCF84E093
:103C80008D83812F8F708C831E821F8218861986E8
:103C90001A861B861C861D8616FF09C040E050E070
:103CA000BA01CE01DF91CF911F910C94341D81E0B8
:103CB000DF91CF911F910895CF92DF92EF92FF9203
:103CC0000F931F93CF93DF93CDB7DEB72C970FB62B
:103CD000F894DEBF0FBECDBFFC0135813111C2C0EB
:103CE000D22E8B017C01BE016F5F7F4FCA010E9403
:103CF000731A882309F4B6C0F801838D948DF701F7
:103D0000948F838FF801168217821086118612868F
:103D100013861486158630E0F80182859385A48584
:103D2000B585438954896589768984179507A607DF
:103D3000B70708F041C025E0B695A79597958795F8
:103D40002A95D1F7F82FFF70CF2EC8013C870E942B
:103D5000021C3C85009709F485C0FC0120812223C8
:103D600009F484C0253E99F04BE050E0BC01CE013F
:103D700001963C870E944F3A3C85892B69F68D2D30
:103D80008073803309F46EC04D2D6C2D67C03111E6
:103D90006BC0F701C28A40911102509112026091EA
:103DA00013027091140246875787608B718BFC0158
:103DB000808131E08111B0CF8D2D8271823109F087
:103DC00051C0332341F061E0C7010E945A1A8C01AF
:103DD000892B79F447C0F8018581823009F442C00B
:103DE000C8010E94FA198823E9F1F701128A0EE14D
:103DF0001AE180E2F80111928A95E9F78BE0FE0161
:103E00003196D80101900D928A95E1F7E091151A4B
:103E1000F091161A309739F0B801625F7F4FC801F0
:103E20004096199509C081E298E2F801918B808B48
:103E300080E098E097878687F80180899189938B45
:103E4000828B918F808F86859785978B868B0E943A
:103E5000F423882339F04D2DF7016289C7010E94B0
:103E6000E81D09C080E007C031E056CF332309F4D4
:103E700090CF31E0A1CF2C960FB6F894DEBF0FBEE5
:103E8000CDBFDF91CF911F910F91FF90EF90DF9009
:103E9000CF9008952F923F924F925F926F927F92B0
:103EA0008F929F92AF92BF92CF92DF92EF92FF924A
:103EB0000F931F93CF93DF9300D01F92CDB7DEB740
:103EC0008C016B013A01DC0115968C9115978130BC
:103ED000C9F414968C9181FF15C082FF1DC0F801B2
:103EE000438954896589768982859385A485B585BA
:103EF00084179507A607B70779F0C8010E944B1CE5
:103F000081110AC081E090E0D80113969C938E93B2
:103F1000129780E090E048C1430184C0D8015B96CD
:103F20008D919C915C97FC0154802FEF250D1A0117
:103F30002B0139E056944794379427943A95D1F75A
:103F4000522E52207A01F1E0FF22552009F476C06A
:103F500080E092E08E199F0954018815990508F4B4
:103F60005C01D8015B962D913C915C9716968D91E2
:103F70009D910D90BC91A02D0297A109B109F90165
:103F8000058404C0880F991FAA1FBB1F0A94D2F78B
:103F90004685578560897189840F951FA61FB71FB5
:103FA0009C01AD01250D311D411D511D19012A0135
:103FB000A11432E0B30609F088C0809111029091FB
:103FC0001202A0911302B091140282159305A40568
:103FD000B50559F48FEF9FEFDC01809311029093A8
:103FE0001202A0931302B09314029601B201A10130
:103FF00080911C1A90911D1A0E94A623882309F40F
:1040000081CF9EEFD91A8A189B08F8018285938583
:10401000A485B5858A0D9B1DA11DB11D828793873F
:10402000A487B587D8011A964D915D916D917C91C9
:104030001D978114910409F071CF87C0E114F10438
:1040400009F086CF16964D915D916D917C911997EF
:10405000411551056105710559F457968D919D9152
:104060000D90BC91A02D0097A105B10541F521C08F
:104070009E012F5F3F4F0E948E24882309F44ACF70
:1040800089819A81AB81BC81F801238D348DF9013E
:104090002789203129F048EF5FEF6FEF7FE004C000
:1040A00048EF5FEF60E070E084179507A607B70759
:1040B00030F0C8010E94D31981114ACF23CFF801F3
:1040C00086839783A087B18743CFE114F10429F554
:1040D000D8011A964D915D916D917C911D975396E3
:1040E0008D919D910D90BC91A02D481759076A079D
:1040F0007B0798F00E94F423882309F403CF2092D1
:1041000011023092120240921302509214028091D6
:104110001B1A816080931B1A08C041E0C201B101E3
:104120000E942F24882309F4EDCED601F701E25E28
:10413000F54ECF018A0D9B1DE817F90719F02D9157
:104140002193FACFCA0CDB1C5ECF5396CD90DD9045
:10415000ED90FC90569714968C91C416D506E60601
:10416000F70640F4F801438B548B658B768B80689F
:1041700084830DC02091151A3091161A232B39F023
:104180006114710421F08068D80114968C93F801B1
:10419000848183FD02C0C30107C0C8010E94E11CE5
:1041A000882309F4AFCEF7CF0F900F900F900F90A8
:1041B000DF91CF911F910F91FF90EF90DF90CF9003
:1041C000BF90AF909F908F907F906F905F904F9037
:1041D0003F902F900895CF93DF931F92CDB7DEB716
:1041E000698341E050E0BE016F5F7F4F0E944A1F2C
:1041F0000F90DF91CF9108958EBD0DB407FEFDCFD6
:1042000008958FEF0E94FC208EB5089561E0FC01B7
:1042100084810C94431160E0FC0184810C9443116F
:10422000CF93DF93FC0186818823D1F08FEF8EBD81
:104230004FEF878190859C012F5F3F4F3087278309
:104240008130924028F40DB407FEFDCF4EBDF1CF72
:104250000DB407FEFDCFEF01CF010E9406211E82A3
:10426000DF91CF910895673028F026E1FC01258386
:1042700080E008958DB560FD02C0663011F48E7F38
:1042800001C081608DBD8CB58C7F8CBD9CB562FDFD
:1042900002C080E001C082E066956170692B862BC8
:1042A0008CBD81E008950F931F93CF93DF93EB01B3
:1042B0000E94D70F8B010E9401218F3F49F00E947D
:1042C000D70F601B710B6C177D07A8F380E001C04E
:1042D00081E0DF91CF911F910F910895CF92DF92EE
:1042E000FF920F931F93CF93DF9300D01F92CDB710
:1042F000DEB76C01F62E29833A834B835C830E94E0
:104300001021C6010E940B216CE271E0C6010E94DF
:1043100053218F2D80640E94FC2008E110E05C8115
:104320004B813A812981DA01C901002E04C0B6957A
:10433000A795979587950A94D2F729833A834B835B
:104340005C830E94FC200850110929813A814B812D
:104350005C81083F8FEF180731F7FF2029F0E8E074
:10436000FE1204C087E803C085E901C08FEF0E94F8
:10437000FC2010E00E940121F601828787FF04C023
:104380001F3F11F01F5FF6CF0F900F900F900F900F
:10439000DF91CF911F910F91FF90DF90CF90089503
:1043A0008F929F92AF92BF92EF92FF920F931F93C3
:1043B000CF93DF93EC01E62E1B8619861E821D82A9
:1043C0004C830E94D70F8B0161E08C810E94071102
:1043D000CE010E94062160E082E30E94071161E0A5
:1043E00083E30E94071161E084E30E94071161E00A
:1043F00085E30E94071161E085E30E94431183E594
:104400008CBD8DB58E7F8DBD2AE0F22E8FEF0E9480
:10441000FC20FA94F110FACFCE010E940B2120E08B
:1044200030E0A90160E0CE010E946E21F82E8A875B
:1044300081E0F81649F00E94D70F601B710B613DB7
:10444000774068F381E04CC02AEA31E040E050E078
:1044500068E0CE010E946E2182FF02C0FB860EC082
:1044600094E0F92E0E9401218A87FA94F110FACF84
:104470008A3A11F082E034C082E08B878B858230EB
:1044800021F0812C912C540105C0812C912CA12C60
:1044900080E4B82E20E030E0A90167E3CE010E945D
:1044A0006E21A501940169E2CE010E946E218A87E6
:1044B000882349F00E94D70F601B710B613D774044
:1044C00048F388E00DC08B85823039F520E030E07C
:1044D000A9016AE3CE010E946E21882389F086E05B
:1044E0008D83CE010E94062180E0DF91CF911F9144
:1044F0000F91FF90EF90BF90AF909F908F90089595
:104500000E940121807C803C11F483E08B870E9413
:1045100001210E9401210E940121CE010E94062159
:104520006E2DCE01DF91CF911F910F91FF90EF90F3
:10453000BF90AF909F908F900C9433210F931F9357
:10454000CF93DF93EC010E94D70F8B010E940121D2
:104550008A878F3F49F40E94D70F601B710B6D3221
:104560007140A0F38FE003C08E3F39F08DE08D8362
:10457000CE010E94062180E001C081E0DF91CF9151
:104580001F910F910895CF92DF92EF92FF920F93B8
:104590001F93CF93DF93EC016901C801820F931F32
:1045A0008130924008F06FC08E81882371F088813D
:1045B0009981AA81BB81481759076A077B0729F4AB
:1045C0008F819885C816D90618F5488359836A8360
:1045D0007B838B85833039F089E0440F551F661F3C
:1045E000771F8A95D1F79A01AB0161E1CE010E9454
:1045F0006E21882319F083E08D8345C0CE010E948F
:104600009E22882309F43FC018861F8281E08E8392
:104610008FEF8EBD2FEF8F8198858C159D0550F4FF
:104620000DB407FEFDCF2EBD8F819885019698872A
:104630008F83F1CFC8010197F7014FEF9F012E192A
:104640003F092817390738F40DB407FEFDCF2EB502
:1046500021934EBDF3CF0DB407FEFDCF2EB5F7016C
:10466000E80FF91F20838F819885080F191F18877D
:104670000F838985882319F00115124048F0CE0177
:104680000E94102105C0CE010E94062180E001C0D9
:1046900081E0DF91CF911F910F91FF90EF90DF901C
:1046A000CF900895EF92FF920F931F93011511057C
:1046B00019F00E94C32201C081E01F910F91FF9069
:1046C000EF900895EF92FF920F931F93790100E00E
:1046D00012E020E030E00E94C3221F910F91FF9072
:1046E000EF900895CF93DF93EC016EBD20E030E0B2
:1046F0000DB407FEFDCFFA01E20FF31F80818EBDDE
:104700000DB407FEFDCF81818EBD2E5F3F4F211579
:1047100082E0380769F70DB407FEFDCF8FEF0E94E6
:10472000FC208FEF0E94FC200E9401218A87982F95
:104730009F71953039F081E18D83CE010E94062171
:1047400080E001C081E0DF91CF9108950F931F9326
:10475000CF93DF93EC018901411551056105710586
:1047600011F482E132C08B85833039F089E0440F47
:10477000551F661F771F8A95D1F79A01AB0168E133
:10478000CE010E946E21882311F084E01EC0A80192
:104790006EEFCE010E9472238823C1F068E572E0BB
:1047A000CE010E945321811102C085E10EC020E09C
:1047B00030E0A9016DE0CE010E946E21811104C09C
:1047C0000E940121882339F084E18D83CE010E946B
:1047D000062180E004C0CE010E94062181E0DF9125
:1047E000CF911F910F91089580911B1A8823A9F1F1
:1047F00040911102509112026091130270911402C3
:104800002EE13AE180911C1A90911D1A0E94A62374
:10481000811102C080E008954091171A5091181A32
:104820006091191A70911A1A4115510561057105A7
:1048300091F02EE13AE180911C1A90911D1A0E948C
:10484000A623882339F31092171A1092181A10927F
:10485000191A10921A1A10921B1A81E00895CF9219
:10486000DF92EF92FF92CF936B017C01C42F809176
:10487000110290911202A0911302B09114028C15B2
:104880009D05AE05BF05D1F00E94F423811102C041
:1048900080E01AC02EE13AE1B701A60180911C1A0E
:1048A00090911D1A0E946223882391F3C0921102F5
:1048B000D0921202E0921302F092140280911B1A1D
:1048C000C82BC0931B1A81E0CF91FF90EF90DF902F
:1048D000CF900895CF92DF92EF92FF926B017C010F
:1048E0000E94F4238823A9F0EEE1FAE111928CE111
:1048F000EE31F807D9F7C0921102D0921202E0927D
:104900001302F092140280911B1A816080931B1A8B
:1049100081E0FF90EF90DF90CF9008958F929F926B
:10492000AF92BF92CF92DF92EF92FF920F931F93BD
:10493000CF93DF93FC0181859285A385B485019691
:10494000A11DB11D84179507A607B70710F480E0D5
:104950005CC083899489A589B689C789C03129F447
:10496000852E962EA72EBB2409C04A015B01C7E005
:10497000B694A79497948794CA95D1F7E9016A01F0
:104980007B018F01BC01CD01680D791D8A1D9B1D26
:104990008090110290901202A0901302B090140225
:1049A000681579058A059B0599F4F8018789803196
:1049B000A9F4B701A601552766277727440F551F8D
:1049C000FA01E25EF54E80819181A0E0B0E018C06E
:1049D00040E00E942F248111E8CFB9CFB701A60192
:1049E0004F77552766277727440F551F440F551FCC
:1049F000FA01E25EF54E80819181A281B381BF70A0
:104A000088839983AA83BB8381E0DF91CF911F9133
:104A10000F91FF90EF90DF90CF90BF90AF909F905D
:104A20008F9008954F925F926F927F92AF92BF9254
:104A3000CF92DF92EF92FF920F931F93CF93DF936A
:104A400000D01F92CDB7DEB78C0149835A836B83A8
:104A50007C835901C12CD12C7601412C82E0582E47
:104A6000612C712C49815A816B817C819E012F5F61
:104A70003F4FC8010E948E24882351F1D301C20107
:104A8000F801058404C0880F991FAA1FBB1F0A9450
:104A9000D2F7C80ED91EEA1EFB1E49815A816B81CE
:104AA0007C818789803129F088EF9FEFAFEFBFE0ED
:104AB00004C088EF9FEFA0E0B0E0481759076A07ED
:104AC0007B0780F2F501C082D182E282F38281E02D
:104AD0000F900F900F900F90DF91CF911F910F913A
:104AE000FF90EF90DF90CF90BF90AF907F906F904E
:104AF0005F904F9008954F925F926F927F928F9246
:104B00009F92AF92BF92CF92DF92EF92FF920F935C
:104B10001F93CF93DF93EC016A017B0128013901D8
:104B2000423051056105710510F480E073C089853C
:104B30009A85AB85BC850196A11DB11D841795078B
:104B4000A607B70790F38B889C88AD88BE888F89AD
:104B5000803129F4BB27AF2D9E2D8D2D09C0DB019F
:104B6000CA0147E0B695A795979587954A95D1F7DD
:104B7000880E991EAA1EBB1E8091110290911202EE
:104B8000A0911302B091140288169906AA06BB06DA
:104B900079F48F898031A1F4DD24EE24FF24C6014D
:104BA000880F991FFC01E25EF54E5182408219C0C8
:104BB00040E0C501B4010E942F248111EACFB5CF96
:104BC000E894C7F8DD24EE24FF24C601880F991F5E
:104BD000880F991FFC01E25EF54E4082518262828D
:104BE000738280911B1A816080931B1A8A8982309C
:104BF00080F08D819E81AF81B885880E991EAA1E96
:104C0000BB1E8092171A9092181AA092191AB0928D
:104C10001A1A81E0DF91CF911F910F91FF90EF90D1
:104C2000DF90CF90BF90AF909F908F907F906F90CC
:104C30005F904F9008952F923F924F925F926F92A4
:104C40007F929F92AF92BF92CF92DF92EF92FF92AC
:104C50000F931F93CF93DF93CDB7DEB760970FB657
:104C6000F894DEBF0FBECDBF5C0149875A876B87C2
:104C70007C871901D901CD90DD90ED90FC90C11495
:104C8000D104E104F10431F0BFEFCB1ADB0AEB0AE7
:104C9000FB0A10C0FC01C080D180E280F38099241F
:104CA000939409851A852B853C85013011052105D2
:104CB000310509F0912CF50181859285A385B48594
:104CC0008C019D010F5F1F4F2F4F3F4F0D871E8798
:104CD0002F87388B260137011D821E821F8218867E
:104CE000F50181859285A385B4850D811E812F8173
:104CF0003885081719072A073B0708F056C02D8585
:104D00003E854F855889241535054605570550F4CD
:104D100082E0482E512C612C712C92E0C92ED12CAE
:104D2000E12CF12C9E012F5F3F4FB301A201C50181
:104D30000E948E248823C9F149815A816B817C812C
:104D4000D301C2010196A11DB11D452B462B472B56
:104D500019F06C017D010FC0AC01BD014C195D095A
:104D60006E097F0909851A852B853C8540175107F7
:104D70006207730779F02D813E814F8158852F5F3F
:104D80003F4F4F4F5F4F2D833E834F8358872C01FA
:104D90003D01A6CF0FEF1FEF2FEF3FE0B301A201C0
:104DA000C5010E947B25811118C080E041C0D3015C
:104DB000C2010197A109B1098D839E83AF83B88792
:104DC00093018201AC01BD01C5010E947B258823AE
:104DD00061F34D805E806F807884C414D504E6044E
:104DE000F70428F3D1014D915D916D917C914115AE
:104DF00051056105710599F4F101C082D182E28209
:104E0000F3829920A1F0FFEFCF1ADF0AEF0AFF0A21
:104E1000D501CD92DD92ED92FC92139708C09701D7
:104E20008601C5010E947B258111E6CFBECF81E0BE
:104E300060960FB6F894DEBF0FBECDBFDF91CF9165
:104E40001F910F91FF90EF90DF90CF90BF90AF90A8
:104E50009F907F906F905F904F903F902F9008951C
:104E6000AF92BF92CF92DF92EF92FF920F931F9378
:104E7000CF93DF9300D01F92CDB7DEB75C016A01FC
:104E80007B0182E090E0A0E0B0E0F50180839183B7
:104E9000A283B3839E012F5F3F4FB701A601C501D7
:104EA0000E948E24882311F100E010E09801B701E0
:104EB000A601C5010E947B258823C1F0C980DA8044
:104EC000EB80FC80F5018789803129F088EF9FEF26
:104ED000AFEFBFE004C088EF9FEFA0E0B0E0C816DE
:104EE000D906EA06FB06B0F281E001C080E00F902F
:104EF0000F900F900F90DF91CF911F910F91FF9026
:104F0000EF90DF90CF90BF90AF9008958F929F92D7
:104F1000AF92BF92CF92DF92EF92FF920F931F93C7
:104F2000CF93DF93EC01142F70931D1A60931C1A1A
:104F3000442369F1453010F080E0F2C040E060E0C9
:104F400070E0CB010E942F248823B1F320E1129F4F
:104F5000A0011124425F554EFA01E254FE4F8081B8
:104F60008F7751F73C9680819181A281B3818436FD
:104F70009105A105B10500F33497C080D180E2808E
:104F8000F380C114D104E104F10421F4D5CFC12C84
:104F9000D12C760140E0C701B6010E942F2488235E
:104FA00059F28091291A90912A1A8115924021F67E
:104FB00090912E1A992309F4BFCF20912C1A309189
:104FC0002D1A232B09F4B8CF80912B1A882309F4CA
:104FD000B3CF9A8B8C831D8690E061E070E02D85C5
:104FE000E22FAB01022E02C0440F551F0A94E2F7D4
:104FF0008417950731F031E0320F3D87283078F380
:105000009BCF2091341A3091351A2115310519F0B2
:1050100040E050E008C02091421A3091431A40917C
:10502000441A5091451A2D833E834F8358878091AF
:105030002C1A90912D1A46015701880E991EA11C19
:10504000B11C8B8A9C8AAD8ABE8A00912F1A10915E
:10505000301A198F088FA0912E1AB0E00E94923D4D
:10506000860E971EA81EB91E8A8E9B8EAC8EBD8E94
:1050700085E0000F111F8A95E1F701501E4F012FA7
:1050800011270695800E911EA11CB11C8E869F864D
:10509000A88AB98A2091311A3091321A2115310526
:1050A00021F0A90160E070E008C040913E1A5091E3
:1050B0003F1A6091401A7091411AD701C6018819B0
:1050C0009909AA09BB09840F951FA61FB71F04C021
:1050D000B695A79597958795EA95D2F789879A8788
:1050E000AB87BC87853F2FE09207A105B10510F47F
:1050F0008CE014C0853F9F4FA105B10510F480E1FD
:105100000DC080914A1A90914B1AA0914C1AB091FF
:105110004D1A8A8F9B8FAC8FBD8F80E28F8B81E081
:10512000DF91CF911F910F91FF90EF90DF90CF9083
:10513000BF90AF909F908F9008952F923F924F9283
:105140005F926F927F928F929F92AF92BF92CF9217
:10515000DF92EF92FF920F931F93CF93DF9300D0D4
:10516000CDB7DEB74C017B836A836A015901170111
:105170009801241B350B37FF03C031952195310968
:10518000C5014A815B81841B950B97FF03C09195F4
:105190008195910951E059838217930714F0198280
:1051A0000BC09A2D8B2D5801092F182F9A818B81B6
:1051B000DB82CA82C92ED82E8A819B81A816B906A5
:1051C0005CF49C2D8D2D6801092F182F9A818B81FD
:1051D000BB82AA82A92EB82E2501AA81BB814A1AB8
:1051E0005B0A38016C187D0877FE03C071946194E6
:1051F0007108720157FE03C0BFEFEB1AFB0AF5946A
:10520000E794C016D1061CF00FEF1FEF1FC001E09E
:1052100010E01CC0D401ED91FC91B9810084F185AE
:10522000E02D9101BB23C1F04A815B81B601C4012D
:105230001995E618F708F7FE04C0C00ED11EE40C5D
:10524000F51CEA81FB813196FB83EA834A815B810D
:10525000A416B506FCF604C0A6016A817B81E7CFDF
:105260000F900F900F90DF91CF911F910F91FF90B2
:10527000EF90DF90CF90BF90AF909F908F907F90F6
:105280006F905F904F903F902F9008950895DC01AC
:10529000ED91FC910480F581E02D19940F931F93FB
:1052A000DC01ED91FC91008CF18DE02D19951F91A1
:1052B0000F9108950F931F93DC01ED91FC91028CE7
:1052C000F38DE02D19951F910F910895EF92FF92A4
:1052D0000F931F93DC01ED91FC91048CF58DE02D73
:1052E00019951F910F91FF90EF9008950895AF9237
:1052F000BF92CF92DF92EF92FF920F931F93CF93C3
:10530000DF9300D01F92CDB7DEB75C016901DC01ED
:10531000ED91FC910680F781E02D4B835C836983DE
:105320007A831995D501ED91FC914B815C81C40E76
:10533000D51EB1E0CB1AD1080088F189E02D7801A3
:10534000860169817A819B01C5011995D501ED918D
:10535000FC910288F389E02DC5010F900F900F900A
:105360000F90DF91CF911F910F91FF90EF90DF9001
:10537000CF90BF90AF901994AF92BF92CF92DF922F
:10538000EF92FF920F931F93CF93DF9300D01F9262
:10539000CDB7DEB75C016901DC01ED91FC910680BF
:1053A000F781E02D4B835C8369837A831995D5015E
:1053B000ED91FC9169817A819B012C0D3D1D21505D
:1053C00031090088F189E02D78014B815C818A01E7
:1053D000C5011995D501ED91FC910288F389E02D65
:1053E000C5010F900F900F900F90DF91CF911F91FB
:1053F0000F91FF90EF90DF90CF90BF90AF901994F6
:105400004F925F926F927F928F929F92AF92BF92D4
:10541000CF92DF92EF92FF920F931F93CF93DF9380
:105420001F921F92CDB7DEB76C015A0139014801B6
:10543000DC01ED91FC910680F781E02D69837A8390
:1054400019956981462E7A81572E640C751CD601F8
:10545000ED91FC91461457046CF40484F585E02D1D
:1054600087019401A501B201C6011995BFEF4B1A3E
:105470005B0AEDCF0288F389E02DC6010F900F90F3
:10548000DF91CF911F910F91FF90EF90DF90CF9020
:10549000BF90AF909F908F907F906F905F904F9054
:1054A0001994EF92FF920F931F93DC01ED91FC9101
:1054B00011971A960D911C911B9718962D913C915E
:1054C0001997048CF58DE02D7B0140E050E060E001
:1054D00070E019951F910F91FF90EF900895CF9272
:1054E000DF92EF92FF920F931F93CF93DF9300D041
:1054F00000D0CDB7DEB76C01DC01ED91FC916217F5
:10550000730789F4041715072CF4942F852FA8012D
:10551000092F182F041B150B98012F5F3F4F008C8C
:10552000F18DE02D12C04017510709F526173707F6
:105530002CF4962F872FB901292F382F261B370BD4
:105540002F5F3F4F028CF38DE02D8701C601199527
:1055500026960FB6F894DEBF0FBECDBFDF91CF9178
:105560001F910F91FF90EF90DF90CF9008950680EC
:10557000F781E02D2D833E834B835C8369837A839F
:105580001995D601ED91FC910088F189E02D2D81CE
:105590003E814B815C8169817A81C6011995D60172
:1055A000ED91FC910288F389E02DC60126960FB695
:1055B000F894DEBF0FBECDBFDF91CF911F910F9149
:1055C000FF90EF90DF90CF9019946F927F928F921F
:1055D0009F92AF92BF92CF92DF92EF92FF920F9382
:1055E0001F93CF93DF93EC014B015A0169013801FE
:1055F000E881F9810680F781E02D1995E881F9812C
:105600000684F785E02D87019601A501B401CE013E
:105610001995E881F981A501460D571D41505109A1
:105620000684F785E02D9601B401CE011995E88135
:10563000F9810484F585E02D9301A501B401CE0123
:105640001995E881F981C80CD91CB601615071091E
:105650000484F585E02D9301A501CE011995E8811B
:10566000F9810288F389E02DCE01DF91CF911F915E
:105670000F91FF90EF90DF90CF90BF90AF909F90F1
:105680008F907F906F9019940895FC016370658BE3
:105690008481958126813781613039F0633029F02A
:1056A0009187808733872287089531872087938762
:1056B00082870895FC01138212828FE293E0918326
:1056C000808375836483578346837187608753879C
:1056D0004287158A158614861786168681E0848B84
:1056E0002FEF3FEF338B228B318B208B868B178AEA
:1056F000118E108E08952F923F924F925F926F926B
:105700007F928F929F92AF92BF92CF92DF92EF9251
:10571000FF920F931F93CF93DF9300D000D0CDB7AC
:10572000DEB79E838D836B015A01790181E090E0A1
:105730003C01621A730A88279927821B930B9C01EC
:10574000220F331F3C832B83AD81BE81ED91FC91F1
:1057500011970680F781E02DCD011995AD81BE81AD
:10576000ED91FC911197A5014E0D5F1D0084F1850F
:10577000E02D9801B601CD011995AD81BE81ED9165
:10578000FC911197A5014E195F090084F185E02D68
:105790009801B601CD011995AD81BE81ED91FC91C5
:1057A0001197B6016E0D7F1D0084F185E02D9801E3
:1057B000A501CD011995AD81BE81ED91FC911197A7
:1057C000B6016E197F090084F185E02D9801A501CD
:1057D000CD011995812C912CAD81BE81ED91FC916B
:1057E00011978E149F040CF099C077FC0BC0B1E0A8
:1057F000EB1AF1082B813C812E5F3F4F3C832B83BA
:10580000620E731E3FEF831A930AC401880F991F1B
:105810000196680E791E14012C0C3D1C0084F18544
:10582000E02D980125014E0C5F1CA201B1018D8174
:105830009E811995C601881999099A838983AD813A
:10584000BE81ED91FC9111970084F185E02D9801C6
:10585000A201BC01CD011995AD81BE81ED91FC91F4
:1058600011970084F185E02D980125014E185F08FD
:10587000A201B101CD011995AD81BE81ED91FC91DF
:1058800011970084F185E02D9801A20169817A8148
:10589000CD01199524014A0C5B1CAD81BE81ED91AF
:1058A000FC9111970084F185E02D9801A201160169
:1058B0002E0C3F1CB101CD011995AD81BE81ED913A
:1058C000FC9111970084F185E02D9801A201C60199
:1058D0008E199F099A838983BC01CD0119952501F1
:1058E00048185908AD81BE81ED91FC911197008453
:1058F000F185E02D9801A201B101CD011995AD818D
:10590000BE81ED91FC9111970084F185E02D980105
:10591000A20169817A81CD0119955ECF0288F38950
:10592000E02DCD0126960FB6F894DEBF0FBECDBF99
:10593000DF91CF911F910F91FF90EF90DF90CF906B
:10594000BF90AF909F908F907F906F905F904F909F
:105950003F902F9019942F923F924F925F926F92A7
:105960007F928F929F92AF92BF92CF92DF92EF92EF
:10597000FF920F931F93CF93DF93CDB7DEB7289796
:105980000FB6F894DEBF0FBECDBF5C013B014A01EC
:1059900038872F83FC82EB8281E090E02C01421A51
:1059A000530AC9019195819591099C01220F331FDA
:1059B0003A832983170133E0230E311CEE24E3944C
:1059C000F12C802F81708D8302700E83C7010197A7
:1059D000EF81F8858E179F070CF078C057FC0CC03C
:1059E000AF81B8851197B887AF83E981FA81329684
:1059F000FA83E9834E0E5F1EC701880F991F019637
:105A0000480E591EFD81FF2359F1D501ED91FC91FE
:105A10002F813885220F331F2F5F3F4F8B819C8151
:105A2000280F391F0484F585E02D8601A401AF817C
:105A3000B8854A1B5B0BB701660D771DC50119952B
:105A4000D501ED91FC910484F585E02D9101A4012F
:105A50004E195F096F817885660D771DC50119950F
:105A6000BE81BB2361F1D501ED91FC912F81388579
:105A7000220F331F2F5F3F4F8B819C81280F391FCF
:105A80000484F585E02D8601A401AF81B8854A1B09
:105A90005B0BB3016E197F09C5011995D501ED9115
:105AA000FC910484F585E02D9101A4014E195F0954
:105AB000B3018F819885681B790BC50119959FEFFC
:105AC000E91AF90AA2E02A0E311C80CF28960FB6F7
:105AD000F894DEBF0FBECDBFDF91CF911F910F9124
