:100000000C9481000C94B2000C94B2000C94B200D9
:100010000C94B2000C94B2000C94B2000C94B20098
:100020000C94B2000C94B2000C94B2000C94B20088
:100030000C94B2000C94B2000C94B2000C94B20078
:100040000C94B2000C94B2000C94B2000C94B20068
:100050000C94B2000C94B2000C94B2000C945F01AA
:100060000C94B2000C9446040C9412050C94B2004B
:100070000C94B2000C94B2000C94B2000C94B20038
:100080000C94B2000C94B2000C94B2000C94B20028
:100090000C9479040C9451050C94B2000C94B200A9
:1000A0000C94B2000C94B2000C94B2000C94B20008
:1000B0000C94B2000C94B2000C94B2000C94B200F8
:1000C0000C94B2000C94B2000C94B2000C94AC04EA
:1000D0000C9490050C94B2000C94DF040C94CF05A2
:1000E0000C94B2000C947B020C94EE060C94EA0380
:1000F0000C9493030C94A3030C94BF030C94DF03A0
:10010000EE0611241FBECFEFD1E2DEBFCDBF00E06F
:100110000CBF12E0A0E0B2E0EEEDFFE000E00BBFAC
:1001200002C007900D92A632B107D9F724E0A6E2EB
:10013000B2E001C01D92A73DB207E1F710E0C1E8AF
:10014000D0E000E006C021970109802FFE010E9447
:10015000E507C038D10780E00807A9F70E94000131
:100160000C94C0070C9400000F931F93CF93DF9360
:100170008C01CFE0D0E0B8010C2E02C075956795D8
:100180000A94E2F7617077274AE050E085E992E04F
:100190000E947503219779F785E992E0DF91CF916D
:1001A0001F910F910C94C1020E94F40140E855E2A6
:1001B00060E070E085E992E00C940E06CF93DF9347
:1001C000EC0161E072E085E992E00E94B8024AE049
:1001D00050E0BE0185E992E00E947C036DE072E090
:1001E00085E992E00E94B80261E070E06C1B7D0B33
:1001F0004AE050E085E992E0DF91CF910C947C03D6
:10020000CF93DF930E94D4004AE050E061E070E0B9
:1002100085E992E00E947C0389E190E00E94B400AD
:100220008FEF9FEF0E94B4008BEF9FEF0E94B4000E
:100230004AE050E06DE170E085E992E00E947C03C5
:100240004AE050E06DE170E085E992E00E947C03B5
:1002500085E992E00E94C10281E090E00E94DE0008
:1002600080E090E00E94DE008FE090E00E94DE00DF
:100270008DEE9FEF0E94DE0080E090E80E94DE009D
:10028000C4E1D0E087E30E945602BC016170772789
:100290004AE050E085E992E00E947C0362E370E06E
:1002A00080E090E00E94CE01219761F785E992E01D
:1002B0000E94960680E090E0DF91CF9108951F9212
:1002C0000F920FB60F9211242F933F938F939F930A
:1002D000AF93BF938091270290912802A0912902A9
:1002E000B0912A023091260223E0230F2D3720F40B
:1002F0000196A11DB11D05C026E8230F0296A11D80
:10030000B11D209326028093270290932802A09388
:100310002902B0932A0280912B0290912C02A09185
:100320002D02B0912E020196A11DB11D80932B02CA
:1003300090932C02A0932D02B0932E02BF91AF9107
:100340009F918F913F912F910F900FBE0F901F9013
:1003500018953FB7F89480912B0290912C02A091B0
:100360002D02B0912E0226B5A89B05C02F3F19F093
:100370000196A11DB11D3FBFBA2FA92F982F882725
:10038000820F911DA11DB11DBC01CD0142E0660F80
:10039000771F881F991F4A95D1F70895CF92DF9252
:1003A000EF92FF92CF93DF936B017C010E94A90132
:1003B000EB01C114D104E104F10479F00E94A90118
:1003C0006C1B7D0B683E7340A0F381E0C81AD10816
:1003D000E108F108C851DC4FECCFDF91CF91FF90DD
:1003E000EF90DF90CF900895789484B5826084BDBB
:1003F00084B5816084BD85B5826085BD85B5816029
:1004000085BDEEE6F0E0808181608083E1E8F0E088
:100410001082808182608083808181608083E0E8B7
:10042000F0E0808181608083E1EBF0E08081846096
:100430008083E0EBF0E0808181608083E1E9F0E09F
:10044000808182608083808181608083E0E9F0E048
:10045000808181608083E1EAF0E080818260808336
:10046000808181608083E0EAF0E080818160808328
:10047000E1E2F1E08081826080838081816080831D
:10048000E0E2F1E0808181608083EAE7F0E0808152
:1004900084608083808182608083808181608083AA
:1004A0008081806880831092C1000895863308F0AF
:1004B000865390917B00282F2870977F922B9093E2
:1004C0007B0087702091000290E4299F9001112405
:1004D000822B80937C0080917A00806480937A00E4
:1004E00080917A0086FDFCCF809178002091790080
:1004F00090E0922B0895CF92DF92EF92FF920F93AC
:100500001F93CF93DF936C01EB017B01E40EF51E8B
:1005100000E010E0CE15DF0561F06991D601ED91A4
:10052000FC910190F081E02DC6011995080F191F6B
:10053000F1CFC801DF91CF911F910F91FF90EF9004
:10054000DF90CF9008956115710579F0FB0101905E
:100550000020E9F73197AF01461B570BDC01ED9105
:10056000FC910280F381E02D199480E090E00895E1
:100570000C94A302DC01ED91FC910190F081E02D3F
:1005800019940F931F93CF93DF93EC016DE00E94BA
:10059000BA028C016AE0CE010E94BA02800F911F5C
:1005A000DF91CF911F910F9108958F929F92AF92FB
:1005B000BF92CF92DF92EF92FF920F931F93CF9350
:1005C000DF93CDB7DEB7A1970FB6F894DEBF0FBEAD
:1005D000CDBF6C01142FE52FCB01022F19A22230C1
:1005E00008F40AE07E0121E2E20EF11C802E912C3B
:1005F000A12CB12C612F7E2FA50194010E94C3076D
:10060000029F1019112481E0E81AF1081A3014F43D
:10061000105D01C0195CF7011083122FE32FCA018E
:10062000232B242B252B31F7B701C6010E94A302EF
:10063000A1960FB6F894DEBF0FBECDBFDF91CF916C
:100640001F910F91FF90EF90DF90CF90BF90AF90F0
:100650009F908F900895CF92DF92EF92FF920F9329
:100660001F93CF93DF93EC016A017B0121153105C4
:1006700079F4E881F9810190F081E02D642FDF9118
:10068000CF911F910F91FF90EF90DF90CF90199431
:100690002A303105E9F477FF1AC06DE20E94BA02F0
:1006A0008C0144275527BA014C195D096E097F0951
:1006B0002AE0CE010E94D502800F911FDF91CF91D9
:1006C0001F910F91FF90EF90DF90CF9008952AE057
:1006D000B701A601CE01DF91CF911F910F91FF903D
:1006E000EF90DF90CF900C94D5029A01AB01770F79
:1006F000660B770B0C942B030F931F93CF93DF9311
:10070000EC019A01AB01770F660B770B0E942B036C
:100710008C01CE010E94C102800F911FDF91CF9109
:100720001F910F910895FC0124853585F901E05C46
:10073000FF4F80819181329620813181821B930B02
:100740008F7399270895DC011C96ED91FC911D97FC
:10075000DF01A05CBF4F2D913C91119712968D91B6
:100760009C9111972817390739F08D919C91E80FCA
:10077000F91F808190E008958FEF9FEF0895FC01AD
:10078000A485B585FD01E05CFF4F20813181329663
:10079000808191812817390779F080819181A80F94
:1007A000B91F8C91208131812F5F3F4F2F733327E9
:1007B0003183208390E008958FEF9FEF0895FC012F
:1007C00081A1882329F0A489B5898C9186FFFBCF6C
:1007D00011A208950F931F93CF93DF93FC01A68579
:1007E000B7858D01005C1F4FE801888199810196D2
:1007F0008F739927AD014E5B5F4FEA0128813981E4
:1008000082179307D1F3E80128813981A20FB31F22
:100810006C93A685B785A05CBF4F11969C938E9371
:10082000A689B7892C9181E090E0078C02C0880FDF
:10083000991F0A94E2F7822B8C9381E081A30488AC
:10084000F589E02D80818064808381E090E0DF91F4
:10085000CF911F910F910895FB01E05CFF4F208124
:1008600031812F5F3F4F2F733327DB01AE5BBF4FCB
:100870004D915C912417350741F040815181DB0196
:10088000A40FB51F8C933183208308951F920F927C
:100890000FB60F9211240BB60F922F933F934F93E5
:1008A0005F936F937F938F939F93AF93BF93EF93D8
:1008B000FF938091C00082FD07C08091C60063E96C
:1008C00074E00E942C0402C08091C600FF91EF9159
:1008D000BF91AF919F918F917F916F915F914F9158
:1008E0003F912F910F900BBE0F900FBE0F901F9056
:1008F00018951F920F920FB60F9211240BB60F92FC
:100900002F933F934F935F936F937F938F939F9317
:10091000AF93BF93EF93FF938091C80082FD07C010
:100920008091CE006BE074E00E942C0402C08091A4
:10093000CE00FF91EF91BF91AF919F918F917F91E9
:100940006F915F914F913F912F910F900BBE0F9040
:100950000FBE0F901F9018951F920F920FB60F9217
:1009600011240BB60F922F933F934F935F936F9386
:100970007F938F939F93AF93BF93EF93FF93809158
:10098000D00082FD07C08091D60063E873E00E942A
:100990002C0402C08091D600FF91EF91BF91AF91DE
:1009A0009F918F917F916F915F914F913F912F9187
:1009B0000F900BBE0F900FBE0F901F9018951F92B7
:1009C0000F920FB60F9211240BB60F922F933F93F5
:1009D0004F935F936F937F938F939F93AF93BF9347
:1009E000EF93FF938091300182FD07C08091360123
:1009F0006BEF72E00E942C0402C080913601FF91DF
:100A0000EF91BF91AF919F918F917F916F915F9186
:100A10004F913F912F910F900BBE0F900FBE0F90F3
:100A20001F9018951F920F920FB60F9211240BB6BC
:100A30000F922F933F938F939F93EF93FF93209168
:100A40008F04309190048091910490919204281722
:100A5000390731F48091C1008F7D8093C10014C0AB
:100A6000E0919104F0919204E15BFB4F2081809131
:100A700091049091920401968F7399279093920418
:100A8000809391042093C600FF91EF919F918F91E5
:100A90003F912F910F900BBE0F900FBE0F901F90A4
:100AA00018951F920F920FB60F9211240BB60F924A
:100AB0002F933F938F939F93EF93FF93209107047E
:100AC000309108048091090490910A04281739078D
:100AD00031F48091C9008F7D8093C90014C0E091EA
:100AE0000904F0910A04E953FC4F20818091090424
:100AF00090910A0401968F73992790930A0480932A
:100B000009042093CE00FF91EF919F918F913F9127
:100B10002F910F900BBE0F900FBE0F901F90189546
:100B20001F920F920FB60F9211240BB60F922F93B4
:100B30003F938F939F93EF93FF9320917F03309187
:100B4000800380918103909182032817390731F443
:100B50008091D1008F7D8093D10014C0E0918103FA
:100B6000F0918203E15CFC4F2081809181039091A0
:100B7000820301968F739927909382038093810358
:100B80002093D600FF91EF919F918F913F912F91EC
:100B90000F900BBE0F900FBE0F901F9018951F92D5
:100BA0000F920FB60F9211240BB60F922F933F9313
:100BB0008F939F93EF93FF932091F7023091F80268
:100BC0008091F9029091FA022817390731F4809147
:100BD00031018F7D8093310114C0E091F902F091D1
:100BE000FA02E954FD4F20818091F9029091FA02B6
:100BF00001968F7399279093FA028093F9022093BC
:100C00003601FF91EF919F918F913F912F910F901E
:100C10000BBE0F900FBE0F901F901895CF92DF92D2
:100C2000EF92FF920F931F93CF93DF93EC016A0132
:100C30007B014115514E6105710509F1EC89FD8972
:100C400081E090E008A002C0880F991F0A94E2F7A3
:100C5000808360E079E08DE390E0A70196010E9437
:100C6000C30789019A0101501109210931093695FB
:100C7000279517950795980101151041A8F0EC8963
:100C8000FD89108260E874E88EE190E0A70196018A
:100C90000E94C307DA01C9010197A109B109B695FC
:100CA000A795979587959C01E889F9893083EA890A
:100CB000FB89208319A2EE89FF89408181E090E0C1
:100CC0009C010C8C02C0220F331F0A94E2F7242BE4
:100CD0002083EE89FF8940819C010D8C02C0220F88
:100CE000331F0A94E2F7242B2083EE89FF89408189
:100CF0009C010E8C02C0220F331F0A94E2F7242BB2
:100D00002083EE89FF8920810F8C02C0880F991FF4
:100D10000A94E2F7809582238083DF91CF911F911F
:100D20000F91FF90EF90DF90CF900895CF93DF93D6
:100D3000FC0186859785EC01C05CDF4FDC01AE5B72
:100D4000BF4F288139818D919C91119728173907C0
:100D5000C1F7A689B7893C9181E090E0AC01048C91
:100D600002C0440F551F0A94E2F7242F2095232335
:100D70002C93A689B7893C91AC01058C02C0440F25
:100D8000551F0A94E2F7242F209523232C93A6893C
:100D9000B7893C91AC01068C02C0440F551F0A94E0
:100DA000E2F7242F209523232C93A689B7892C9131
:100DB000078C02C0880F991F0A94E2F7809582235E
:100DC0008C9384859585FC01EE5BFF4F20813181FA
:100DD000329731832083DF91CF910895CF92DF92B4
:100DE000EF92FF92E5E9F2E01382128288EEC82EBC
:100DF00083E0D82EE12CF12CC482D582E682F782E2
:100E000069E172E07183608383E994E09587848768
:100E10008FE494E09787868785EC90E0918B808BB8
:100E200084EC90E0938B828B80EC90E0958B848BAC
:100E300081EC90E0978B868B82EC90E0918F808F95
:100E400086EC90E0938F828F44E0448F33E0358FBF
:100E500027E0268F95E0978F81E080A3E3E7F2E01B
:100E600013821282C482D582E682F7827183608304
:100E7000ABE0B4E0B587A487A7ECB3E0B787A6875B
:100E8000ADECB0E0B18BA08BACECB0E0B38BA28B3F
:100E9000A8ECB0E0B58BA48BA9ECB0E0B78BA68B27
:100EA000AAECB0E0B18FA08FAEECB0E0B38FA28F10
:100EB000448F358F268F978F80A3E1E5F2E0138270
:100EC0001282C482D582E682F78271836083A3E8AE
:100ED000B3E0B587A487AFE3B3E0B787A687A5EDF6
:100EE000B0E0B18BA08BA4EDB0E0B38BA28BA0EDF2
:100EF000B0E0B58BA48BA1EDB0E0B78BA68BA2EDD3
:100F0000B0E0B18FA08FA6EDB0E0B38FA28F448F79
:100F1000358F268F978F80A3EFE2F2E01382128243
:100F2000C482D582E682F782718360836BEF72E0C0
:100F30007587648767EB72E07787668765E371E0A2
:100F4000718B608B64E371E0738B628B60E371E0A3
:100F5000758B648B61E371E0778B668B62E371E084
:100F6000718F608F66E371E0738F628F448F358F6E
:100F7000268F978F80A3FF90EF90DF90CF900895FA
:100F8000F8940C94ED07A1E21A2EAA1BBB1BFD01DD
:100F90000DC0AA1FBB1FEE1FFF1FA217B307E40758
:100FA000F50720F0A21BB30BE40BF50B661F771FB0
:100FB000881F991F1A9469F7609570958095909590
:100FC0009B01AC01BD01CF010895EE0FFF1F881FEB
:0E0FD0008BBF0790F691E02D1994F894FFCF97
:100FDE00014E65676174696E673A2020004974207E
:100FEE0069733A200000000000EA037B029303BFFE
:060FFE0003A303DF030062
:00000001FF
