:100000000C9481000C94B2000C94B2000C94B200D9
:100010000C94B2000C94B2000C94B2000C94B20098
:100020000C94B2000C94B2000C94B2000C94B20088
:100030000C94B2000C94B2000C94B2000C94B20078
:100040000C94B2000C94B2000C94B2000C94B20068
:100050000C94B2000C94B2000C94B2000C94DB012E
:100060000C94B2000C945D040C9429050C94B2001D
:100070000C94B2000C94B2000C94B2000C94B20038
:100080000C94B2000C94B2000C94B2000C94B20028
:100090000C9490040C9468050C94B2000C94B2007B
:1000A0000C94B2000C94B2000C94B2000C94B20008
:1000B0000C94B2000C94B2000C94B2000C94B200F8
:1000C0000C94B2000C94B2000C94B2000C94C304D3
:1000D0000C94A7050C94B2000C94F6040C94E6055D
:1000E0000C94B2000C9405070C9401040C94AA0320
:1000F0000C94F6030C9487020C94BA030C94D60368
:10010000050711241FBECFEFD1E2DEBFCDBF00E057
:100110000CBF12E0A0E0B2E0ECE0F0E100E00BBFC9
:1001200002C007900D92A63EB107D9F725E0A6EED2
:10013000B2E001C01D92A739B207E1F710E0C1E8B3
:10014000D0E000E006C021970109802FFE010E9447
:10015000FC07C038D10780E00807A9F70E94BE005D
:100160000C94D7070C9400000E94250240E855E249
:1001700060E070E085E593E00C942506CF92DF9275
:10018000EF92FF920F931F93CF93DF9300D000D095
:10019000CDB7DEB70E94B4004AE050E065E070E001
:1001A00085E593E00E94930386E0E2E0F2E0DE0161
:1001B000119601900D928A95E1F709811A814AE022
:1001C00050E0B80185E593E00E9493036B817C8148
:1001D0004AE050E085E593E00E9493036D817E81C3
:1001E0004AE050E085E593E00E94930385E593E0C3
:1001F0000E94CD02000F111FE1E0F0E0EC0FFD1FA7
:10020000E00FF11F87E090E09183808368E072E067
:1002100085E593E00E94E1028E010F5F1F4F6E01A2
:1002200087E0C80ED11C7801F701619171917F01BF
:100230004AE050E085E593E00E949303EC14FD044E
:1002400099F769E172E085E593E00E94E102F80127
:10025000619171918F014AE050E085E593E00E9441
:1002600093030C151D0599F76CE272E085E593E0A8
:100270000E94E1024AE050E063E070E085E593E02F
:100280000E9493036EE472E085E593E00E94E10230
:1002900000E010E04AE050E0B80185E593E00E94FC
:1002A00093030E5F1F4F0A301105A1F768E372E058
:1002B00085E593E00E94C4024AE050E063E070E00C
:1002C00085E593E00E94930362E472E085E593E0A4
:1002D0000E94E1026CE572E085E593E00E94C402B1
:1002E00060910002709101024AE050E085E593E0E0
:1002F0000E94930365E672E085E593E00E94C402E4
:100300004AE050E061E070E085E593E00E949303ED
:1003100067E772E085E593E00E94C4024AE050E09E
:1003200064E070E085E593E00E94930360E972E089
:1003300085E593E00E94C4024AE050E061E070E08D
:1003400085E593E00E94930368EA72E085E593E017
:100350000E94C4024AE050E061E070E085E593E06D
:100360000E9493036FEB72E085E593E00E94C40264
:1003700060910002709101024AE050E085E593E04F
:100380000E94930385E593E00E94CD0285E593E00A
:100390000E94AD0680E090E026960FB6F894DEBF8E
:1003A0000FBECDBFDF91CF911F910F91FF90EF90C6
:1003B000DF90CF9008951F920F920FB60F921124E5
:1003C0002F933F938F939F93AF93BF938091E702B7
:1003D0009091E802A091E902B091EA023091E60220
:1003E00023E0230F2D3720F40196A11DB11D05C078
:1003F00026E8230F0296A11DB11D2093E6028093EB
:10040000E7029093E802A093E902B093EA02809198
:10041000EB029091EC02A091ED02B091EE020196F8
:10042000A11DB11D8093EB029093EC02A093ED020D
:10043000B093EE02BF91AF919F918F913F912F9119
:100440000F900FBE0F901F901895789484B582601E
:1004500084BD84B5816084BD85B5826085BD85B568
:10046000816085BDEEE6F0E0808181608083E1E817
:10047000F0E010828081826080838081816080834F
:10048000E0E8F0E0808181608083E1EBF0E0808152
:1004900084608083E0EBF0E0808181608083E1E92B
:1004A000F0E0808182608083808181608083E0E9E8
:1004B000F0E0808181608083E1EAF0E08081826009
:1004C0008083808181608083E0EAF0E080818160C8
:1004D0008083E1E2F1E080818260808380818160BD
:1004E0008083E0E2F1E0808181608083EAE7F0E0F0
:1004F000808184608083808182608083808181604C
:1005000080838081806880831092C1000895CF929B
:10051000DF92EF92FF920F931F93CF93DF936C01C3
:10052000EB017B01E40EF51E00E010E0CE15DF05C7
:1005300061F06991D601ED91FC910190F081E02D7F
:10054000C6011995080F191FF1CFC801DF91CF918E
:100550001F910F91FF90EF90DF90CF90089561155C
:10056000710579F0FB0101900020E9F73197AF01A7
:10057000461B570BDC01ED91FC910280F381E02DCD
:10058000199480E090E008950C94AF02DC01ED91A5
:10059000FC910190F081E02D19940F931F93CF935C
:1005A000DF93EC016DE00E94C6028C016AE0CE018F
:1005B0000E94C602800F911FDF91CF911F910F9172
:1005C00008950F931F93CF93DF93EC010E94AF0226
:1005D0008C01CE010E94CD02800F911FDF91CF913F
:1005E0001F910F9108958F929F92AF92BF92CF92D9
:1005F000DF92EF92FF920F931F93CF93DF93CDB7CC
:10060000DEB7A1970FB6F894DEBF0FBECDBF6C0169
:10061000142FE52FCB01022F19A2223008F40AE093
:100620007E0121E2E20EF11C802E912CA12CB12C36
:10063000612F7E2FA50194010E94DA07029F1019F5
:10064000112481E0E81AF1081A3014F4105D01C099
:10065000195CF7011083122FE32FCA01232B242BDF
:10066000252B31F7B701C6010E94AF02A1960FB644
:10067000F894DEBF0FBECDBFDF91CF911F910F91D8
:10068000FF90EF90DF90CF90BF90AF909F908F90B2
:100690000895CF92DF92EF92FF920F931F93CF9323
:1006A000DF93EC016A017B012115310579F4E881C2
:1006B000F9810190F081E02D642FDF91CF911F919E
:1006C0000F91FF90EF90DF90CF9019942A30310571
:1006D000E9F477FF1AC06DE20E94C6028C0144273C
:1006E0005527BA014C195D096E097F092AE0CE0130
:1006F0000E94F302800F911FDF91CF911F910F9104
:10070000FF90EF90DF90CF9008952AE0B701A60107
:10071000CE01DF91CF911F910F91FF90EF90DF906D
:10072000CF900C94F3020F931F93CF93DF93EC01C0
:100730009A01AB01770F660B770B0E9449038C017E
:10074000CE010E94CD02800F911FDF91CF911F91AA
:100750000F910895FC0124853585F901E05CFF4F78
:1007600080819181329620813181821B930B8F731E
:1007700099270895DC011C96ED91FC911D97DF01EE
:10078000A05CBF4F2D913C91119712968D919C9139
:1007900011972817390739F08D919C91E80FF91FAF
:1007A000808190E008958FEF9FEF0895FC01A4856C
:1007B000B585FD01E05CFF4F20813181329680815B
:1007C00091812817390779F080819181A80FB91F8D
:1007D0008C91208131812F5F3F4F2F7333273183DD
:1007E000208390E008958FEF9FEF0895FC0181A191
:1007F000882329F0A489B5898C9186FFFBCF11A2AB
:1008000008950F931F93CF93DF93FC01A685B785BF
:100810008D01005C1F4FE8018881998101968F73DB
:100820009927AD014E5B5F4FEA012881398182171C
:100830009307D1F3E80128813981A20FB31F6C938C
:10084000A685B785A05CBF4F11969C938E93A68911
:10085000B7892C9181E090E0078C02C0880F991F26
:100860000A94E2F7822B8C9381E081A30488F589B6
:10087000E02D80818064808381E090E0DF91CF91E2
:100880001F910F910895FB01E05CFF4F20813181A2
:100890002F5F3F4F2F733327DB01AE5BBF4F4D916F
:1008A0005C912417350741F040815181DB01A40F91
:1008B000B51F8C933183208308951F920F920FB63A
:1008C0000F9211240BB60F922F933F934F935F9388
:1008D0006F937F938F939F93AF93BF93EF93FF9308
:1008E0008091C00082FD07C08091C60063E575E07D
:1008F0000E94430402C08091C600FF91EF91BF9116
:10090000AF919F918F917F916F915F914F913F91A7
:100910002F910F900BBE0F900FBE0F901F90189548
:100920001F920F920FB60F9211240BB60F922F93B6
:100930003F934F935F936F937F938F939F93AF9367
:10094000BF93EF93FF938091C80082FD07C0809111
:10095000CE006BEC74E00E94430402C08091CE0094
:10096000FF91EF91BF91AF919F918F917F916F9187
:100970005F914F913F912F910F900BBE0F900FBE43
:100980000F901F9018951F920F920FB60F9211247F
:100990000BB60F922F933F934F935F936F937F9379
:1009A0008F939F93AF93BF93EF93FF938091D0006A
:1009B00082FD07C08091D60063E474E00E94430486
:1009C00002C08091D600FF91EF91BF91AF919F91AE
:1009D0008F917F916F915F914F913F912F910F90E8
:1009E0000BBE0F900FBE0F901F9018951F920F9285
:1009F0000FB60F9211240BB60F922F933F934F9384
:100A00005F936F937F938F939F93AF93BF93EF9376
:100A1000FF938091300182FD07C0809136016BEB1E
:100A200073E00E94430402C080913601FF91EF9170
:100A3000BF91AF919F918F917F916F915F914F91F6
:100A40003F912F910F900BBE0F900FBE0F901F90F4
:100A500018951F920F920FB60F9211240BB60F929A
:100A60002F933F938F939F93EF93FF9320914F0585
:100A70003091500580915105909152052817390702
:100A800031F48091C1008F7D8093C10014C0E0914A
:100A90005105F0915205E15FFA4F20818091510597
:100AA0009091520501968F739927909352058093E8
:100AB00051052093C600FF91EF919F918F913F9137
:100AC0002F910F900BBE0F900FBE0F901F90189597
:100AD0001F920F920FB60F9211240BB60F922F9305
:100AE0003F938F939F93EF93FF932091C70430918F
:100AF000C8048091C9049091CA042817390731F4B9
:100B00008091C9008F7D8093C90014C0E091C90411
:100B1000F091CA04E957FB4F20818091C90490915C
:100B2000CA0401968F7399279093CA048093C904CD
:100B30002093CE00FF91EF919F918F913F912F9144
:100B40000F900BBE0F900FBE0F901F9018951F9225
:100B50000F920FB60F9211240BB60F922F933F9363
:100B60008F939F93EF93FF9320913F043091400424
:100B700080914104909142042817390731F4809103
:100B8000D1008F7D8093D10014C0E0914104F09199
:100B90004204E150FC4F2081809141049091420435
:100BA00001968F7399279093420480934104209378
:100BB000D600FF91EF919F918F913F912F910F90D0
:100BC0000BBE0F900FBE0F901F9018951F920F92A3
:100BD0000FB60F9211240BB60F922F933F938F9362
:100BE0009F93EF93FF932091B7033091B8038091C7
:100BF000B9039091BA032817390731F48091310174
:100C00008F7D8093310114C0E091B903F091BA0354
:100C1000E958FC4F20818091B9039091BA03019665
:100C20008F7399279093BA038093B9032093360169
:100C3000FF91EF919F918F913F912F910F900BBE5C
:100C40000F900FBE0F901F901895CF92DF92EF92EA
:100C5000FF920F931F93CF93DF93EC016A017B0107
:100C60004115514E6105710509F1EC89FD8981E05D
:100C700090E008A002C0880F991F0A94E2F78083D1
:100C800060E079E08DE390E0A70196010E94DA0729
:100C900089019A01015011092109310936952795D9
:100CA00017950795980101151041A8F0EC89FD8969
:100CB000108260E874E88EE190E0A70196010E943E
:100CC000DA07DA01C9010197A109B109B695A7951B
:100CD000979587959C01E889F9893083EA89FB8992
:100CE000208319A2EE89FF89408181E090E09C0178
:100CF0000C8C02C0220F331F0A94E2F7242B2083AE
:100D0000EE89FF8940819C010D8C02C0220F331FA8
:100D10000A94E2F7242B2083EE89FF8940819C010D
:100D20000E8C02C0220F331F0A94E2F7242B20837B
:100D3000EE89FF8920810F8C02C0880F991F0A94C9
:100D4000E2F7809582238083DF91CF911F910F91ED
:100D5000FF90EF90DF90CF900895CF93DF93FC0149
:100D600086859785EC01C05CDF4FDC01AE5BBF4F31
:100D7000288139818D919C91119728173907C1F7E6
:100D8000A689B7893C9181E090E0AC01048C02C057
:100D9000440F551F0A94E2F7242F209523232C9308
:100DA000A689B7893C91AC01058C02C0440F551F40
:100DB0000A94E2F7242F209523232C93A689B78940
:100DC0003C91AC01068C02C0440F551F0A94E2F717
:100DD000242F209523232C93A689B7892C91078C47
:100DE00002C0880F991F0A94E2F7809582238C93A2
:100DF00084859585FC01EE5BFF4F20813181329720
:100E000031832083DF91CF910895CF92DF92EF92CB
:100E1000FF92E5E5F3E01382128288EEC82E83E0AC
:100E2000D82EE12CF12CC482D582E682F7826AEDBD
:100E300072E07183608383E595E0958784878FE016
:100E400095E09787868785EC90E0918B808B84EC8A
:100E500090E0938B828B80EC90E0958B848B81EC7F
:100E600090E0978B868B82EC90E0918F808F86EC60
:100E700090E0938F828F44E0448F33E0358F27E0FA
:100E8000268F95E0978F81E080A3E3E3F3E0138260
:100E90001282C482D582E682F78271836083ABECD2
:100EA000B4E0B587A487A7E8B4E0B787A687ADEC20
:100EB000B0E0B18BA08BACECB0E0B38BA28BA8EC14
:100EC000B0E0B58BA48BA9ECB0E0B78BA68BAAECF5
:100ED000B0E0B18FA08FAEECB0E0B38FA28F448FA3
:100EE000358F268F978F80A3E1E1F3E01382128282
:100EF000C482D582E682F78271836083A3E4B4E082
:100F0000B587A487AFEFB3E0B787A687A5EDB0E0BC
:100F1000B18BA08BA4EDB0E0B38BA28BA0EDB0E0C1
:100F2000B58BA48BA1EDB0E0B78BA68BA2EDB0E0A2
:100F3000B18FA08FA6EDB0E0B38FA28F448F358F15
:100F4000268F978F80A3EFEEF2E013821282C48285
:100F5000D582E682F782718360836BEB73E07587DD
:100F6000648767E773E07787668765E371E0718B75
:100F7000608B64E371E0738B628B60E371E0758B6F
:100F8000648B61E371E0778B668B62E371E0718F54
:100F9000608F66E371E0738F628F448F358F268F89
:100FA000978F80A3FF90EF90DF90CF900895F894F3
:100FB0000C940408A1E21A2EAA1BBB1BFD010DC054
:100FC000AA1FBB1FEE1FFF1FA217B307E407F507F9
:100FD00020F0A21BB30BE40BF50B661F771F881FD5
:100FE000991F1A9469F760957095809590959B016B
:100FF000AC01BD01CF010895EE0FFF1F881F8BBF0D
:0C1000000790F691E02D1994F894FFCFB2
:10100C0007000100FCFF0500666F72206C6F6F70AB
:10101C00206578616D706C65007768696C65206C13
:10102C006F6F70206578616D706C6500696E6432ED
:10103C002076616C756520006F6C6420696E64327B
:10104C002000636F6D706C696361746564207363F9
:10105C006F7065206578616D706C6500676C6F6290
:10106C00616C3A2000696E207468652069662062A4
:10107C006C6F636B3A2000696E20746865206E6536
:10108C007374656420696620626C6F636B3A200030
:10109C00696E20746865207365636F6E64206E657D
:1010AC0073746564206966006261636B20696E20ED
:1010BC007468652066697273742069663A200061F1
:1010CC006E642074686520676C6F62616C20616768
:1010DC0061696E3A20000000000001048702AA0337
:0610EC00D603BA03F6036F
:00000001FF
