:100000000C9442010C9473010C9473010C947301D1
:100010000C9473010C9473010C9473010C94730190
:100020000C9473010C9473010C9473010C94730180
:100030000C9473010C9473010C9473010C94730170
:100040000C9473010C9473010C9473010C94730160
:100050000C9473010C9473010C9473010C940305BC
:100060000C9473010C94FF070C94CB080C9473014F
:100070000C9473010C9473010C9473010C94730130
:100080000C9473010C9473010C9473010C94730120
:100090000C9432080C940A090C9473010C947301AB
:1000A0000C9473010C9473010C9473010C94730100
:1000B0000C9473010C9473010C9473010C947301F0
:1000C0000C9473010C9473010C9473010C946508E7
:1000D0000C9449090C9473010C9498080C948809A9
:1000E0000C9473014206450638063C067C06490618
:1000F0004D06530657065B066106650669067C06D3
:100100006F06730677060C9453060C9449060C94FC
:1001100098070C9442060C943C060C94A3070C948C
:1001200073060C945C070C946F060C944D060C94AB
:1001300077060C9445060C9457060C94E2060C9432
:100140005B060C9465060C944F0A0C9469060C949B
:100150004C070C9478070C9461060C9438060C94A8
:100160007C060000090A02080B0C0D0706030401B7
:10017000000000000000000000000000000000007F
:10018000000000000000000000000000000011104E
:100190000F00000000000000000000000000000050
:1001A00000000000000000000102102020080810DC
:1001B00020401020408002010201080402010102D7
:1001C00004081020408080402010080402018004B0
:1001D000020180402010080402010804020101020B
:1001E000040810204080010204081020408005050A
:1001F0000505070508080808020202020A0A08089D
:1002000004040404010101010101010103030303CA
:1002100003030303040707070C0C0C0C0C0C0C0C59
:100220000202020206060606060606060B0B0B0B6A
:100230000B0B0B0B000020002300260029002C00D4
:100240002F00320000010000030106010901000037
:100250002200250028002B002E003100340002016E
:100260000000050108010B01000021002400270007
:100270002A002D00300033000101000004010701B5
:100280000A014F0A11241FBECFEFD1E2DEBFCDBF5E
:1002900000E00CBF12E0A0E0B2E0E0EAF6E100E02E
:1002A0000BBF02C007900D92A43AB107D9F725E021
:1002B000A4EAB2E001C01D92A539B207E1F711E04E
:1002C000C2E4D1E000E006C021970109802FFE01C1
:1002D0000E94460BC134D10780E00807A9F70E94AD
:1002E000F7040C94210B0C940000DC01ED91FC91BF
:1002F0000190F081E02D19940E94A40561E08091A5
:1003000002020E947D0640E855E260E070E083E56D
:1003100093E00E94C70940E855E260E070E08DEE8E
:1003200092E00C94C709CF93DF93C0E0D0E08091B6
:1003300000020E94060681709927092E000CAA0B64
:10034000BB0B209781F04091A4025091A5026091CF
:10035000A6027091A702440F551F661F771F840FD6
:10036000951FA61FB71F8093A4029093A502A09388
:10037000A602B093A70262E370E080E090E00E94E2
:100380007E052196C032D10591F66091A40270914C
:10039000A5028091A6029091A702DF91CF910895C6
:1003A0002F923F924F925F926F927F928F929F9285
:1003B000AF92BF92CF92DF92EF92FF920F931F9373
:1003C000CF93DF93CDB7DEB72A970FB6F894DEBF91
:1003D0000FBECDBF49015A01A80197010E94240B0D
:1003E0002B013C01C501B401A80197010E94240B17
:1003F000D62EC72E89879A87812C912C5401212CC7
:10040000312C81E090E0A0E0B0E089839A83AB8357
:10041000BC83411451046104710409F442C0D30146
:10042000C20181709927AA27BB278D839E83AF8342
:10043000B8872114310489F069817A818B819C818C
:10044000660F771F881F991FA80197010E94240B30
:1004500069837A838B839C8306C0D982CA829985FB
:100460009B83AA85AC838D819E81AF81B8850197DE
:10047000A105B10571F469817A818B819C81680D38
:10048000791D8A1D9B1DA80197010E94240B4B0119
:100490005C0176946794579447949FEF291A390A20
:1004A000B8CFC501B4012A960FB6F894DEBF0FBECF
:1004B000CDBFDF91CF911F910F91FF90EF90DF9013
:1004C000CF90BF90AF909F908F907F906F905F90F4
:1004D0004F903F902F9008954F925F926F927F922E
:1004E0008F929F92AF92BF92EF92FF920F931F93C2
:1004F000CF93DF93CDB7DEB728970FB6F894DEBF62
:100500000FBECDBF29833A834B835C83270138011B
:10051000A80197010E94240B4B015C0161E070E08F
:1005200080E090E0A80197010E94240B6D837E83F8
:100530008F83988789819A81AB81BC81892B8A2B93
:100540008B2B41F1898180FF0EC083017201A501CF
:1005500094016D817E818F8198850E94D0016D8389
:100560007E838F83988783017201A5019401C50161
:10057000B4010E94D0014B015C0189819A81AB8159
:10058000BC81B695A7959795879589839A83AB8308
:10059000BC83D0CF6D817E818F81988528960FB6E0
:1005A000F894DEBF0FBECDBFDF91CF911F910F91A9
:1005B000FF90EF90BF90AF909F908F907F906F9043
:1005C0005F904F9008951F93CF93DF93172FD82FED
:1005D000C92F062E000C770B8DEE92E00E9475015C
:1005E000612F110F770B8DEE92E00E9475016D2F38
:1005F000DD0F770B8DEE92E00E9475016C2FCC0F12
:10060000770B8DEE92E0DF91CF911F910C947501E5
:100610008F929F92AF92BF92CF92DF92EF92FF9212
:10062000CF93DF93C82F4A015B010E944D056B01F8
:100630007C01C80CD91CEA1CFB1CD0E08DEE92E0BA
:100640000E944C078C179D0754F08DEE92E00E949B
:100650004C0721E08C179D079CF420E011C0B7FEE9
:1006600007C061E070E080E090E00E947E05E6CF88
:100670000E944D056C157D058E059F0590F3E5CF15
:10068000822FDF91CF91FF90EF90DF90CF90BF90BE
:10069000AF909F908F900895CF92DF92EF92FF924C
:1006A0000F931F93CF93DF938DEE92E00E94780714
:1006B000EC018DEE92E00E9478078C018DEE92E0C5
:1006C0000E947807A801110F660B770B762F652F14
:1006D000542F44278C01990F220B330B98011127BB
:1006E0000027402B512B622B732BCE01DD0FAA0B61
:1006F000BB0B6A017B01C82AD92AEA2AFB2A8DEEA4
:1007000092E00E947807092E000CAA0BBB0BB82FB1
:10071000AA2799278827BC01CD016C297D298E291C
:100720009F29DF91CF911F910F91FF90EF90DF9064
:10073000CF9008958F929F92AF92BF92CF92DF9207
:10074000EF92FF924B015C0165E072E083E593E07C
:100750000E943A0780E090E0892B69F463E470E03E
:100760008DEE92E00E947501C501B4010E94E30282
:1007700081E090E0F1CF48EE53E060E070E085E08A
:100780000E940803882331F38DEE92E00E947807DF
:10079000813451F40E944C036B017C0161E470E0F0
:1007A0008DEE92E00E947501C701B601FF90EF90B7
:1007B000DF90CF90BF90AF909F908F9008958F92D1
:1007C0009F92AF92BF92CF92DF92EF92FF92CF9320
:1007D000DF934B015C0161E172E083E593E00E94ED
:1007E0003A076DE172E083E593E00E943A07C0E0CA
:1007F000D0E02097A9F448EE53E060E070E081E09B
:100800000E940803882381F18DEE92E00E94780710
:1008100021E090E0833409F020E0C22FD92FE9CF06
:10082000C130D10521F0C230D105D9F421C048EE44
:1008300053E060E070E084E00E9408038823A1F0A8
:100840000E944C036B017C0161E470E08DEE92E04C
:100850000E947501C501B4010E94E302C2E0D0E02C
:10086000C8CFC330D10571F0C430D10509F0BFCF76
:1008700048EE53E060E070E081E00E9408038111DF
:1008800012C0B5CF48EE53E060E070E084E00E9413
:100890000803882309F4ABCF0E944C036B017C0151
:1008A000C4E0D0E0A6CF8DEE92E00E9478078134BC
:1008B00031F0833409F09DCFC3E0D0E09ACFC70177
:1008C000B601DF91CF91FF90EF90DF90CF90BF9076
:1008D000AF909F908F900895CF92DF92EF92FF920A
:1008E0006B017C01809102020E94B906019741F4DC
:1008F000C701B601FF90EF90DF90CF900C94DF031B
:10090000C701B601FF90EF90DF90CF900C949A034F
:100910008F929F92AF92BF92EF92FF920F931F938D
:100920000E9493014B015C01EE24EA94FE2C0FEF30
:100930001FE7A501940167EA71E480E090E00E945E
:100940006C020E946C04A50194010E946C021F912C
:100950000F91FF90EF90BF90AF909F908F90089570
:10096000D62F63E372E083E593E00E943A0766E5E1
:1009700072E083E593E00E943A078DEE92E00E94D8
:100980004C07181619067CF48DEE92E00E94780749
:10099000682F6D2783E593E06D3019F40E942607D8
:1009A00002C00E94A30783E593E00E944C0718163B
:1009B00019061CF783E593E00E947807C82F8D3055
:1009C00029F483E593E00E94260705C0682F83E59C
:1009D00093E00E94A3076C2F6D278DEE92E06D309F
:1009E00019F40E942607C9CF0E94A307C6CF0E9410
:1009F0007C016DE672E083E593E00E943A070E9475
:100A000088040E94B0041F920F920FB60F92112417
:100A10002F933F938F939F93AF93BF938091E50262
:100A20009091E602A091E702B091E8023091E402D1
:100A300023E0230F2D3720F40196A11DB11D05C021
:100A400026E8230F0296A11DB11D2093E402809396
:100A5000E5029093E602A093E702B093E80280914A
:100A6000E9029091EA02A091EB02B091EC020196AA
:100A7000A11DB11D8093E9029093EA02A093EB02BD
:100A8000B093EC02BF91AF919F918F913F912F91C5
:100A90000F900FBE0F901F9018952FB7F89460918C
:100AA000E5027091E6028091E7029091E8022FBF83
:100AB00008953FB7F8948091E9029091EA02A091DD
:100AC000EB02B091EC0226B5A89B05C02F3F19F0B0
:100AD0000196A11DB11D3FBFBA2FA92F982F8827BE
:100AE000820F911DA11DB11DBC01CD0142E0660F19
:100AF000771F881F991F4A95D1F70895CF92DF92EB
:100B0000EF92FF92CF93DF936B017C010E94590516
:100B1000EB01C114D104E104F10479F00E945905FC
:100B20006C1B7D0B683E7340A0F381E0C81AD108AE
:100B3000E108F108C851DC4FECCFDF91CF91FF9075
:100B4000EF90DF90CF900895789484B5826084BD53
:100B500084B5816084BD85B5826085BD85B58160C1
:100B600085BDEEE6F0E0808181608083E1E8F0E021
:100B70001082808182608083808181608083E0E850
:100B8000F0E0808181608083E1EBF0E0808184602F
:100B90008083E0EBF0E0808181608083E1E9F0E038
:100BA000808182608083808181608083E0E9F0E0E1
:100BB000808181608083E1EAF0E0808182608083CF
:100BC000808181608083E0EAF0E0808181608083C1
:100BD000E1E2F1E0808182608083808181608083B6
:100BE000E0E2F1E0808181608083EAE7F0E08081EB
:100BF0008460808380818260808380818160808343
:100C00008081806880831092C1000895863308F047
:100C1000865390917B00282F2870977F922B90937A
:100C20007B0087702091040290E4299F9001112499
:100C3000822B80937C0080917A00806480937A007C
:100C400080917A0086FDFCCF809178002091790018
:100C500090E0922B089590E0FC013197E131F1058D
:100C600008F04AC08827EE58FF4F8F4F0C94460B70
:100C7000809180008F7703C0809180008F7D80936A
:100C80008000089584B58F7702C084B58F7D84BDC0
:100C900008958091B0008F7703C08091B0008F7D60
:100CA0008093B0000895809190008F7707C0809165
:100CB00090008F7D03C080919000877F809390008B
:100CC00008958091A0008F7707C08091A0008F7D4C
:100CD00003C08091A000877F8093A0000895809139
:100CE00020018F7707C0809120018F7D03C0809104
:100CF0002001877F809320010895CF93DF9390E0B8
:100D0000FC01E855FE4F2491FC01E251FE4F849115
:100D1000882361F190E0880F991FFC01E859FD4F8D
:100D2000C591D491FC01E25BFD4FA591B491611195
:100D300009C09FB7F8948881209582238883EC911D
:100D40002E230BC0623061F49FB7F8943881822F54
:100D5000809583238883EC912E2B2C939FBF06C014
:100D60008FB7F894E8812E2B28838FBFDF91CF9126
:100D70000895CF93DF93282F30E0F901EE59FE4F0D
:100D80008491F901E855FE4FD491F901E251FE4FEB
:100D9000C491CC2391F081110E942B06EC2FF0E03E
:100DA000EE0FFF1FEC5CFD4FA591B491EC91ED238C
:100DB00081E090E021F480E002C080E090E0DF91EB
:100DC000CF910895CF92DF92EF92FF920F931F93EE
:100DD000CF93DF936C01EB017B01E40EF51E00E085
:100DE00010E0CE15DF0561F06991D601ED91FC911F
:100DF0000190F081E02DC6011995080F191FF1CF60
:100E0000C801DF91CF911F910F91FF90EF90DF907C
:100E1000CF9008956115710579F0FB0101900020D4
:100E2000E9F73197AF01461B570BDC01ED91FC91BF
:100E30000280F381E02D199480E090E00895DC01B8
:100E4000ED91FC910190F081E02D19940F931F9387
:100E5000CF93DF93EC016DE00E941F078C016AE0E5
:100E6000CE010E941F07800F911FDF91CF911F912C
:100E70000F9108950F931F93CF93DF93EC010E947E
:100E80000A078C01CE010E942607800F911FDF9177
:100E9000CF911F910F910895FC0124853585F901AB
:100EA000E05CFF4F80819181329620813181821BED
:100EB000930B8F7399270895DC011C96ED91FC919B
:100EC0001D97DF01A05CBF4F2D913C9111971296A9
:100ED0008D919C9111972817390739F08D919C912C
:100EE000E80FF91F808190E008958FEF9FEF08953C
:100EF000FC01A485B585FD01E05CFF4F20813181B7
:100F00003296808191812817390779F0808191810B
:100F1000A80FB91F8C91208131812F5F3F4F2F7314
:100F200033273183208390E008958FEF9FEF08955A
:100F3000FC0181A1882329F0A489B5898C9186FFC1
:100F4000FBCF11A208950F931F93CF93DF93FC0162
:100F5000A685B7858D01005C1F4FE80188819981C6
:100F600001968F739927AD014E5B5F4FEA0128818F
:100F7000398182179307D1F3E80128813981A20FC3
:100F8000B31F6C93A685B785A05CBF4F11969C9349
:100F90008E93A689B7892C9181E090E0078C02C0DE
:100FA000880F991F0A94E2F7822B8C9381E081A32A
:100FB0000488F589E02D80818064808381E090E061
:100FC000DF91CF911F910F910895FB01E05CFF4FDE
:100FD000208131812F5F3F4F2F733327DB01AE5BC1
:100FE000BF4F4D915C912417350741F040815181ED
:100FF000DB01A40FB51F8C933183208308951F92CA
:101000000F920FB60F9211240BB60F922F933F93AE
:101010004F935F936F937F938F939F93AF93BF9300
:10102000EF93FF938091C00082FD07C08091C600BE
:1010300061E575E00E94E50702C08091C600FF915E
:10104000EF91BF91AF919F918F917F916F915F9140
:101050004F913F912F910F900BBE0F900FBE0F90AD
:101060001F9018951F920F920FB60F9211240BB676
:101070000F922F933F934F935F936F937F938F9331
:101080009F93AF93BF93EF93FF938091C80082FD2E
:1010900007C08091CE0069EC74E00E94E50702C0B1
:1010A0008091CE00FF91EF91BF91AF919F918F9171
:1010B0007F916F915F914F913F912F910F900BBE58
:1010C0000F900FBE0F901F9018951F920F920FB6A2
:1010D0000F9211240BB60F922F933F934F935F9370
:1010E0006F937F938F939F93AF93BF93EF93FF93F0
:1010F0008091D00082FD07C08091D60061E474E049
:101100000E94E50702C08091D600FF91EF91BF9148
:10111000AF919F918F917F916F915F914F913F918F
:101120002F910F900BBE0F900FBE0F901F90189530
:101130001F920F920FB60F9211240BB60F922F939E
:101140003F934F935F936F937F938F939F93AF934F
:10115000BF93EF93FF938091300182FD07C0809190
:10116000360169EB73E00E94E50702C08091360109
:10117000FF91EF91BF91AF919F918F917F916F916F
:101180005F914F913F912F910F900BBE0F900FBE2B
:101190000F901F9018951F920F920FB60F92112467
:1011A0000BB60F922F933F938F939F93EF93FF93E1
:1011B00020914D0530914E0580914F05909150053D
:1011C0002817390731F48091C1008F7D8093C100C9
:1011D00014C0E0914F05F0915005E35FFA4F208174
:1011E00080914F059091500501968F7399279093A8
:1011F000500580934F052093C600FF91EF919F917A
:101200008F913F912F910F900BBE0F900FBE0F90BB
:101210001F9018951F920F920FB60F9211240BB6C4
:101220000F922F933F938F939F93EF93FF93209170
:10123000C5043091C6048091C7049091C804281752
:10124000390731F48091C9008F7D8093C90014C0A3
:10125000E091C704F091C804EB57FB4F20818091C7
:10126000C7049091C80401968F7399279093C8047E
:101270008093C7042093CE00FF91EF919F918F91AF
:101280003F912F910F900BBE0F900FBE0F901F90AC
:1012900018951F920F920FB60F9211240BB60F9252
:1012A0002F933F938F939F93EF93FF9320913D0450
:1012B00030913E0480913F049091400428173907F3
:1012C00031F48091D1008F7D8093D10014C0E091E2
:1012D0003F04F0914004E350FC4F208180913F0493
:1012E0009091400401968F739927909340048093C6
:1012F0003F042093D600FF91EF919F918F913F91F2
:101300002F910F900BBE0F900FBE0F901F9018954E
:101310001F920F920FB60F9211240BB60F922F93BC
:101320003F938F939F93EF93FF932091B503309159
:10133000B6038091B7039091B8032817390731F4A9
:10134000809131018F7D8093310114C0E091B7030A
:10135000F091B803EB58FC4F20818091B703909136
:10136000B80301968F7399279093B8038093B703BE
:1013700020933601FF91EF919F918F913F912F9193
:101380000F900BBE0F900FBE0F901F901895CF922D
:10139000DF92EF92FF920F931F93CF93DF93EC01B5
:1013A0006A017B014115514E6105710509F1EC8916
:1013B000FD8981E090E008A002C0880F991F0A947F
:1013C000E2F7808360E079E08DE390E0A701960189
:1013D0000E94240B89019A01015011092109310948
:1013E0003695279517950795980101151041A8F096
:1013F000EC89FD89108260E874E88EE190E0A70135
:1014000096010E94240BDA01C9010197A109B109D3
:10141000B695A795979587959C01E889F9893083BA
:10142000EA89FB89208319A2EE89FF89408181E046
:1014300090E09C010C8C02C0220F331F0A94E2F74B
:10144000242B2083EE89FF8940819C010D8C02C0F2
:10145000220F331F0A94E2F7242B2083EE89FF89A1
:1014600040819C010E8C02C0220F331F0A94E2F7C8
:10147000242B2083EE89FF8920810F8C02C0880FE6
:10148000991F0A94E2F7809582238083DF91CF91A0
:101490001F910F91FF90EF90DF90CF900895CF9222
:1014A000DF92EF92FF92E3E5F3E01382128288EE7F
:1014B000C82E83E0D82EE12CF12CC482D582E6829E
:1014C000F78267E972E07183608381E595E0958733
:1014D00084878DE095E09787868785EC90E0918BF7
:1014E000808B84EC90E0938B828B80EC90E0958BEA
:1014F000848B81EC90E0978B868B82EC90E0918FCF
:10150000808F86EC90E0938F828F44E0448F33E0AD
:10151000358F27E0268F95E0978F81E080A3E1E368
:10152000F3E013821282C482D582E682F78271834D
:101530006083A9ECB4E0B587A487A5E8B4E0B787D9
:10154000A687ADECB0E0B18BA08BACECB0E0B38B78
:10155000A28BA8ECB0E0B58BA48BA9ECB0E0B78B64
:10156000A68BAAECB0E0B18FA08FAEECB0E0B38F49
:10157000A28F448F358F268F978F80A3EFE0F3E003
:1015800013821282C482D582E682F78271836083DD
:10159000A1E4B4E0B587A487ADEFB3E0B787A68731
:1015A000A5EDB0E0B18BA08BA4EDB0E0B38BA28B26
:1015B000A0EDB0E0B58BA48BA1EDB0E0B78BA68B0E
:1015C000A2EDB0E0B18FA08FA6EDB0E0B38FA28FF7
:1015D000448F358F268F978F80A3EDEEF2E0138234
:1015E0001282C482D582E682F7827183608369EBBE
:1015F00073E07587648765E773E07787668765E3DF
:1016000071E0718B608B64E371E0738B628B60E3DC
:1016100071E0758B648B61E371E0778B668B62E3BD
:1016200071E0718F608F66E371E0738F628F448F1A
:10163000358F268F978F80A3FF90EF90DF90CF900C
:101640000895F8940C944E0BA1E21A2EAA1BBB1B12
:10165000FD010DC0AA1FBB1FEE1FFF1FA217B3077E
:10166000E407F50720F0A21BB30BE40BF50B661F94
:10167000771F881F991F1A9469F760957095809558
:1016800090959B01AC01BD01CF010895EE0FFF1FA6
:10169000881F8BBF0790F691E02D1994F894FFCF27
:1016A00037000D00014920616D20636C69656E741F
:1016B000004920616D20736572766572005761691B
:1016C00074696E6720666F7220636C69656E742E34
:1016D0002E2E002D2D2D2D2D2D2D2D2D2D2D2D2D65
:1016E0002D2D2D2D2D2D2D2D2D2D2D2D2D2D2D2D2A
:1016F0002D2D2D2D2D00596F7520617265206E6F77
:101700007720636F6E6E6563746564210057656C46
:10171000636F6D6520746F2041726475696E6F2010
:10172000436861742050726F6772616D2076342E49
:1017300032300000000000A307E2064C0778075C87
:0417400007980700FF
:00000001FF
